:100000000C94BA030C94D7030C94D7030C940E2FC2
:100010000C94D7030C94D7030C94D7030C94D703F8
:100020000C94D7030C94D7030C9453270C940F27EC
:100030000C9450280C94D7030C94D7030C94D7033A
:100040000C94D7030C94D7030C94D7030C94D703C8
:100050000C94D7030C942C280C94D7030C94D7033E
:100060000C94D7030C94D7030C94D7030C94D703A8
:100070000C94D7030C94D7030C94D7030C94D70398
:100080000C94D7030C94D7030C94D7030C94D70388
:100090000C94D7030C94D7030C94D7030C94D70378
:1000A0000C94D7030C94D7030C94D70305010902D1
:1000B000A10185020901A1000509190129081500FE
:1000C0002501950875018102050109300931158165
:1000D000257F95027508810609381581257F9501D0
:1000E00075088106050C0A38021581257F95017572
:1000F000088106C0C005010980A101850319012AF4
:10010000B700150126B700950175108100C0050CD8
:100110000901A101850419012AA002150126A002E6
:10012000950175108100C00660FF0961A101096297
:10013000150026FF00952075088102096315002629
:10014000FF00952075089102C005010906A101056F
:100150000719E029E7150025019508750181029529
:1001600001750881010507190029FF150026FF0008
:100170009506750881000508190129051500250156
:10018000950575019102950175039101C00000006C
:10019000000000000000000000000000000000005F
:1001A000000000000000000000000000000000004F
:1001B000007E0F00D4FFFFFFC700000078000000A2
:1001C00000000000002A2B280000000000000000B2
:1001D000000000000000000029000000002C1E3478
:1001E00020212224342627252E362D3738271E1F7E
:1001F000202122232425263333362E37381F0405A9
:10020000060708090A0B0C0D0E0F10111213141516
:10021000161718191A1B1C1D2F3130232D350405F4
:10022000060708090A0B0C0D0E0F101112131415F6
:10023000161718191A1B1C1D2F3130354C1E0F05AF
:1002400000047F3F1F643214643214783C1E1E1475
:100250000A0500010101010101010101020202027E
:100260000202020202030303030303030304040460
:100270000404040405050505050606060606070729
:1002800007070708080808090909090A0A0A0B0BE1
:100290000B0C0C0C0D0D0D0E0E0E0F0F0F10101180
:1002A0001111121213131414151516161717181806
:1002B00019191A1A1B1B1C1D1D1E1E1F202021226E
:1002C00022232424252626272829292A2B2C2D2DB4
:1002D0002E2F30313232333435363738393A3B3CD1
:1002E0003D3E3F404142434445464748494A4C4DC4
:1002F0004E4F50515354555658595A5B5D5E5F618D
:100300006264656668696B6C6D6F7072737577781F
:100310007A7B7D7E8082838587888A8C8E8F91937D
:100320009596989A9C9EA0A2A3A5A7A9ABADAFB1A4
:10033000B3B5B7BABCBEC0C2C4C6C9CBCDCFD1D489
:10034000D6D8DBDDDFE2E4E7E9EBEEF0F3F5F8FA2F
:10035000FDFFFFAA7F55402223252628292A2C2D80
:100360002F3032333536383A3B3D3E4042434547E5
:10037000494A4C4E5051535557595A5C5E6062641D
:100380006668696B6D6F71737577797B7D7F81832B
:100390008587898A8C8E90929496989A9C9E9FA12C
:1003A000A3A5A7A8AAACAEAFB1B3B4B6B8B9BBBC4D
:1003B000BEBFC1C2C3C5C6C7C9CACBCCCDCED0D1C2
:1003C000D2D2D3D4D5D6D7D7D8D9D9DADADBDBDBBA
:1003D000DCDCDCDCDCDDDDDDDDDCDCDCDCDCDBDB5B
:1003E000DBDADAD9D9D8D7D7D6D5D4D3D2D2D1D0AF
:1003F000CECDCCCBCAC9C7C6C5C3C2C1BFBEBCBBAC
:10040000B9B8B6B4B3B1AFAEACAAA8A7A5A3A19F23
:100410009E9C9A98969492908E8C8A8987858381E7
:100420007F7D7B79777573716F6D6B6968666462C8
:10043000605E5C5A5957555351504E4C4A49474596
:100440004342403E3D3B3A3836353332302F2D2C37
:100450002A29282625232229001E001F00200021EA
:10046000002200000000002B0014001A00080015F4
:1004700000170000000000E000040016000700095B
:10048000000A0000000000E1001D001B000600192A
:10049000000500000000000000E200E3002C002C3A
:1004A0000000000000000023002400250026002793
:1004B000002D002E0031001C0018000C001200134B
:1004C000002F00300035000B000D000E000F003330
:1004D00000340028002A00110010003600370038D0
:1004E00000E500215200002C002C000000E700E68F
:1004F0000000000000000062523A003B003C003D5A
:10050000003E0000000000010001000100010001A8
:1005100000010000000000010001000100010001D5
:1005200000010000000000010001000100010001C5
:1005300000010000000000000001000100010001B6
:10054000000000000000003F004000410042004366
:1005500000440045004900010001004600470048F2
:1005600000520001004C00010001004A004B005005
:10057000004F0001002A00010001004D004E005113
:1005800000010001000000010001000000780001EE
:1005900000000000000000625200000000000000A7
:1005A000000000000000000000000000000000004B
:1005B000000000000000000000000000000000003B
:1005C000000000000000000000000000000000002B
:1005D000000000000000000000000000000000001B
:1005E000000000000000000000000000000000000B
:1005F00000000000000000000000000000000000FB
:100600000000000000007C2078217800000000003D
:10061000000000000000002878277824782378263E
:10062000782578000000000000000000007800003D
:1006300000000000000000000000000000000000BA
:1006400000000000000000000000000000000000AA
:10065000000000000000000000000000000000009A
:10066000000000000000000000000000000000008A
:10067000000000000000000000000000000000007A
:10068000000000000000000000000000000000006A
:10069000000000000000000000000000000000005A
:1006A0000000000000007C000000000000000000CE
:1006B000000000000000000000000000000000003A
:1006C000000000000000000000000000000000002A
:1006D0000000000000000009025B00030100A0C848
:1006E0000904000001030101000921110100012298
:1006F000440007058103080001090401000203000A
:1007000000000921110100012222000705820320B7
:100710000001070503032000010904020001030092
:100720000000092111010001227B0007058403203C
:1007300000011201000200000008D8045FEB07006E
:10074000010200010A03370073006B006200000021
:100750001E03530061006C006900630079006C00A7
:10076000690063005F0041006300690064000000ED
:100770000403090411241FBECFEFDAE0DEBFCDBFB2
:1007800023E0ACECB1E001C01D92A235B207E1F765
:1007900011E0A0E0B1E0E0E3F5E602C005900D92C3
:1007A000AC3CB107D9F70E9477280C942F320C94F7
:1007B0000000482F209122039091E90257E029136D
:1007C00002C080E0089530E0529FF001539FF00D89
:1007D0001124E651FD4F8181681306C080814813C2
:1007E00003C085818111EECF2F5F3F4F2770E7CF88
:1007F000FC01AC014B5F5F4F8FEF91E321918227AA
:1008000028E030E087FF09C0880F8927215031098F
:10081000C9F7E417F50791F70895880FF7CFE8EDCA
:10082000F0E080818E7F80831092E2001092DA00E7
:100830001092E100A0EEB0E08C9181608C938081F9
:100840008F77808319BCA7EDB0E08C918E7F8C935D
:1008500080818F7E80831092D20208952091E400DF
:100860003091E50095E6A9012091EC00822F81707E
:1008700020FF06C08091E80080FF06C080E0089558
:100880002091E80022FD1AC08091DF02882389F0C0
:10089000853089F08091EB0085FD0FC02091E40048
:1008A0003091E50042175307F9F29150E1F684E0E8
:1008B000089582E0089583E0089581E0089580918D
:1008C000E10287FF13C08091E80082FF06C080919B
:1008D000E8008B778093E80004C08091DF028111EB
:1008E000F2CF08958091DF028823D9F38091E80048
:1008F00080FFF8CF8091E8008E77ECCF982F90930F
:10090000E900242F762F50E0891731F07091EC0028
:100910002091ED005091F00021FD07C09F5F9730BE
:1009200071F78093E90081E008953091EB003E7FFC
:100930003093EB003091ED003D7F3093ED0030912E
:10094000EB0031603093EB007093EC002093ED00EE
:100950005093F0002091EE0027FDE0CF80E0089555
:10096000B0E0A0E0E6EBF4E00C943430C8EDD0E069
:1009700088818F7E8883E7EDF0E0808181608083CD
:1009800084E082BF81E08093D20288818E7F888359
:1009900002EE10E0F80110821092DA0081EEC82E0B
:1009A000D12CF601108288818F77888388818068B6
:1009B000888388818F7D888319BC1092DF02109212
:1009C000E0021092DE021092DD0290EEE92EF12C90
:1009D000F70180818B7F808388818160888342E0FA
:1009E00060E080E00E947E04F60180818E7F80833B
:1009F000F801808181608083808188608083F70135
:100A000080818E7F8083888180618883CDB7DEB7C7
:100A1000E8E00C945030FC018091E7029091E802EC
:100A200086179707A0F06115710529F49091E800E9
:100A30009E779093E80090E06115710551F4911153
:100A400008C08091E80082FF34C080E00895BC01B6
:100A5000F2CF8091DF028823C1F18530C1F180910E
:100A6000E80083FD30C08091E80082FDEACF8091EC
:100A7000E80080FFE1CF8091F3002091F200382F51
:100A80006115710519F02830310558F091E02830D2
:100A9000310509F090E02091E8002E772093E800DE
:100AA000CBCF81918093F100615071092F5F3F4F4F
:100AB000E7CF8091DF02882341F0853041F08091BB
:100AC000E80083FFBECF81E0089582E0089583E0CF
:100AD0000895089508958091D402089587E797E7CF
:100AE000909301088093000888E19AE00FB6F8948B
:100AF000A895809360000FBE90936000FFCF9C018B
:100B00004FB7F8948091CE029091CF02A091D0027D
:100B1000B091D1024FBF821B930B08952FB7F89469
:100B20006091CE027091CF028091D0029091D1025B
:100B30002FBF08952FB7F8948091CE029091CF02E5
:100B4000A091D002B091D1022FBF0895E0EDF1E065
:100B50009191891303C0DF0111971C9291E0E63D4A
:100B6000F907B1F70895A0EDB1E0EFEF90E02D9116
:100B7000821751F0EF3F19F4211101C0E92F9F5F57
:100B80009630A9F7EF3F09F408950E2E000CFF0BE5
:100B9000E253FE4F82830895A3E0B0E0E2EDF5E07A
:100BA0000C943A302091CB023091CC0228173907AF
:100BB000A1F09093CC028093CB02E091C902F09116
:100BC000CA02309751F024E029839B838A830084F2
:100BD000F185E02DCE01019609952396E2E00C9473
:100BE0005630A3E0B0E0E7EFF5E00C943A30209106
:100BF000C7023091C80228173907A1F09093C802A4
:100C00008093C702E091C902F091CA02309751F077
:100C100023E029839B838A830084F185E02DCE0124
:100C2000019609952396E2E00C9456308091C50216
:100C3000882359F0E091C902F091CA02309729F057
:100C40000190F081E02D0995089580E008950E94BB
:100C50009A059C019091C1028091C202982B21F0CB
:100C60003093BE022093BD029091C3028091C402D2
:100C7000982B21F03093BC022093BB02E091C90273
:100C8000F091CA02309749F082E08093BF0206805B
:100C9000F781E02D8FEB92E0099508958091BA02DB
:100CA00080FF0CC06091470170E075956795759560
:100CB00067956115710549F1862F089581FF06C07A
:100CC0006091470170E075956795F3CF609147019A
:100CD00082FD0BC09091B9029923A1F06091460169
:100CE00080914701961738F0682F70E060387105E1
:100CF00000F38FE70895899FC001112470E00E94DE
:100D00008F30F4CF61E070E0D7CF81E0089580911B
:100D1000BA0280FF0DC06091450170E0660F771F39
:100D20006038710570F56115710569F1862F0895B8
:100D300081FF07C06091450184E0689FB0011124E4
:100D4000EFCF82FF04C06091450188E0F6CF80912B
:100D5000B802882399F020914401609145018217DF
:100D6000A0F7869FC001112433E0880F991F3A95A0
:100D7000E1F7622F70E00E948F30D2CF68E070E020
:100D8000D5CF8FE7089581E00895282F35EB230311
:100D9000C001112497FF04C080589109892F08953C
:100DA00080589F4FFBCFFA01811101C0FB010995CB
:100DB0000895E4E7F2E011828281846082830895DD
:100DC00080914A03982F9C7F61F4837084608093A4
:100DD0004A0380914D03853B18F084EB80934D03CB
:100DE00008958C3AB0F38370886AF1CFAF92BF92C6
:100DF000DF92EF92FF920F931F93CF93DF93182F01
:100E0000062FE901453B08F044EBE42FF0E0EE5AF1
:100E1000FD4F011110C0E4915E2F4E2F4983E883EE
:100E20005A83DF91CF911F910F91FF90EF90DF9048
:100E3000BF90AF900895202F30E04491D42EE42E3F
:100E4000F12C56E0159FC0011124EFEFF0E0BF0137
:100E50000E947B30812F90E0880F991F55E5569FA7
:100E6000D001579FB00D11248A1B9B0B982F990F0F
:100E7000890F5F01A21AB30AAE9CD001AF9CB00DDE
:100E8000BE9CB00D11245B2F089F80011124012FFF
:100E900011275F01A01AB10AAE9C8001AF9C100D12
:100EA000BE9C100D11245F01A81AB108A29EC001BA
:100EB000A39E900DB29E900D1124892F9927E81BB7
:100EC000F90BEE9DC001EF9D900DFE9D900D11243C
:100ED000E92F62307105A1F050F46115710509F434
:100EE0009DCF6130710581F0EB2F512F97CF64308A
:100EF000710569F080F06630710509F48FCFF4CF89
:100F0000E42F4B2F592F8ACFE42F412F87CFEB2F80
:100F1000542F492F83CF4B2F5D2DE12F7FCF80E0C2
:100F20000895F894E82FE295EF70F0E031A1282FB2
:100F30002F7081E090E001C0880F2A95EAF7982F82
:100F40009095932391A392A1892B82A378940895DD
:100F50000F931F938091C502882329F00E948E056C
:100F60001F910F9108950E948E05009142021091E9
:100F700043022091440230914502600F711F821F8D
:100F8000931FEECF8091C502882319F00E949A0525
:100F900008950E94A807CB0108959091530292FFF3
:100FA00010C041E0282F2471243009F040E031E0E6
:100FB000282F2871283009F030E0431711F02CE079
:100FC000822793FF10C041E0282F2471243109F0BB
:100FD00040E031E0282F2871283109F030E0431734
:100FE00011F02CE082273091540230FF10C051E004
:100FF000282F2171213009F050E041E0282F28717D
:10100000283009F040E0541711F029E0822731FF21
:1010100010C041E0282F2171213109F040E031E07A
:10102000282F2871283109F030E0431711F029E00A
:10103000822794FD877E089582389105B9F1B0F436
:101040008133910509F47DC048F48932910509F492
:101050006DC08A32910509F47BC0089585339105EE
:1010600009F45FC08933910509F10895833E910524
:10107000D9F138F4803E910529F1823E910579F14C
:101080000895863E9105D9F1873E910509F43EC049
:10109000843E910541F52091540221FF24C08091A6
:1010A000530284FD19C087EE90E008952091530209
:1010B000237009F05AC02091540223FF14C089E222
:1010C00090E008952091530220FD38C030915402E1
:1010D00030FF09C024FF43C090E080E008952091D4
:1010E000530222FDF7CF08952091530222FD3AC00A
:1010F0003091540230FD39C024FFF5CFEDCF20915F
:10110000530223FFF0CF24FDE7CFCDCF2091530230
:1011100023FD2EC03091540231FFEECF84EE90E0DB
:1011200008952091530225FFDECFC9CF20915302AD
:1011300025FD21C02091540223FFD5CF89E390E003
:10114000D2CF2091530226FFCECF8AE290E00895BD
:101150002091530226FFC7CF81E390E0089583EEEC
:1011600090E0089582EE90E0089580EE90E008957A
:1011700086EE90E0089585E390E008951F93CF9365
:10118000DF930E941C08EC01C11580E5D807F0F53B
:10119000C11580E4D80708F09CC0C03ED10520F5F9
:1011A000CD3CD10508F082C0C83AD10578F4C53AE3
:1011B000D10508F073C0C130D10519F1209709F1AC
:1011C000C430D105F0F4D0E0C0E01BC0C33CD10571
:1011D000D0F7C85AD0E0CC0FDD1FC45BDE4F0990BA
:1011E000D881C02DD4640DC0C11580E2D80708F0A5
:1011F000D1C0C11581E0D80708F05AC0C83ED1055A
:1012000010F7CE01DF91CF911F910895C03682E58E
:10121000D80718F5C03482E5D80708F06BC0C03293
:1012200082E5D80708F05FC0C11582E5D80708F449
:1012300097C02C2F2695269580E2289F9001112497
:101240008C2F8370C1E0D0E002C0CC0FDD1F8A95E7
:10125000E2F7C22BD32BDD68D4CFC03A82E5D807A2
:1012600060F4C03882E5D80708F459C0CF71D0E0E7
:10127000DC2FCC27C46FD06AC4CFC03C82E5D8072E
:1012800008F462C0C03E82E5D80708F09CCFDC2F8E
:10129000CC27CC27DF71C06FD06AB3CFC55AD0E05E
:1012A000C75BDE4FC881D0E0D064ABCFD065A9CF9B
:1012B0008D2F0E94CD07182FCE0199270E941C0860
:1012C000C12FD0E0DC2FCC27CC27DF71C82BD92B46
:1012D00098CFCE0199270E941C08CC27DF70C82B1D
:1012E000D92BD06A8ECFCF71D0E0DC2FCC27C16F45
:1012F000D06A87CF2C2F26952695277080E2289FCD
:10130000900111248C2F8370C1E0D0E002C0CC0F7B
:10131000DD1F8A95E2F7C22BD32BDC6872CF2C2F0E
:1013200026952695277080E2289F900111248C2F06
:101330008370C1E0D0E002C0CC0FDD1F8A95E2F7D8
:10134000C22BD32BDA685DCF8C2F8F710E94CD0713
:10135000C82FD0E0DC2FCC27CC27DF71D06251CF53
:101360008C2F8F710E94CD0755E0D695C7955A9561
:10137000E1F7CF70D0E0DC2FCC27282F30E084FFBE
:1013800005C044E0220F331F4A95E1F7C22BD32B4F
:10139000D06937CF8D2F8F710E94CD07182FCE01C6
:1013A00099270E941C08C12FD0E0DC2FCC27CC2726
:1013B000DF71C82BD92BD2CF809590910D02982345
:1013C00090930D020895809122039091E902981361
:1013D00001C008958F5F8770FACF9A3080F588300A
:1013E00070F548E0949F90011124820F932F911D76
:1013F000682F677023E0969587952A95E1F7FC01A1
:10140000EE0FFF1FE80FF91FE352FE4F50E040E0E0
:1014100080E0219130E0062E02C0369527950A948F
:10142000E2F721703327042E01C0220F0A94EAF755
:10143000822B4F5F5F4F4330510559F7089580E08D
:1014400008959A3098F5883088F548E0949F900187
:101450001124820F932F911D282F277041E001C086
:10146000440F2A95EAF723E0969587952A95E1F7A8
:10147000FC01EE0FFF1FE80FF91FE352FE4F90E053
:1014800080E070E05191DF0111979B01082E02C0AE
:10149000369527950A94E2F7217021952527242374
:1014A00025272C9301968330910561F70895809349
:1014B0000E0208954091C1029091C3022091C4028E
:1014C000662309F469C0942B922B2091C202922BBF
:1014D00031F098E09093B80291E09093B9028D3C7E
:1014E00041F40E94870681958093C2020E942706DC
:1014F00008958E3C19F40E948706F6CF8F3C31F494
:101500000E94870681958093C102F0CF803D19F437
:101510000E948706F8CF893D29F40E944E068093E9
:10152000C302E4CF8A3D21F40E944E068195F7CF95
:101530008B3D31F40E944E0681958093C402D6CF34
:101540008C3D19F40E944E06F8CF9FE2980F983018
:1015500070F4815D990B21E030E001C0220F8A9583
:10156000EAF78091C002822B8093C002BFCF8D3DED
:1015700031F48091BA0281608093BA02B7CF8E3D78
:1015800021F48091BA028260F7CF8F3D09F0AECF8F
:101590008091BA028460F0CF8D3C59F48091C202F0
:1015A00087FF0DC01092C20241110BC01092B80209
:1015B00008C08E3C81F48091C20218169CF344232B
:1015C00081F08091C3029091C402892B09F08ECFE3
:1015D0001092B9028BCF8F3C49F447FFF0CF1092A5
:1015E000C1028091C2028111ECCFE0CF803D19F49D
:1015F0001416ACF3E4CF893D29F4191604F71092C0
:10160000C302DDCF8A3D19F497FFD9CFF8CF8B3DC8
:1016100029F427FFD4CF1092C402D1CF8C3D19F406
:101620001216CCF3CCCF9FE2980F983090F4815DE6
:10163000990B21E030E0B90102C0660F771F8A954F
:10164000E2F7CB0180959091C00289238093C0027C
:10165000B6CF8D3D31F48091BA028E7F8093BA026D
:10166000AECF8E3D21F48091BA028D7FF7CF8F3DB2
:1016700009F0A5CF8091BA028B7FF0CF982F929579
:101680009F7011F0892F94E0282F2695269511F050
:101690009E5F822F869509F09F5F892F08950F9393
:1016A0001F93CF93DF938B01EA019091DF02943077
:1016B00061F58093E9008FEF9091E800815095FDEE
:1016C00006C095ED9A95F1F700008111F5CF809154
:1016D000E80085FF1AC00E942E04811111C080917C
:1016E000E80085FD06C08091E8008E778093E800D1
:1016F000F2CFF80181918F018093F100219779F762
:101700008091E8008E778093E800DF91CF911F9160
:101710000F91089543E050E0BC0184E00E944F0B1C
:10172000089546E050E0BC0184E00E944F0B08950C
:10173000CF93DF93EC0148E050E0BC0181E00E94D0
:101740004F0B88E0FE01A5EDB2E001900D928A9565
:10175000E1F7DF91CF9108956091400180914A03B4
:1017600080FF20C080913F0143E0849FC00111248D
:101770008A5D9C4F539A2BB1277F3BB138605FB78E
:10178000F894FC01649FE00DF11D1124BF0168175E
:101790007907D1F45FBF8FE594E00197F1F700C0BE
:1017A00000000895809141019091420123E0829FC1
:1017B000F0011124EA5DFC4F8917A0F61182108216
:1017C00012828F5F3396F8CFFC014191CF01E8E0A0
:1017D0003BB9000000C047FF2BB9440F000000C018
:1017E00000C000C02BB900C0EA9591F7D0CFA3E0AC
:1017F000B0E0EDEFFBE00C943A3090914A0390FF9B
:1018000010C09E012F5F3F4F0E94F6068B81998189
:101810002A812093270390932603809328030E9414
:10182000AC0B2396E2E00C945630CF93C82F0E9465
:101830003E0B8230B9F08330C9F040E060E0813087
:1018400099F44FEF6FEF8AEA0E94F70B81E08093E3
:1018500041018CE0809342018BE0809343018C2F07
:10186000CF9108954FEF6FEF80E0EECF4FEF6FEF26
:101870008FEBEACF0E94150C80935202089590914D
:10188000520221E030E0F90101C0EE0F8A95EAF73B
:10189000D90102C0AA0FBB1F6A95E2F7EA2B01C06B
:1018A000220F4A95EAF7892F8E23E81305C0292BCA
:1018B000822F0E943A0C089520952923F9CF21E028
:1018C00030E001C0220F8A95EAF7209580915202FC
:1018D00082230E943A0C08959091020280958923F8
:1018E00080930202282F277069F4891759F090918C
:1018F000540292FF07C08695869586950E945F0CDC
:1019000010920202089521E030E001C0220F8A9572
:10191000EAF780915202822B0E943A0C08950F93AD
:101920001F93CF93DF93EC0110E000E0909143010F
:101930009017110609F06CF40E94AC0B8C8190E0BA
:101940000196817099278C83DF91CF911F910F9120
:10195000089520914101A801420F511D9A01220FC3
:10196000331F240F351F2A5D3C4F4C8160914C037F
:1019700080914B0396959017110651F04CF044233B
:1019800049F040914D030E94F6060F5F1F4FCECFE6
:101990004423B9F340E0F7CFB0E0A0E0E2EDFCE093
:1019A0000C943030EC014C81042F10E09801D801E8
:1019B0000E9420329B01AC010E94EB314B015C0183
:1019C000E0E2F0E0E01BF10BA5E5B0E0AC019B012B
:1019D0000E94EB316B017C019F01DF010E94B0305E
:1019E0009B01AC010E94F6319B01AC01280D391D11
:1019F0004A1D5B1DC701B6010E94FE31F22E822FE7
:101A000090E039E23F1520F143E0249F900111243A
:101A100035952795122F109500E085E5E82EEF18F3
:101A200080914301081718F10E94AC0B9C8181E062
:101A3000992319F0903219F48FEF80933E01809131
:101A40003E01890F8C83CDB7DEB7ECE00C944C30AF
:101A500025E530E0B901681B790B9B01220F331F8C
:101A6000260F371F37FFD4CF2F5F3F4FD1CF8E2D9B
:101A700001FD8F2D20914101622F600F7727771F85
:101A80009B01220F331F260F371F2A5D3C4F412F2A
:101A900060914C030E94F6060F5FC2CFEF92FF9257
:101AA0000F931F93CF93DF93EC018C81811109C0B9
:101AB00081E08C831092780292E090933D018093B4
:101AC0003C01809141019091420123E0829FF0010D
:101AD0001124EA5DFC4F891758F110E003E0609192
:101AE0004301161758F10E94AC0B80913C012091E4
:101AF0007802280F2093780290913D01980F9093DF
:101B00003D01191654F4022E000C330B4091430191
:101B10004150550B2417350734F0819580933C01D3
:101B2000813009F41C82CDB7DEB7E6E00C94523068
:101B30001182108212828F5F3396CDCFE12EF12C6D
:101B400070E0C7010E948F3020914101820F482F21
:101B500050E020917802022E000C330BE216F306BF
:101B6000BCF020913D01022E000C330B2E153F05D9
:101B70007CF0809F900111242A5D3C4F40914D03E1
:101B800060914C0380914B030E94F6061F5FA7CF24
:101B9000FA01EE0FFF1FE40FF51FEA5DFC4F118203
:101BA00010821282F3CFB0E0A0E0E9EDFDE00C94EA
:101BB0003030EC018A81BB24BA9480FD02C0BB2482
:101BC000B394A09043018C81811109C081E0B812C7
:101BD00020C08FEF8A0D8093770281E08C83F12CF7
:101BE000E12C4CE0942EEA14B8F00E94AC0B8091EA
:101BF000770291E0B91257C0811150C08091430122
:101C00008150809377021C82CDB7DEB7ECE00C9454
:101C10004C3010927702E1CF009141010E0D1F2D43
:101C2000111DC801880F991F080F191F0A5D1C4F4D
:101C3000F80111821082128234E0C32ED12C812C43
:101C400080917702880D8D302CF1692D0E946D30C6
:101C5000892F082E000C990B8E159F0591F4809109
:101C60004D038C9DA0018D9D500D112455954795D8
:101C700055954795980160914C0380914B030E94C4
:101C8000F6068B0CF1E0CF1AD108D1F68FEFE81AE7
:101C9000F80AA9CF87FFDDCF8A0DDBCF8150809373
:101CA0007702BC82B1CF90E001966091430170E071
:101CB0000E948F30809377028C83A6CFEF92FF92A1
:101CC0001F93CF93DF93EC0110E0EE24EA94F12C04
:101CD00060914301161770F00E94AC0B9A818C81C1
:101CE00090FF27C08F5F8C83DF91CF911F91FF9072
:101CF000EF90089520914101422F410F5527551F24
:101D0000CA019A01220F331F280F391F2A5D3C4F49
:101D100070E0C7010E948F30962F8C8140914D0357
:101D200060914C03199F800D11240E94F6061F5FDD
:101D3000CFCF8150D8CF90914A0390FF0EC09091A1
:101D400041012091420133E0939FF0011124EA5DAB
:101D5000FC4F921718F00E94AC0B089581836083AA
:101D600042839F5F3396F5CFA3E0B0E0EAEBFEE05D
:101D70000C9438308C018091790281110AC09E0147
:101D80002F5F3F4F44EB6FEF0E94F6068A818093EE
:101D90007902F8016481613069F08091790240E054
:101DA000662361F040E0623011F44091790280E0F6
:101DB00060E004C06091790240E080E00E949B0EE8
:101DC000F801848190E0019663E070E00E948F301A
:101DD00084832396E4E00C945430A3E0B0E0E3EF76
:101DE000FEE00C943A3090914A0390FF0AC09E01A5
:101DF0002F5F3F4F0E94F6064B8169818A810E94C6
:101E00009B0E2396E2E00C945630CF93DF93EC01C7
:101E1000EAE4F3E0438162818C810E94ED0E8C81C3
:101E20008F5F8C83DF91CF910895CF93DF93EC0187
:101E3000EC81F0E0E95AFC4F4491EAE4F3E062817E
:101E400081810E94ED0E8C818F5F8C83DF91CF9119
:101E50000895EAE4F3E080818E7F80830E94D906B2
:101E6000E4E7F2E08281816082830E94AC0B0895F6
:101E7000B0E0A0E0EEE3FFE00C9432307C015B01C7
:101E80006A018091410201E010E08A3010F40AE01A
:101E900010E0C1E0D0E0B501C701F601099581115C
:101EA00004C021960C171D072CF4CDB7DEB7EAE06D
:101EB0000C944E30CC9F9001CD9F300D300D1124ED
:101EC00090E080E045E34A95F1F700000196821723
:101ED0009307C1F7E0CFCF93C82F6FEF811164E272
:101EE00085E290E00E9498316FEFC11161E086E2D7
:101EF00090E00E9498316FEFC11162E087E290E0BC
:101F00000E949831CF910895CF93DF93C9EAD2E030
:101F100060E0CE010E9498312196C11584E0D80777
:101F2000B9F7DF91CF9108951F93CF93DF93122FCD
:101F30008430E0F46A30D0F44830C0F490E1699F16
:101F4000E001112450E0440F551FC40FD51F90EA43
:101F5000899FC00DD11D1124632FCE0189960E9447
:101F60009831612FCE018A960E949831DF91CF91EE
:101F70001F910895AF92BF92CF92DF92EF92FF929E
:101F80001F93CF93DF9387E5C82E84E0D82ED0E04F
:101F90007601C0E014C0F50125913491412F6C2FDA
:101FA0008D2F0E94940F82E0A80EB11C1F5F183085
:101FB00091F780E1E80EF11CCF5FCA3019F05701AC
:101FC00010E0E9CFDF5F80EAC80ED11CD43001F702
:101FD000DF91CF911F91FF90EF90DF90CF90BF9056
:101FE000AF90089580E00E946B0F60E088E290E07F
:101FF0000E9498310E94BA0F0E94840F81E00E94D3
:102000006B0F089585E290E00E947431843289F468
:1020100086E290E00E947431813059F487E290E0CA
:102020000E94743191E0823009F090E0892F817034
:10203000089580E0FCCF0F931F93CF93DF938430FC
:1020400030F56A3020F5483010F520E1629F8001BC
:10205000112450E0440F551F040F151F30EA839FD1
:10206000000D111D1124C80189960E947431C82FDA
:10207000D0E0DC2FCC27C8018A960E9474319E01E3
:10208000282BC901DF91CF911F910F91089590E006
:1020900080E0F8CF462F7A3040F4683030F4843056
:1020A00020F4672F0E941B10089590E080E00895AF
:1020B000CF92DF92FF920F931F93CF93DF936C0128
:1020C0000091520280910E02082BC3E0D0E010E094
:1020D000FC2EC8010C2E02C0959587950A94E2F754
:1020E00080FD0CC02197A0F7F12C8F2DDF91CF91AF
:1020F0001F910F91FF90DF90CF900895B6018C2F24
:102100000E944A100E94BE08019761F3EECFCF9360
:10211000DF93EC010E945810BE010E944A100E94F9
:10212000BE08DF91CF910895FC0124812223C1F0E4
:10213000808191810E94871092959F70963091F0D6
:1021400058F4925F9F70923058F4803F19F030F449
:10215000883E30F481E008959A5FF4CF843FD1F354
:1021600080E00895883EB0F3813FD1F7F3CFA6E039
:10217000B0E0EDEBF0E10C94393049835A834981AA
:102180005A819923A1F0222391F0CA010E9458108C
:10219000182F682F89819A810E94210A69817A818A
:1021A000812F0E944A102696E3E00C945530CA0114
:1021B0000E94ED09182FF2CFB0E0A0E0E2EEF0E1CE
:1021C0000C942C30FC016280448081E08483E7E53C
:1021D000F3E07490E6EDF3E0E491C0914D03C69511
:1021E000C158D0E0CC0FDD1FCD2FDD27812C75E04D
:1021F000972EAA24AA94B12C55245A94E719EE2EAE
:10220000F12C80914301881638F00E94AC0BCDB7B9
:10221000DEB7E0E10C944830C82CD12C82E0861562
:1022200068F09C9CF0019D9CF00D1124E658FD4F38
:1022300080914B03808380914C038183411023C0A4
:102240009C9CF0019D9CF00D1124E658FD4F1382DB
:10225000128220914101C601820F911D9C01220F23
:10226000331F280F391F2A5D3C4F9C9CF0019D9C19
:10227000F00D1124E658FD4F4281618180810E945A
:10228000F6068394BECF9C9C80019D9C100D11246A
:1022900006581D4FF80183818823F1F08150838314
:1022A000859DC0011124648170E00E947B30FB0198
:1022B000FF27E95AFC4F8491E82FE719E59DC001FB
:1022C0001124B7010E947B3080914D03689FB001BB
:1022D0001124F8017283BDCF0E944131B5010E94E3
:1022E0008F308C179D070CF0B4CFF2E0F61598F400
:1022F0000E944131B5010E948F30F80180830E9415
:10230000413120914C032695622F70E00E948F305E
:10231000280FF80121839C9CF0019D9CF00D112455
:10232000E658FD4F128280914D03893C58F088ECAD
:102330009C9CF0019D9CF00D1124E658FD4F848378
:10234000838387CF8431A0F784E1F2CF60914A0381
:102350006695669570E04BE050E081E391E00E9465
:102360005131892B19F481E0809375020E94C207D4
:1023700090936F0280936E028091760284608093C6
:1023800076020895B0E0A0E0E8ECF1E10C94303082
:1023900049015A016B017C010E94E0068401A401FD
:1023A0006A2D7B2D88E090E00E94AA3194014A2D8D
:1023B0005B2DB601C70100E20E94DA30622F84E291
:1023C00090E00E949831CDB7DEB7ECE00C944C3031
:1023D000A3E0B0E0EEEEF1E10C943330082FE62EEE
:1023E000F42EC22E90914A0390FF41C020914B03DE
:1023F000281308C080914C03861304C080914D03BC
:10240000841729F080917602826080937602E92F0A
:10241000E695E695AE2FB0E0AF56BE4F8C91809317
:1024200074029C7F943039F59E012F5F3F4F4F2DF2
:102430006E2D802F0E94F6064B8169818A810E9451
:102440009B0E00934B03E0924C03F0924D03CC2083
:1024500071F020914A0360914E0370914F03302F29
:10246000A70180915003909151030E94C2112396BD
:10247000E9E00C944F30823019F4F0904D03E1CF35
:102480008630A1F1893091F18931D9F6E9516E2F69
:102490006170B62EE695F0E0EE5AFC4F1491D12C07
:1024A00060914301D61618F00E94AC0BCACFD19EA2
:1024B000C001112470E00E947B30802FB11014C045
:1024C000860F20914101622F6D0D7727771F9B01A9
:1024D000220F331F260F371F2A5D3C4F4F2D6E2DC5
:1024E0000E94F606D394DCCF861BEBCF022FA9CF38
:1024F000EAE4F3E0438121E1421B08F440E021E0FB
:10250000628181810E94E8110895EAE4F3E0438149
:1025100021E1420F08F44FEF21E0628181810E94A6
:10252000E8110895EAE4F3E0628121E1621B08F416
:1025300060E021E0438181810E94E8110895EAE48E
:10254000F3E0628121E1620F08F46FEF21E0438143
:1025500081810E94E8110895EAE4F3E0818121E09D
:10256000438162818A500E94E8110895EAE4F3E011
:10257000818121E043816281865F0E94E811089594
:1025800080914E03882319F0815080934E0320914F
:102590004A0330914B0340914C0350914D0360919D
:1025A0004E0370914F0380915003909151030E940C
:1025B000C211089580914E03833018F48F5F809389
:1025C0004E0320914A0330914B0340914C035091AC
:1025D0004D0360914E0370914F0380915003909191
:1025E00051030E94C211089590914A0390FF3AC08E
:1025F0009370811138C0946090934A038091760261
:10260000816080937602662391F020914A03309195
:102610004B0340914C0350914D0360914E037091D8
:102620004F0380915003909151030E94C211609119
:102630004A036695669570E04BE050E081E391E0D7
:102640000E945131892BB9F00E94D90681E0809314
:10265000710220E040914D0360914C0380914B0347
:102660000E94E81108958B3210F0986AC5CF880F48
:10267000880F982BC1CF0E94A611E8CF80914A0302
:1026800086958695815009F48AE261E00E94F412F1
:10269000089580914A03869586958F5F8B3208F066
:1026A00081E061E00E94F412089590914A0390FF46
:1026B00009C096959695981728F0961718F40E94D9
:1026C0004913089561E00E94F4120895EAE4F3E0EA
:1026D00085E0808311828FEF828384EB8383148271
:1026E000A4E7B2E012968C911297836012968C93B5
:1026F000758125E030E04FEF54EB60E086819781F3
:102700000E94C21108959091540292FB222720F951
:10271000281779F080FB92F990935402609153024C
:102720007091540284E090E00E94B63182E00E94F1
:102730006C0C089590E080E00E948231863E9E4FAE
:1027400019F40E940210089580E00895A4E0B0E01A
:10275000ECEAF3E10C9439304091240250912502C7
:1027600060912602709127022FB7F8948091CE02D3
:102770009091CF02A091D002B091D1022FBF841BC3
:10278000950BA60BB70B11E084369105A105B10599
:1027900070F10E94A8076E5F7F4F8F4F9F4F698334
:1027A0007A838B839C838091150190911601885DBB
:1027B0009D4F4091140150E04530510510F044E028
:1027C00050E0BE016F5F7F4F0E946B3182E090E06E
:1027D0000E94B42F182F882351F00E948E05609319
:1027E0002402709325028093260290932702812F62
:1027F0002496E3E00C945530ABE0B0E0E2E0F4E185
:102800000C943A3088E0EAE4F3E0DE01119601909E
:102810000D928A95E1F78091740290917502A091D2
:10282000760289879A87AB872B8540913D0250912C
:102830003E0260913F02709140023FB7F894809150
:10284000CE029091CF02A091D002B091D1023FBFB1
:10285000841B950BA60BB70B84369105A105B1051A
:1028600010F4222319F180911D0190911E01885DC1
:102870009D4F40911C0150E04C30510510F04BE051
:1028800050E0BE016F5F7F4F0E946B3183E090E0AC
:102890000E94B42F882369F00E948E0560933D0248
:1028A00070933E0280933F02909340021092760212
:1028B00081E02B96E2E00C945630EF92FF921F934A
:1028C000CF93DF9300D000D000D0CDB7DEB77B012F
:1028D00090E080E00E94B42F182F882309F480C074
:1028E0004091070150E04115510511F041E050E0E1
:1028F0006091080170910901685D7D4FCE010696D7
:102900000E946B314091200250912102609122027D
:10291000709123022FB7F8948091CE029091CF024C
:10292000A091D002B091D1022FBF841B950BA60BB2
:10293000B70B84369105A105B10540F489E292E018
:102940000E94F8039E81891709F44AC081E090E053
:102950000E94B42F811116C010E085E0EBE1F2E097
:10296000D70101900D928A95E1F7812F26960FB637
:10297000F894DEBF0FBECDBFDF91CF911F91FF90C6
:10298000EF90089540910F0150E04630510510F04E
:1029900045E050E06091100170911101685D7D4F3C
:1029A000CE0101960E946B3189E292E00E94F80309
:1029B0009E818913D1CF0E948E056093200270936F
:1029C0002102809322029093230285E0FE0131963A
:1029D000ABE1B2E001900D928A95E1F711E0BDCF35
:1029E00085E0E9E2F2E0DE01119601900D928A9510
:1029F000E1F71111EACFB1CFA5E1B0E0E2E0F5E1F6
:102A00000C942F308E01045F1F4F8AE0F801119261
:102A10008A95E9F784E8C82E81E0D82EF12CE12CC4
:102A2000AA24A394B12C21E9822E21E0922EF60152
:102A300081916F018F3F09F442C0F894E82FE2952D
:102A4000EF70F0E021A18F70A50102C0440F551F67
:102A50008A95E2F7CA01922F982B91A392A18095B3
:102A6000892382A3789400C0E9E8F1E0712C31E079
:102A700021912F3F09F493C0A22FA295AF70B0E02F
:102A800090968C9190E02F7002C0959587952A952D
:102A9000E2F780FD84C0832F782A330F8E169F06BD
:102AA00039F7F601319780818F3F11F00E9491072D
:102AB00050EA5A95F1F7F801EE0DFF1D70828FEF85
:102AC000E81AF80A95E0E916F10409F0B0CF4AE0F7
:102AD00050E0B80186E492E00E945E31009741F038
:102AE0002AE0F801A6E4B2E001900D922A95E1F700
:102AF0000091510210E00C591D4F892B09F451C06F
:102B000081E0809313020E949A05909312028093B1
:102B10001102D12CC090C502FE0131967F0185E0E3
:102B2000CC2009F494C011928A95E9F78091410272
:102B30008A3008F05AC04DE554E1B701C8010E943F
:102B4000380F882309F472C046EA53E1B701C8017F
:102B50000E94380F882309F469C04CEF53E1B70194
:102B6000C8010E94380F882309F460C01092410206
:102B70008091500290E045E050E0B7018C599D4FA4
:102B80000E945E3121E020931A02892B09F042C095
:102B9000C12C8C2D8D296596EDE00C944B3080E096
:102BA0007BCFD0901302DD2009F4B3CF80911102C6
:102BB000909112020E947F05059708F4AACF45E084
:102BC00050E066E472E0C8010E945E31892B59F042
:102BD00085E0E6E4F2E0D80101900D928A95E1F7F4
:102BE0001092130297CFD12CFBCF809114029091B9
:102BF00015020E947F05843F914008F09CCF809190
:102C00001A02882329F285E0F70111928A95E9F7E3
:102C100010921A02A0915002B0E0AC59BD4F85E06D
:102C2000F70101900D928A95E1F7B3CF80914102AF
:102C30008F3F31F08F5F809341028A3008F498CF44
:102C40000E949A059093150280931402D8CFF80140
:102C5000A9E2B2E001900D928A95E1F789E292E053
:102C60000E94F8038093280280902E0290902F02F9
:102C7000A0903002B090310280911602909117021C
:102C8000A0911802B091190288169906AA06BB06EF
:102C9000B1F08092160290921702A0921802B092A0
:102CA00019020E948E05861A970AA80AB90A80920C
:102CB000420290924302A0924402B09245028BE0FD
:102CC000E2E3F2E0D70101900D928A95E1F780915D
:102CD000320286958695F0903302E0903402B090EF
:102CE000350200913B0210913C0210923C021123EC
:102CF00009F44FCF10FF0BC0998190FF1CC0909139
:102D00004A03916090934A0360E00E94F41211FF1D
:102D100006C020E04B2D6E2D8F2D0E94E81112FF72
:102D200004C0002359F00E94A61113FF32CF81E0A6
:102D3000809371022ECF0E94290FE9CF0E94D906FD
:102D4000F4CF20910D0280910402282B8091030280
:102D5000882381F0282B30E080ED91E0FC01419147
:102D6000CF0141113F5FF1E0863D9F07B9F7311177
:102D7000109203022093CE0148E050E065E072E03B
:102D80008EEC91E00E945E31892BA9F088E0EEEC98
:102D9000F1E0A5E0B2E001900D928A95E1F7E091B3
:102DA000C902F091CA02309731F00280F381E02D20
:102DB0008EEC91E009950895CF9310920D02C6E034
:102DC000E0EDF1E0DF018C2F1D928A95E9F790E0AC
:102DD00080E00E94F10590E080E00E94CC05109216
:102DE00004020E94A116EFEBF2E0DF011D92CA95EA
:102DF000E9F71092B8021092B9021092BA020E943A
:102E00002706CF910895AAE2B0E0E9E0F7E10C943B
:102E1000393081EE92E02091F100DC012D93CD015B
:102E2000B2E0893E9B07B9F78091E202833009F452
:102E300072C0B8F4813009F449C0823009F4B3C0DB
:102E40008091E80083FF8BC28091E1029091E202C1
:102E50009A3008F084C2E92FF0E0EF5CFD4C0C944E
:102E6000A3308A3009F48EC08B3009F471C08930E8
:102E700039F78091E102813219F78091E502909152
:102E8000E602009711F00297D9F68091E800877F5B
:102E90008093E8008091E80082FF38C09091F300B1
:102EA0008091F200029731F48091F100813011F0AD
:102EB000863021F48091F1008093D4028091E80063
:102EC0008B778093E8000E945F04BACF8091E10283
:102ED000813A09F0B5CF8091E800877F8093E800C0
:102EE0008091E5029091E602892B61F468E085ED1E
:102EF00092E070E00E940B058091E8008B77809350
:102F0000E8009ECF60E090E080E0F3CF8091DF02A8
:102F10008111C0CF95CF8091E102813A09F090CF25
:102F20008091E5029091E602892B09F089CF80918A
:102F3000E800877F8093E8008091E80080FFFCCF65
:102F4000809148018093F1008091E8008E77B9CF9D
:102F50008091E102813209F073CF8091E502909176
:102F6000E602892B09F06CCF8091E800877F80937F
:102F7000E8000E945F048091E302809348010E9470
:102F8000DC165ECF8091E102813209F059CF809149
:102F9000E800877F8093E8000E945F048091E4024C
:102FA0008093D3024DCF8091E102813A09F048CF5E
:102FB0008091E800877F8093E8008091E80080FF9F
:102FC000FCCF8091D302BECF803899F0823809F0CF
:102FD000C6C18091E5028F70873008F0C0C1809330
:102FE000E9008091EB0085FB882780F91092E900C9
:102FF00006C08091DD029091DE0291118260909175
:10300000E800977F9093E8008093F1001092F10020
:103010008091E8008E779FC1882309F48DC18230AA
:1030200009F09DC18091E302811190C18091E50278
:103030008F702FEF280F263008F091C18093E900A0
:103040002091EB0020FF82C1933031F48091EB009E
:1030500080628093EB007AC19091EB009061909335
:10306000EB0021E030E001C0220F8A95EAF72093BF
:10307000EA001092EA008091EB008860EACF8111AB
:103080006EC11091E3021F778091E3008078812B5D
:103090008093E3008091E800877F8093E8000E949E
:1030A0005F048091E80080FFFCCF8091E30080689E
:1030B0008093E30082E0111183E08093DF024FC12F
:1030C0008058823008F04BC12091E3023091E40235
:1030D0002C3DE3E03E07A1F583E08A838AE2898301
:1030E0004FB7F894DE01139620E03EE051E2E32F63
:1030F000F0E050935700E49120FF03C0E295EF7099
:103100003F5FEF708E2F90E0EA30C0F0C7968D934E
:103110009D932F5F243159F74FBF8091E800877F3F
:103120008093E8006AE270E0CE0101960E940B05F0
:103130008091E8008B778093E80011C1C096E7CFBB
:103140008091E5029091E602432F552743305105C7
:1031500009F44AC078F54130510509F47AC08BE58D
:1031600090E0E7EDF6E04230510509F0F8C020911B
:10317000E800277F2093E8002091E7023091E802E1
:103180008217930708F49C0140E02115310509F0EE
:1031900065C0411163C08091E80082FDC9CF809174
:1031A000DF02882329F2853019F28091E80083FF3D
:1031B000F2CFBECF4132510509F43CC04232510535
:1031C00009F0CDC08330910508F0C9C0FC01EE0FB5
:1031D000FF1FE154FE4F0190F081E02D84549E4F7B
:1031E000DC018C9190E01AC0332721303105D1F0F9
:1031F0002115310561F02230310509F0B0C0E4E459
:10320000F7E0E4918E2F90E0E4E4F7E007C0E0E718
:10321000F7E0E4918E2F90E0E0E7F7E0009709F403
:103220009EC0A5CFE0E5F7E0E4918E2F90E0E0E5C9
:10323000F7E0F4CF8330910508F091C0880F991F13
:10324000FC01EB53FE4F0190F081E02D89E090E00E
:103250008ECF82E190E0E2E3F7E089CF8091DF0258
:10326000882309F465CF853009F462CF8091E800A6
:1032700083FD5ECF8091E80082FD8DCF8091E800D4
:1032800080FF83CF9091F3008091F20021153105EA
:1032900019F08830910550F041E0089709F040E0BE
:1032A0008091E8008E778093E8006FCF449140933F
:1032B000F1003196215031090196E8CF803809F0AC
:1032C0004EC08091E800877F8093E8008091E00203
:1032D0008093F1009DCE811142C01091E302123023
:1032E000F0F58091E800877F8093E8001093E0027A
:1032F0000E945F04112311F084E005C08091E30077
:1033000087FDFACF81E08093DF0242E061EC81E04B
:103310000E947E0442E261EC84E00E947E0442E26C
:1033200061EC82E00E947E0442E260EC83E00E9455
:103330007E048091DF0213C08091E302813079F432
:1033400081E0933009F080E08093DE021092E90082
:103350008091E800877F8093E8000E945F0480915D
:10336000E80083FF0AC08091E800877F8093E8002F
:103370008091EB0080628093EB00AA96E3E00C94CE
:1033800055300E94DC162FEF84E39CE021508040F2
:103390009040E1F700C0000088E19AE00FB6F89491
:1033A000A895809360000FBE90936000FFCF8823A4
:1033B00021F00E94DC090E94A1160895882339F0AB
:1033C00090910D02982B90930D020E94A1160895E2
:1033D000882309F456C0823879F40E94160681FFCA
:1033E00050C089E30E94B3050E94A11689E30E94A0
:1033F000A6050E94A1160895833859F40E94160666
:1034000080FF3FC083E50E94B3050E94A11683E5BB
:10341000EECF843859F40E94160682FF32C087E44A
:103420000E94B3050E94A11687E4E1CF9CEF980F9C
:10343000913AE8F290E2980F983050F4877091E05A
:1034400001C0990F8A95EAF7892F0E94DC09D1CF34
:103450009BE5980F933028F490E080E00E94F105FE
:10346000089598E5980F9B3128F490E080E00E9441
:10347000CC05089593E3980F933118F460E00E940F
:103480005A0A0895A8E0B0E0E8E4FAE10C943A3072
:1034900066EE7EEF90E080E00E94B63160E082E070
:1034A00090E00E94983181E080930E0261E083E019
:1034B00090E00E94983160E074E184E090E00E9426
:1034C000B63160E086E090E00E9498316FEF87E0CF
:1034D00090E00E94983140E050E0BA0188E090E02E
:1034E0000E94AA3160E084E290E00E94983160E09E
:1034F00087E190E00E94983160E08CE090E00E94CB
:10350000983160E08DE090E00E94983119821A8233
:103510001B821C821D821E821F82188648E050E09A
:1035200068E170E0CE0101960E94883140E050E0F1
:10353000BA0180E290E00E94AA3180E00E946B0F05
:103540000E94F20F40E050E0BA018FE090E00E944C
:10355000AA3140E050E0BA0183E190E00E94AA3134
:103560002896E2E00C9456308B3109F46FC040F598
:103570008B3071F078F4863009F451C020F4853036
:1035800059F180E00895873009F452C08830C9F7B6
:1035900081E00895803109F467C068F48E3089F7BE
:1035A0009091B702892F8B7F92FF84608093B7023E
:1035B00082FD56C0EDCF863159F3893149F3E1CF11
:1035C0008A3251F1B0F4873209F120F48E31C8F219
:1035D0008D5156C08932A9F60E94DC162FEF84E384
:1035E0009CE0215080409040E1F700C000000E9424
:1035F0006E05833440F48A3308F041C0853331F0DE
:10360000883331F2BECF833409F0BBCF81E00E9412
:10361000570A0E94DC16BCCF0E94421AB9CF809193
:10362000B702807F8093B70281E08093B60208954D
:103630009091B702892F8E7F90FF81608093B702AF
:1036400080FDA6CF817F8093B702A2CF9091B70271
:10365000892F8D7F91FF82608093B70281FF98CF81
:103660008091B7028160EFCF9091B702892F877F59
:1036700093FF88608093B70283FDF2CF89CF89538F
:1036800091E001C0990F8A95EAF7892FC0CFCF93B7
:10369000C82F8823C9F08238C9F40E94160681FD1C
:1036A00013C089E30E94B3050E94A1162FEF87EE95
:1036B00093E0215080409040E1F700C0000089E392
:1036C0000E94A6050E94A116CF9108958338A1F407
:1036D0000E94160680FDF8CF83E50E94B3050E9484
:1036E000A1162FEF81EE94E0215080409040E1F749
:1036F00000C0000083E5E4CF8438A1F40E941606E0
:1037000082FDE2CF87E40E94B3050E94A1162FEF4D
:1037100081EE94E0215080409040E1F700C000002D
:1037200087E4CECF8CEF8C0F813A08F0BFC0809138
:10373000B6028130F1F0882391F08230A9F1109225
:10374000B602E0EDF1E08191C81709F4E4C021E090
:10375000E63DF207C1F78C2F0E94B305B3CF8091ED
:103760000D02823271F78C2F0E94B41A8111ACCFF6
:10377000E8CF80910D028232B1F3C43171F038F498
:10378000CB3049F0C03161F080E08170EFCFC932B9
:1037900021F0C833C9F781E0F8CF1092B602F4CF18
:1037A00082E08093B602F7CFC93209F453C080F5A6
:1037B000C43109F44FC0B0F4C73009F085CF81E0BF
:1037C00080932F0184E1809330018AE0809345014A
:1037D0008EE18093440188E08093470188E28093E2
:1037E000460172CF82EE8C0F8A3008F06DCFCD513A
:1037F000C093DC01C33009F448C0C0F5C13009F4FE
:1038000041C080E391E0C230C1F11092DC015CCF95
:10381000C03509F443C0C0F48AE0CF3409F054CF76
:10382000E091DA01F091DB01309709F44DCF20816E
:10383000082E000C990B820F911D8F3F910591F17D
:103840008CF18FEF808340CFC13551F181E0C235DB
:1038500039F33ACF8091DC01882309F435CF1092F7
:10386000DC011092DB011092DA012ECFC53099F005
:1038700078F086E491E0C63041F69093DB018093C6
:10388000DA0122CF8FE291E0F8CF85E491E0F5CF25
:1038900084E491E0F2CF87E491E0EFCF86EFC0CFF0
:1038A0008FEFBECF97FFCECF10820ECF80E28C0F6E
:1038B000883068F4C77021E030E001C0220FCA955B
:1038C000EAF780910D02822B80930D02FBCEEBE58F
:1038D000EC0FE33040F4F0E0E75BFE4F808190E0D6
:1038E0000E94F105F1CEE8E5EC0FEB3150F4F0E089
:1038F000EE0FFF1FE45BFE4F808191810E94CC059B
:10390000E3CE83E38C0F833108F0DECE61E08C2FB1
:103910000E945A0AD9CE8C2F0E94A6050E94A11699
:103920001ACF1F93CF93DF93182FD0E0C0E08933D5
:1039300011F4C0E5D0E0812F0E94471B209739F495
:10394000812F0E94E819DF91CF911F9108958FE98F
:103950009FE00197F1F700C000002197EFCF0F9390
:103960001F93CF93DF93C62FD42F022FFC018581A5
:103970008823A9F0609325030E949A05909324035D
:1039800080932303C77081E001C0880FCA95EAF7CE
:103990000E94DE19DF91CF911F910F9108958091C0
:1039A0002503681332C080912303909124030E9461
:1039B0007F05883C910548F510E21D0FCD17B9F041
:1039C00080E28C0F883040F4C77081E001C0880F1E
:1039D000CA95EAF70E94D719183048F481E09D2F64
:1039E000977001C0880F9A95EAF70E94DE19802F20
:1039F0000E94911C183070F6D77081E001C0880FCA
:103A0000DA95EAF70E94D719C5CFC77081E001C0E7
:103A1000880FCA95EAF7F6CFFF920F931F93CF93C3
:103A2000DF93FC01F62ED42F122F9091D701209115
:103A3000D601992311F021E030E0C22FC1708581B9
:103A40008823F9F0CC23B1F0D1110CC0992319F0DF
:103A500081EE0E94E8198091D601882319F085EE45
:103A60000E94E8198F2D0E94471BCDB7DEB7E5E015
:103A70000C945330002319F081EE0E94471B812FD4
:103A8000F2CFCC2371F0D1110CC0992319F081EE43
:103A90000E94E8198091D601882319F085EE0E94D2
:103AA000E8198F2D0E94E819CC23D9F0D1110EC04E
:103AB0008091D701882319F081EE0E94471B8091E5
:103AC000D601882319F085EE0E94471B812F0E94A2
:103AD000E819C111CACF002341F281EE0E94E81912
:103AE000C4CF002399F381EEEFCFA8E0B0E0EBE77D
:103AF000FDE10C942C307C01DC0114968C91149720
:103B0000882309F4B5C021E04C9111965C9111977E
:103B100012966C91129713967C91139715969C911F
:103B20000E94B7108C01F7018581882309F4FAC639
:103B3000C80197578038910508F0AFC6003108F0EA
:103B400087C08FEF93E00E947431811181C059EAE0
:103B5000A52E52E0B52E011148C0FE01339686E035
:103B6000DF011D928A95E9F74AE0442E85010F5F37
:103B70001F4FC5010E94743189831A82882309F47A
:103B800067C0813009F078C06501B2E0CB0ED11C6E
:103B9000C8010E9474318A83882309F459C09FEFB9
:103BA000980F933080F5E3E0AE0EB11CC6010E9481
:103BB00074318B83882309F44BC01C828E010F5F04
:103BC0001F4FD8012C91222389F2213009F08EC099
:103BD00011969C91119712968C91913009F04EC0DC
:103BE0000E5F1F4F0E94911C4FC0A114F4E0BF064E
:103BF00079F1C5010E947431811101C001502FEF8C
:103C0000A21AB20AA8CF56018430C1F602E010E031
:103C10005601FFEFAF1ABF0AC6010E947431E1E0FE
:103C2000F0E0EC0FFD1FE00FF11F8083882381F08F
:103C30008C3741F4E2E0F0E0EC0FFD1FE00FF11FE4
:103C40001082BCCF0F5F1F4F65010730110501F7D0
:103C500080910202877061F0D70115968C918823BC
:103C600039F08091540282FF03C082E00E946C0C04
:103C70002896E0E10C9448305801A0CF923039F4F6
:103C80000E5F1F4F0E94471B0F5F1F4F9ACF93304D
:103C900029F40E5F1F4F0E94E819F6CF943019F0F7
:103CA0000F5F1F4FF1CF0E5F1F4F30E020E0B801D4
:103CB0006F5F7F4FF80141818053990B8A309105E6
:103CC00050F02150310900F38FE99FE00197F1F79F
:103CD00000C00000F6CF429EF001439EF00D11247B
:103CE0009C012E0F3F1F842F8B01E1CFE22FF0E0CC
:103CF000E354FE4F5490822F86958695869590E0EA
:103D0000FC01E355FE4F64902770712C022E02C017
:103D1000759467940A94E2F7A1E06A227724FC0183
:103D2000E356FE4F8490912C022E02C09594879406
:103D30000A94E2F7B1E08B229924FC01E357FE4F8D
:103D4000C490D12C02C0D594C7942A95E2F7E1E043
:103D5000CE22DD246114710419F081EE0E94471B0C
:103D60008114910419F086EE0E94471B852D0E9454
:103D7000911C8114910419F086EE0E94E8196114D7
:103D8000710419F081EE0E94E819C114D10409F4FC
:103D90007BCF8CE227CF81E08093D701D7011596A6
:103DA0008C91882309F46CC510922503C8019057A3
:103DB000839708F051C584E090E00E94823190938F
:103DC000540280935302F801E150F047E232F105CA
:103DD00008F038C1E55CFD4C0C94A3301092D7017B
:103DE000DDCF81E08093D601D9CF0732110509F4E8
:103DF000ADC008F4A4C00D32110509F088C500E07B
:103E00002DE230E041E067E870E087C00333110540
:103E100009F4B8C088F40033110509F4ACC008F403
:103E2000A3C00133110509F072C500E027E830E0B6
:103E300041E069E870E071C00533110509F4AEC0D6
:103E400008F4A5C00933110509F061C501E029E3B3
:103E500030E041E069E370E060C00D32F2E01F073E
:103E600009F4B9C058F5043232E0130709F4A7C0C9
:103E7000A8F40F3192E0190709F499C00332A2E0C7
:103E80001A0709F498C00538110509F040C500E08B
:103E900026E330E040E066E370E03FC00632B2E087
:103EA0001B0709F494C008F48EC00732F2E01F0724
:103EB00009F02DC501E026E230E04BC0013322E0DD
:103EC000120709F492C048F40F3282E0180709F48F
:103ED0008AC008F484C001E04FC00433A2E01A078E
:103EE00009F487C00533B2E01B0709F45CC0033353
:103EF000E2E01E0709F00BC500E024E330E045C016
:103F000000E02FE130E040E06FE270E006C000E04A
:103F100023E230E040E06EE270E0C7010E940C1D39
:103F200097CE00E024E230E041E063E270E0F5CFBC
:103F300000E025E230E041E064E370E0EECF00E035
:103F400026E230E041E065E270E0E7CF00E027E202
:103F500030E041E066E270E0E0CF01E02DE230E0E9
:103F600041E063E370E0D9CF00E020E330E041E0DE
:103F700060E370E0D2CF00E022E330E041E062E3B2
:103F800070E0CBCF00E023E330E040E0D5CF01E0AC
:103F900024E230E041E06FE170E0BFCF01E02FE2CA
:103FA00030E041E0B8CF01E02EE230E0FACF00E0AF
:103FB0002FE230E0A8CF00E02EE230E0ABCF01E00E
:103FC00023E230E0B1CF01E024E330E0B4CF01E000
:103FD00025E230E0B7CF01E027E830E013CF01E081
:103FE00023E330E0BDCF01E0C0CF01E029E830E0BD
:103FF0001FCF01E02FE130E0CDCF01E02DE230E036
:1040000041E06DE270E089CF26E241EE61EEC7014A
:104010000E94AF1C1DCE27E245EE65EEF8CF26E2EA
:1040200041EE60EEF4CF27E245EE64EEF0CF26E2FB
:1040300041EE62EEECCF27E245EE66EEE8CF28E2F5
:1040400041E0EBCF8091530281608093530295C091
:10405000809154028860809354028FC080915302F3
:104060008260F3CF809153028460EFCF809153023E
:104070008860EBCF809154028160EDCF8091540233
:104080008260E9CF809153028061DFCF809153023B
:104090008062DBCF809153028064D7CF0E94DC1610
:1040A000809153028068D1CF809153028C60CDCF34
:1040B000809154028360CFCF809153028E7FC5CF11
:1040C00080915402877FC7CF809153028D7FBDCFEF
:1040D000809153028B7FB9CF80915302877FB5CFF8
:1040E000809154028E7FB7CF809154028D7FB3CFE1
:1040F000809153028F7EA9CF809153028F7DA5CFEF
:10410000809153028F7BA1CF0E94DC1680915302D5
:104110008F779BCF80915302837F97CF80915402FA
:104120008C7F99CF8091530282FB992790F921E0EF
:10413000922790FB82F990FB83F987CF80915402FC
:10414000982F909591708E7F892B90FB81F983CF6A
:1041500090915302892F8F7B96FF806476CF0E94C7
:10416000DC1690915302892F97FB87F980586DCF09
:1041700061E08EE090E00E9498316091530270916E
:10418000540284E090E00E94B6310E94DC1660CDBB
:1041900060E0EFCF90915302892F8F7E94FF806172
:1041A00054CF90915302892F8E7F90FF81604DCF25
:1041B00090915402892F877F93FF88604CCF85E3CD
:1041C0005AC385E367C380910D028272F801E05201
:1041D000F847E531F10508F083C0E35AFD4C0C9433
:1041E000A33080914A0380FF1EC0282F2E7F20938A
:1041F0004A0330914B0340914C0350914D03609121
:104200004E0370914F0380915003909151030E948F
:10421000C2110E94D9068091760281608093760255
:104220000E94AC0B15CD816080934A0361E08695B6
:1042300086950E94F4120CCD4EE353E169E473E1DC
:104240000E94D30605CD49E453E16EE373E1F8CF54
:104250004CEA52E166EB72E1F3CF46EB52E16CEAD5
:1042600072E1EECF42E952E16FE972E1E9CF4FE945
:1042700052E162E972E1E4CF48E752E165E872E1B8
:10428000DFCF45E852E168E772E1DACF40EC52E176
:104290006AED72E1D5CF4AED52E160EC72E1D0CF28
:1042A00061E081E0C6CF65E082E00E945513D0CC8A
:1042B00068E086E0FACF6EE089E0F7CF64E18FE056
:1042C000F4CF67E185E1F1CF61E088E1B2CF62E24E
:1042D00089E1EBCF61E083E2ACCF6AE285E2E5CF32
:1042E0000737BCE71B0709F462C00837ECE71E0775
:1042F00009F461C0F701858100811181882309F4E7
:1043000099C0C8010E945810D82E682FC8010E9479
:10431000210AB8018D2D0E944A100E94BE088C010E
:10432000882ED7011596AC90159716969C9092946E
:104330003FE0932280910202877009F1CA2CAA20E3
:10434000F9F0812F807F803469F080E2800F88301F
:10435000B0F0812F807E803229F4B1E0B01778F47C
:10436000992069F08091540282FF09C082E00E9486
:104370006C0C809102028770CC24C3948111C12CF3
:10438000B12EB2942FE0B222EBE0EB1508F4B7C0E7
:10439000EB2DF0E0EE58FD4C0C94A33081E00E9430
:1043A000830C43E062E081E00E943F0C51CC81E04D
:1043B0000E945F0CF6CF82E0FBCF0330FCE71F07C3
:1043C00031F150F401153CE71307A1F001301C470F
:1043D00009F090CF0E94C1190B359CE7190741F1F4
:1043E0000C35ACE71A07D1F00A351C4709F082CF2B
:1043F00081E01BC00E94DC16EFEFF4E32CE0E150FB
:10440000F0402040E1F700C000000E946E056FEF11
:104410007FEF90E080E00E94B631DCCF80915402C3
:1044200082FB882780F991E089270E94831362CF5D
:1044300080E0FBCFC8010E94ED09D82E6ACFF12F92
:10444000FF70DF2E107F19F0D29490EFD922AA20AE
:10445000B9F0DD2069F080E2800F883010F0811023
:1044600009C080910D02D82AD0920D020E94A11697
:10447000802F43C080910402D82AD0920402F6CF44
:10448000802F0E94E819DD20D1F1005E083010F085
:10449000811004C08D2D0E94DC0906C0D09480914B
:1044A0000402D822D09204020E94A11628C0212F13
:1044B0002F70D22E107F103219F0D29480EFD822B4
:1044C000882059F031E0831609F479C0AA2009F454
:1044D00085C0992009F447C0CBCF8091540282FD5A
:1044E0003EC0AA20B1F1DD2039F080910D02D82A1A
:1044F000D0920D020E94A11680E00E94471BEB2D76
:10450000E850FF0B349710F40E941606CC20B1F04F
:104510008091020280FD12C0D70115961C928695EB
:10452000869586950E94830CC7010E94751D809117
:1045300002028695869586950E945F0C20E0F70121
:104540004081518162817381848195810E94B7107D
:104550008FCB80E00E94E819DD2089F29BCFAA2052
:10456000A1F0911004C08D2D0E94DE19C8CF81E00A
:104570009812C5CF809103029D2D9823D91609F476
:10458000BECFD82AD0920302BACF9110B8CF8D2DCA
:104590000E94D719909103028D2D892329F08D2D2A
:1045A00080958923809303028091D9019D2D9823C2
:1045B00009F4A5CFD094D822D092D901A0CFAA20B7
:1045C00029F095E0991508F49ACFCDCFA4E0A9156C
:1045D00008F495CF8D2D0E94D71991CF9920D1F352
:1045E000B9E38B1209C0EFEFF7EE23E0E150F040A2
:1045F0002040E1F700C00000802F0E94E8197FCF23
:10460000812F86958695837061F0813009F077CF90
:10461000C8019370A11002C080E090E00E94CC0518
:104620006ECFC8019370A11002C080E090E00E949C
:10463000F10565CF6A2D802F0E945A0A60CF812F25
:10464000837089F5A1105BCF402F42954695477046
:10465000440F440F802F8F70042E01C0880F0A94DE
:10466000EAF7202F207104FF07C02FE030E001C0DF
:10467000220F4A95EAF72095169516951370123079
:1046800069F050F430910E02113029F0822B83230F
:104690000E94570A34CF832B822BFACF282B80918C
:1046A0000E028227F5CF8695AA2011F0812F817006
:1046B000882309F424CF402F429546954770440F34
:1046C000440F802F8F70042E01C0880F0A94EAF7E0
:1046D000202F207104FF07C02FE030E001C0220F1F
:1046E0004A95EAF72095169516951370123069F0E1
:1046F00050F430915202113029F0822B83230E9412
:104700003A0CFDCE832B822BFACF282B80915202BC
:104710008227F5CF1F70AA2029F0812F0E94830CD9
:10472000802F22CF802F0E94D719812F0E945F0CEB
:10473000E6CE802F32EF8316B1F1381570F090EF8E
:104740008916D1F0A1EF8A1691F0AA2009F45CC075
:1047500091108ECE812F8F712AC0B3EF8B1651F13D
:10476000E4EF8E12F2CF8091540282FD2FC0812F90
:104770008F71AA20D9F21BC0AA2081F0F4E0F915AC
:1047800008F4BDCE1F7181E090E0012E01C0880FBA
:104790000A94EAF7909152028927B1CF25E02915B2
:1047A00008F4ADCEEFCF812F8F71A110BFCF0E9443
:1047B000830CA5CE80E0AA2009F4A1CF1F7181E06F
:1047C000012E01C0880F0A94EAF799CFAA2089F038
:1047D0001F71812F0E94830C8091540282FF07C0B9
:1047E00038E0139FC0011124836080930202812F5F
:1047F000DECF81E00E946C0C81E0891508F07FCE4D
:1048000082E00E946C0C7BCE992059F0893309F02C
:10481000F3CE9FEFA7EEB3E09150A040B040E1F798
:10482000E9CE812F8F7182CF811155C085EE0E9414
:10483000E81951C0811144C081EE0E94E81940C0BE
:104840000737FCE71F0709F4A9CD08372CE7120743
:1048500009F0B3CD82E0A3CD06313CE7130781F721
:1048600080910D028A7A91E009F490E09093D8014A
:104870008111A5CC89E20E94B3050E94A116E8C966
:1048800006318CE7180709F09ECC8091D801811180
:1048900098CC89E20E94A605F0CF013E110509F4EB
:1048A0007ACA053E110509F49CCA8091D7019091FE
:1048B000CE0191FDBFCF882319F081EE0E94471BE6
:1048C0008091D6019091CE0195FDAECF882319F04D
:1048D00085EE0E94471B0736110509F48ECB08F0C0
:1048E000BCCA0E32110509F438CB08F08FCA053264
:1048F000110509F41DCB08F078CA0332110509F43B
:1049000006CB08F00ECB0F31110509F4F9CAF801F6
:10491000E851FC47E730F10508F040CAE258FD4C89
:104920000C94A330013E110509F458CA053E110547
:1049300009F0BBCF1092D60131CACF93DF9380919B
:104940000102807F09F04DC080910002882309F4A4
:1049500048C0E09122035091E902C091FC01D0913E
:10496000FB016091FD017091FE0147E05E17C9F106
:104970008E2F90E0E49FF0011124E651FD4F248139
:10498000222391F1489FF001499FF00D1124DF018E
:10499000A651BD4F11962C9111972C1325C02C9127
:1049A0002D1322C015962C91159721111DC012961A
:1049B0002D913C91261B370B283C3105A8F48091A2
:1049C00001028F70806180930102E051FD4F808170
:1049D0008F70806180838BEF91E00E94751D0E9433
:1049E000E309DF91CF910895FC013196E770BECFC6
:1049F000A4E1B0E0EEEFF4E20C9430308C0186E0FC
:104A0000F801DE011F9601900D928A95E1F7F801F9
:104A10008481E5809BEFA92E91E0B92E9091FF0152
:104A2000911128C0882319F1EE20F1F0C8010E94ED
:104A30009410F82E8823C1F087E0F801D501019089
:104A40000D928A95E1F78091FF01813031F48091D8
:104A5000FB019091FC010E9487100E949D248F2DE4
:104A60006496ECE00C944C30C8010E94751DFF2444
:104A7000F394F5CFD080C18082809380F0900002C3
:104A80002091FD013091FE01A401421B530BFF2038
:104A900009F4D9C0483C510508F092C08823F9F2C6
:104AA0009091FC0180910102282F207F09F056C0CF
:104AB000C91214C09091FB01D91210C0E11048C076
:104AC0008F708061809301028BEF91E00E94751DD1
:104AD00080910102F8018683F12CC1CFE11038C02A
:104AE0006C2D8D2D0E94D9036C2D8D2D0E94D90324
:104AF000E82E8111F1CFDF86C88A8F8598890E94C0
:104B00008710292F22952F70243058F49F7022305F
:104B100088F0992399F0F8019681907F79F4FE2C22
:104B20009ECF2A5F2F70223068F0C8010E94751D49
:104B3000EF2CF5CF992311F0882389F3805E88301C
:104B400070F3F3CF803F58F3815F833070F7E7CF86
:104B500080910102816080930102BECFC91207C01B
:104B60009091FB01D91203C0EE2009F48DC0C80159
:104B70000E949410882309F477CFEE2009F474CFB3
:104B800080910102803288F02091FB013091FC017C
:104B9000398728879B868A869091FF019C871D868E
:104BA0008E87CE0108960E94751D87E0F801ABEF55
:104BB000B1E001900D928A95E1F70E949D2457CFB4
:104BC00090910102292F207F51F48BEF91E00E94F8
:104BD000751D87E0F50111928A95E9F77DCF88234D
:104BE00009F43DCF8091FC018C1110C08091FB0134
:104BF000D8120CC0E1100AC09683C8010E94751D2E
:104C000087E0F50111928A95E9F729CFC8010E9442
:104C10009410882309F428CFEE2009F425CF809141
:104C20000102803210F22091FB013091FC013A83A5
:104C300029839C828B829091FF019D831E828F83AA
:104C4000CE010196B0CF483C5105D0F6882309F437
:104C50000ECFFE2CEE2009F407CF8091FC018C11C1
:104C600020C08091FB01D8121CC08091010280FD00
:104C70000FC0982F907F61F08683903F31F0982F7E
:104C8000907F905F8F70892B8683C8010E94751D6D
:104C900087E0F801ABEFB1E001900D928A95E1F762
:104CA000DECEC8010E94941081117FCF8091010255
:104CB000816080930102C8010E94751DD0CEABE1D6
:104CC000B0E0E5E6F6E20C9438304E8B5F8B688FEF
:104CD000798F8A8F9B8F192F9111109204021D8A50
:104CE00086E0FE017696DE011F9601900D928A9570
:104CF000E1F70A8D002341F021E04F855889698949
:104D00007A89C8010E94B7100B8B1C8B87E0FE01CB
:104D10003F96DE01189601900D928A95E1F7CE013B
:104D200008960E94F82481110CC087E0FE01389695
:104D3000DE01119601900D928A95E1F78C85811123
:104D40000BC017E0809122039091E902891331C0D2
:104D50006B96E4E00C9454302091E90230E0C901F4
:104D6000019687709927409122034817190699F0F8
:104D700097E0929FD001939FB00D1124A651BD4F93
:104D8000FE01319601900D929A95E1F78093E90228
:104D90000E94E309D6CF0E94DC161092E90210921D
:104DA000220387E0EBEFF1E0DF011D928A95E9F73E
:104DB000C8CF819FC001112486519D4F0E94F824C5
:104DC000882331F28091220390E001968770992721
:104DD00080932203B7CFA6E0B0E0E1EFF6E20C94B7
:104DE00038300E949A058C0180910F029091100238
:104DF0008017910781F019821A820E949A05682F04
:104E000049815A81792F80E090E00E945F261093BB
:104E1000100200930F022696E4E00C9454301F9287
:104E20000F920FB60F9211242F933F934F935F93DE
:104E30006F937F938F939F93AF93BF93CF93DF93A2
:104E4000EF93FF93D091E900DF708091EC00C82FC1
:104E5000C17080FDC0E81092E9008091F000877F6A
:104E60008093F00078940E9403171092E9008091DB
:104E7000F00088608093F000CD2BCF70C093E900E4
:104E8000FF91EF91DF91CF91BF91AF919F918F9162
:104E90007F916F915F914F913F912F910F900FBE36
:104EA0000F901F9018951F920F920FB60F9211241A
:104EB0002F933F934F935F936F937F938F939F9322
:104EC000AF93BF93EF93FF938091E10082FF09C0FE
:104ED0008091E20082FF05C08091E1008B7F80938A
:104EE000E1008091DA0080FF24C08091D80080FF2B
:104EF00020C08091DA008E7F8093DA008091D90003
:104F000080FF9DC080E189BD82E189BD09B400FEBA
:104F1000FDCF81E08093DF028091D202811109C030
:104F20000E940F040E94B0048091E200846080938C
:104F3000E2008091E10080FF17C08091E20080FFD5
:104F400013C08091E2008E7F8093E2008091E200A6
:104F500080618093E2008091D80080628093D800C5
:104F600019BC85E08093DF028091E10084FF2BC0B3
:104F70008091E20084FF27C080E189BD82E189BD84
:104F800089B5982F917080FFFBCF8091D8008F7DDD
:104F90008093D8008091E1008F7E8093E100809122
:104FA000E2008F7E8093E2008091E2008160809336
:104FB000E2008091E002882309F447C084E08093F6
:104FC000DF028091DF028091E10083FF27C08091A2
:104FD000E20083FF23C08091E100877F8093E1009E
:104FE00082E08093DF021092E0028091E1008E7FE8
:104FF0008093E1008091E2008E7F8093E2008091B7
:10500000E20080618093E20042E060E080E00E9484
:105010007E048091F00088608093F000FF91EF9112
:10502000BF91AF919F918F917F916F915F914F91C0
:105030003F912F910F900FBE0F901F90189519BCA4
:105040001092DF021092D20274CF8091E30087FDAC
:1050500093E09093DF02B5CF78941F921FB61F9212
:1050600011248F939F93AF93BF938091CE02909121
:10507000CF02A091D002B091D1020196A11DB11D25
:105080008093CE029093CF02A093D002B093D1022E
:10509000BF91AF919F918F911F901FBE1F90189548
:1050A0001F921FB61F9211248F939F93AF93BF93AC
:1050B0008091CD02811113C08091CE029091CF02D8
:1050C000A091D002B091D1024196A11DB11D809353
:1050D000CE029093CF02A093D002B093D102BF91A1
:1050E000AF919F918F911F901FBE1F901895CDB7C4
:1050F000DEB7A6970FB6F894DEBF0FBECDBF85B75B
:10510000806885BF85B7806885BF84B7877F84BF87
:105110000FB6F894A8958091600088618093600034
:10512000109260000FBE80E890E00FB6F894809374
:105130006100909361000FBE8FE897E09093CD01DE
:105140008093CC010E940F040E94B0048091E20081
:1051500084608093E20078948091DF028823A1F03C
:105160001091E9001F709091EC00892F817090FDE3
:1051700080E8182B1092E9008091E80083FD0E94DE
:1051800003171F701093E90082E084BD93E095BD82
:105190009AEF97BD80936E001092420210924302E4
:1051A00010924402109245020E940210811102C026
:1051B0000E94F20F8091D80080618093D8002AE18C
:1051C0002A95F1F700C08091D900182F117080FD49
:1051D00004C00E940F041092DF021093C5022698AB
:1051E0002E988FE891E00197F1F700C0000093B18D
:1051F000292F207496FB882780F98093C60280931C
:105200002401222309F46FC010923F0186E08093AD
:1052100040018091C50281110E94C82E8091240115
:105220008091240195E0811190E09093510285E0F6
:10523000891B8093500204E811E099E8E92E91E07F
:10524000F92ED8018D918D018F3F11F00E949107A9
:10525000E016F106B1F709E811E0F80181918F013C
:105260008F3F11F00E949107F1E001391F07A9F764
:105270008AE0E4E6F2E0DF01282F1D922A95E9F7A3
:10528000E6E4F2E0DF011D928A95E9F70E949A13A5
:10529000811102C00E94421A82E090E00E947431A3
:1052A0008093B70284E090E00E9482319093540290
:1052B000809353020E94FC14BFEFE6E7F1E0B15087
:1052C000E040F040E1F700C000000E94FC14809133
:1052D000640280FF0CC06FEF7FEF90E080E00E94DF
:1052E000B6310E946E0586E080933F0190CF83E047
:1052F00090E00E9474310E94570A809152020E94ED
:10530000150C80915502811179C00E949A13811168
:1053100004C00E94421A0E94661388E090E00E9436
:105320007C314B015C0184E290E00E947431282FB3
:1053300030E040E050E060E070E080E090E000E2CB
:105340000E94BF30282939294A295B2920934A0322
:1053500030934B0340934C0350934D0360934E03A3
:1053600070934F0380935003909351038091760282
:105370008360809376022C7F89F50E94661388E013
:1053800090E00E947C316B017C0184E290E00E94FD
:105390007431282F30E040E050E060E070E080E0C1
:1053A00090E00E94BF30B22FA32FF42FE52F5B01B6
:1053B00097018601BC29A12BFE29E32BB0934A0358
:1053C000A0934B03F0934C03E0934D0360934E0383
:1053D000B0924F0380935003909351030E94E006D4
:1053E0000E94D90680914A0380FF05C060E086953F
:1053F00086950E94F41281E0809355028091C50247
:10540000811102C00E94CB2E85E291E09093CA02E6
:105410008093C90218E1E12EF12C00E4B02E8EE653
:10542000C82E82E0D82E8091DF0200E112E18530A3
:1054300009F480C00E94FC14A6E58A2EA2E09A2EF0
:10544000B4E66B2EB2E07B2ED301F40191918D91E5
:1054500022E0E036F20709F477C09817B9F33090EC
:10546000C50210E022242394D3010D913D01F401E3
:1054700041904F01401629F14026A12C5524539408
:10548000842D8521B1F03320A1F0A9A21AA30E9496
:105490009A059CA38BA32DA291E0802F852109F46E
:1054A00090E09EA349A15AA16BA17CA18DA10E946D
:1054B0005F26A394550CF8E0AF12E2CFF4013197C8
:1054C00000831F5F1A3081F60E94A80741C08091B7
:1054D000DF02843009F11092CD020FB6F894A8953E
:1054E000E09260000FBEB092600083B7817F84605D
:1054F00083BF83B7816083BF7894889583B78E7F9D
:1055000083BF0FB6F894A89580916000886180935E
:105510006000109260000FBE8091DE02882351F07F
:105520000E94FC14E4E6F2E081918111AEC3CE1634
:10553000DF06D1F78091DF02853009F4C8CF0E94E1
:10554000DC160E94160676CF981389CF0E94EB26B0
:1055500080917502882309F465C080917402E091FE
:105560004A03E695E695E81BE0937002823009F065
:105570002CC1F0E0E25BFD4FE4910E2F10E0F5E16D
:105580006F2EFFE07F2E80917102882361F01092D0
:1055900071020E94C20790936F0280936E02109274
:1055A0007302109272020E94C207E0916E02F091A3
:1055B0006F029C012E1B3F0B2F3F3F4798F5209118
:1055C00062022223B1F010926202209160023091B7
:1055D0006102821B930B8F3F9F4758F4205D3A482E
:1055E00030936102209360028091760288608093FC
:1055F00076028090720290907302E00FF11FF09398
:105600006F02E0936E028EE692E0F30109958091BD
:10561000720290917302892B29F4892819F081E094
:105620008093620286E0EFEBF2E0DE0111960190DA
:105630000D928A95E1F78090C0020091C102A0907E
:10564000C2029090C3021091C4021092C102109243
:10565000C2021092C3021092C402802F8A2991F0D4
:105660008091BD029091BE020E947F05AC01909195
:10567000B802992309F415C18091300184171506E9
:1056800008F41DC1812F892909F445C08091BB020E
:105690009091BC020E947F059C019091B9029923D0
:1056A00009F417C321353105B0F19F3F19F09F5F11
:1056B0009093B902992059F00E944E069FEF191459
:1056C0000CF491E0899F802D11248093C302112353
:1056D00059F00E944E0691E011160CF09FEF899F41
:1056E000802D11248093C4028091C302882399F0F5
:1056F0009090C402992079F00E94C506882309F48D
:1057000016C18093C302892D0E94C506882309F41F
:1057100010C18093C4028091C002881217C080918A
:10572000C102882311F0801311C02091C2022223EC
:1057300011F02A110BC09091C402992311F0191392
:1057400005C03091C302332309F4B5C20E94270675
:1057500086E0FE013196AFEBB2E001900D928A95A2
:10576000E1F70E94160690916302891721F0809359
:1057700063020E948E058091DF02843009F053CECF
:1057800083E08093E9008091E80082FF4CCE809115
:10579000E80090E085FF06C00E942E04882309F4EB
:1057A000CAC091E08091E8008B778093E80099234C
:1057B00009F439CE8981EFEFE80FE33108F0E2C058
:1057C000F0E0EB57FD4C0C94A330863059F4F0E038
:1057D000E55BFD4FE4910E2F10E0E5E06E2EEFE06B
:1057E0007E2ED1CE893061F4E695F0E0E85BFD4F86
:1057F000E4910E2F10E07EE5672E7EE0772EC3CE7B
:105800008F3061F4E695F0E0EB5BFD4FE4910E2FF5
:1058100010E063ED662E6DE0762EB5CE853159F43D
:10582000F0E0EE5BFD4FE4910E2F10E05EE4652E9C
:105830005DE0752EA8CE08E210E02CEC622E2CE084
:10584000722E883109F49FCE833249F4E0E4F2E00D
:105850000591149144EB642E4EE0742E94CE04EF27
:1058600011E09FE8692E9CE0792E843209F48BCEFA
:10587000853281F48E2F63E00E946130E92FF0E0E1
:10588000E35CFD4FE4910E2F10E03CED632E30E120
:10589000732E79CE00ED17E089E6682E85E0782E2C
:1058A00072CE20912F01FAE02F9F9001112424172E
:1058B000350708F0E7CE9F5F9093B80202C09F3F84
:1058C000D1F7002359F00E9487069FEF10160CF4C1
:1058D00091E0899F802D11248093C102AA2059F064
:1058E0000E94870691E01A140CF09FEF899F802D8B
:1058F00011248093C2028091C102882309F4C2CE90
:105900007090C202772009F4BDCE0E94C50688239C
:1059100051F08093C102872D0E94C506882329F08B
:105920008093C202AFCE81E0F4CF81E0F9CF81E075
:10593000E8CE81E0EECE00E210E0CE0101964C010F
:105940008091E80085FD0AC08091E8008B77809304
:10595000E8000E942E04882399F323CF8091F10060
:10596000D4018D934D010150110951F71ACF1A82BC
:105970008CE08B831BC08A81823009F4A1C128F49A
:10598000813061F08FEF898311C08330C1F08430A2
:10599000C9F71B821C821D821E8208C00E948E05D0
:1059A0000E94A9306B837C838D839E8340E250E00C
:1059B000BE016F5F7F4F82E00E944F0B34CD2B8181
:1059C000822F90E0FE013496245E8A30910570F7B4
:1059D000DC01AC59BD4F3C91319301962813F5CFB2
:1059E000E5CF8A81823049F0853061F680914A03A3
:1059F00080FF0EC00E94290FD9CF6B817C818D81E1
:105A00009E810E94A93088E290E00E949831CECF1A
:105A1000816080934A0360E0869586950E94F41227
:105A2000C5CF4C816B818A810E941B1098278927E2
:105A300098279E838D83BACF2D813E8132272327DD
:105A400032274C816B818A810E94940FAFCF0E94D4
:105A5000BA0FACCF9A81923009F094CF8830E1F13F
:105A6000893009F465C08B81823009F1A8F4813056
:105A700009F09CCF8C81B4EB8B9FC00111246FEF98
:105A800070E00E947B30462F20E060914C038091B3
:105A90004B030E94E8118ACF8330D1F0843009F0A3
:105AA00085CF20E040914D036D818C81F2CF8C81B8
:105AB000882309F49FCF80914A03816080934A0331
:105AC00060E0869586950E94F41260E08C81A6CFF6
:105AD0008C8180934E036ACF8B818230E1F078F421
