:100000000C94B7030C94D4030C94D4030C94B62A28
:100010000C94D4030C94D4030C94D4030C94D40304
:100020000C94D4030C94D4030C94AF320C9483330B
:100030000C94D92C0C94D4030C94D4030C94D403B6
:100040000C94D4030C94D4030C94D4030C94D403D4
:100050000C94D4030C947C2D0C94D4030C94D403F2
:100060000C94D4030C94D4030C94D4030C94D403B4
:100070000C94D4030C94D4030C94D4030C94D403A4
:100080000C94D4030C94D4030C94D4030C94D40394
:100090000C94D4030C94D4030C94D4030C94D40384
:1000A0000C94D4030C94D4030C94D40329001E00A4
:1000B0001F00200021002200000000002B0014007F
:1000C0001A0008001500170000000000E0000400FE
:1000D0001600070009000A0000000000E1001D00F2
:1000E0001B00060019000500000000000000E200EF
:1000F000E3002C002C00000000000000230024007E
:100100002500260027002D002E0031001C001800BD
:100110000C00120013002F00300035000B000D0002
:100120000E000F003300340028002A0011001000D8
:10013000360037003800E500015100002C002C008B
:100140000000E700E60000000000000002533A0053
:100150003B003C003D003E000000000001000100AB
:100160000100010001000100000000000100010089
:100170000100010001000100000000000100010079
:10018000010001000100010000000000000001006A
:100190000100010001000000000000003F004000DD
:1001A00041004200430044004500490001000100B5
:1001B000460047004800520001004C0001000100C9
:1001C0004A004B0050004F0001002A0001000100CE
:1001D0004D004E005100010001000000010001002F
:1001E0000000780001000000000000000253000041
:1001F00000000000000000000000000000000000FF
:1002000000000000000000000000000000000000EE
:1002100000000000000000000000000000000000DE
:1002200000000000000000000000000000000000CE
:1002300000000000000000000000000000000000BE
:1002400000000000000000000000000000000000AE
:1002500000000000000000000000005CC25CC35C05
:10026000000000000000000000000000CA5CC95C43
:10027000C65CC55CC85CC75C0000000000000000F4
:1002800000007800000000000000000000000000F6
:10029000000000000000000000000000000000005E
:1002A000000000000000000000000000000000004E
:1002B000000000000000000000000000000000003E
:1002C000000000000000000000000000000000002E
:1002D000000000000000000000000000000000001E
:1002E000000000000000000000000000000000000E
:1002F00000000000000000000000005C00000000A2
:1003000000000000000000000000000000000000ED
:1003100000000000000000000000000000000000DD
:1003200000000000000000000000000000000000CD
:10033000000000002A2B2800000000000000000040
:100340000000000000000029000000002C1E3420E6
:10035000212224342627252E362D3738271E1F200C
:100360002122232425263333362E37381F04050651
:100370000708090A0B0C0D0E0F1011121314151695
:100380001718191A1B1C1D2F3130232D3504050693
:100390000708090A0B0C0D0E0F1011121314151675
:1003A0001718191A1B1C1D2F3130354C0000000086
:1003B000000000000000000000000000000000003D
:1003C000000000000000000000000000000000002D
:1003D0007E0F00D4FFFFFFC70000007800047F3FBE
:1003E0001F643214643214783C1E1E140A05222342
:1003F000252628292A2C2D2F3032333536383A3B02
:100400003D3E4042434547494A4C4E505153555753
:10041000595A5C5E6062646668696B6D6F71737572
:1004200077797B7D7F81838587898A8C8E90929472
:1004300096989A9C9E9FA1A3A5A7A8AAACAEAFB17F
:10044000B3B4B6B8B9BBBCBEBFC1C2C3C5C6C7C9C9
:10045000CACBCCCDCED0D1D2D2D3D4D5D6D7D7D883
:10046000D9D9DADADBDBDBDCDCDCDCDCDDDDDDDDD5
:10047000DCDCDCDCDCDBDBDBDADAD9D9D8D7D7D6DD
:10048000D5D4D3D2D2D1D0CECDCCCBCAC9C7C6C594
:10049000C3C2C1BFBEBCBBB9B8B6B4B3B1AFAEACDA
:1004A000AAA8A7A5A3A19F9E9C9A98969492908E85
:1004B0008C8A89878583817F7D7B79777573716F5E
:1004C0006D6B6968666462605E5C5A59575553513A
:1004D000504E4C4A4947454342403E3D3B3A3836F0
:1004E000353332302F2D2C2A292826252322FFAA06
:1004F0007F554000010101010101010101020202D9
:1005000002020202020203030303030303030404BF
:100510000404040404050505050506060606060789
:100520000707070708080808090909090A0A0A0B42
:100530000B0B0C0C0C0D0D0D0E0E0E0F0F0F1010E3
:10054000111111121213131414151516161717186A
:100550001819191A1A1B1B1C1D1D1E1E1F202021D5
:100560002222232424252626272829292A2B2C2D1C
:100570002D2E2F30313232333435363738393A3B3D
:100580003C3D3E3F404142434445464748494A4C32
:100590004D4E4F50515354555658595A5B5D5E5FFE
:1005A000616264656668696B6C6D6F707273757794
:1005B000787A7B7D7E8082838587888A8C8E8F91F6
:1005C000939596989A9C9EA0A2A3A5A7A9ABADAF20
:1005D000B1B3B5B7BABCBEC0C2C4C6C9CBCDCFD10A
:1005E000D4D6D8DBDDDFE2E4E7E9EBEEF0F3F5F8B3
:1005F000FAFDFF0A03370073006B00620000001E63
:1006000003530061006C006900630079006C0069AD
:100610000063005F004100630069006400000004A3
:1006200003090409025B00030100A0C809040000DB
:100630000103010100092111010001224000070509
:1006400081030800010904010002030000000921E0
:100650001101000122220007058203200001070585
:100660000303200001090402000103000000092126
:1006700011010001227B0007058403200001120103
:10068000000200000008D8045FEB0700010200012F
:100690000660FF0961A1010962150026FF0095208F
:1006A000750881020963150026FF009520750891E1
:1006B00002C005010902A10185020901A100050985
:1006C0001901290815002501950875018102050108
:1006D000093009311581257F950275088106093891
:1006E0001581257F950175088106050C0A380215CC
:1006F00081257F950175088106C0C005010980A18B
:1007000001850319012AB700150126B70095017567
:10071000108100C0050C0901A101850419012AA05E
:1007200002150126A002950175108100C00501097E
:1007300006A101050719E029E715002501950875AF
:100740000181029501750881010507190029FF152E
:100750000026FF0095067508810005081901290586
:10076000950575019102950175039101C000112451
:100770001FBECFEFDAE0DEBFCDBF11E0A0E0B1E0F9
:10078000E6E5FDE602C005900D92A03FB107D9F75E
:1007900023E0A0EFB1E001C01D92A533B207E1F75D
:1007A0000E9457180C9480360C940000FF920F930F
:1007B0001F93CF93DF93FC01F62ED42F122F90912D
:1007C000F3012091F201992311F021E030E0C22FD2
:1007D000C17082818823F9F0CC23B1F0D1110CC013
:1007E000992319F081EE0E9489088091F2018823F3
:1007F00019F085EE0E9489088F2D0E94F307CDB76E
:10080000DEB7E5E00C94FB35002319F081EE0E9481
:10081000F307812FF2CFCC2371F0D1110CC09923B3
:1008200019F081EE0E9489088091F201882319F065
:1008300085EE0E9489088F2D0E948908CC23D9F06B
:10084000D1110EC08091F301882319F081EE0E942E
:10085000F3078091F201882319F085EE0E94F307D7
:10086000812F0E948908C111CACF002341F281EE75
:100870000E948908C4CF002399F381EEEFCFEF9255
:10088000FF920F931F93CF93DF93EC017B01813E87
:100890009105C1F1853E910509F444C0E091000144
:1008A000F09101019081192F10728091F30191FD57
:1008B0003CC1882319F081EE0E94F3078091F20178
:1008C00011112DC1882319F085EE0E94F307C93359
:1008D000D10509F4F3C008F064C0CD32D10509F4A4
:1008E000CAC0D0F5C432D10509F4B0C030F5CF315B
:1008F000D10509F4A4C0A39799F400E023E230E005
:1009000040E0D9C0FB018281882341F091E09093BF
:10091000F301CDB7DEB7E6E00C94FA351092F3019F
:1009200081E0F7CFFB018281882321F091E0909351
:10093000F201EFCF1092F201F3CFC632D10509F4E4
:1009400093C008F48AC0A79759F700E027E230E087
:1009500041E066E270E0B8C0C133D10509F499C046
:1009600088F4CF32D10509F48DC001E02DE230E0EA
:10097000E09708F4C6C000E022E330E041E062E323
:1009800070E0A2C0C433D10509F48AC0C533D105D3
:1009900009F48DC0E39721F600E023E330E040E066
:1009A00060C0CD32F2E0DF0709F4A7C010F5C43211
:1009B000E2E0DE0709F495C068F4CF3182E0D807A1
:1009C00009F48BC0C332D24009F0AACF00E02EE276
:1009D00030E096CFC632F2E0DF0709F48AC008F4AF
:1009E00084C0C732D24009F09BCF01E026E230E05C
:1009F000AFCFC133F2E0DF0709F489C070F4CF3222
:100A0000E2E0DE0709F481C001E023E330E0C03317
:100A1000D24008F476C001E0AFCFC43382E0D807FB
:100A200009F479C0C533E2E0DE0709F452C0C333EC
:100A3000D24009F075CF00E024E330E0B0CF00E011
:100A40002FE130E040E06FE270E03EC000E024E2E1
:100A500030E041E063E270E037C000E025E230E0E2
:100A600041E064E370E030C000E026E230E041E0C5
:100A700065E270E029C000E02DE230E041E067E887
:100A800070E022C000E020E330E041E060E370E08D
:100A90001BC000E027E830E041E069E870E014C0E6
:100AA00001E024E230E041E06FE170E00DC001E0E0
:100AB0002FE230E041E06EE270E006C001E029E3A1
:100AC00030E041E069E370E0C7010E94D60380E0B6
:100AD00020CF01E02EE230E0EDCF00E02FE230E069
:100AE000B1CF01E023E230E0B4CF01E024E330E015
:100AF000B7CF01E025E230E0BACF01E027E830E0EF
:100B0000BDCF41E063E370E0DFCF01E0BCCF01E0A7
:100B100029E830E0C1CF01E02FE130E0C4CF8111FE
:100B2000D6CE85EE0E948908D2CE8111C7CE81EE45
:100B30000E948908C3CECF93C82F0E94800720E06F
:100B4000823091F08330A1F040E060E0813071F4B8
:100B50004FEF6FEF8AEA0E940F1E6BE081E00E9468
:100B6000851B8C2FCF9108954FEF6FEF80E0F3CF6F
:100B70004FEF6FEF8FEBEFCF81E008950E943F04BE
:100B8000089508950E94C1050895A5E0B0E0EBEC3A
:100B9000F5E00C94E13549835A833091F501898160
:100BA0009A81311119C0662399F0222389F00E949D
:100BB0007A0C182F682F89819A810E94570C6981BD
:100BC0007A81812F0E947F282596E3E00C94FD35E1
:100BD0000E94680C182FF3CF0E947A0C69817A81E9
:100BE000F1CFFC01262F4081518162817381848184
:100BF0000E94C505089581E00895CF93DF93EC012D
:100C000060E00E94F105BE010E94C205DF91CF9114
:100C10000895E1E0F0E0DF0102C0AA0FBB1F6A9572
:100C2000E2F7BD01DF0102C0AA0FBB1F4A95E2F740
:100C30006A2B01C0EE0F2A95EAF7962F9823961398
:100C400002C08E2B0895E0958E230895242F462F01
:100C5000682F809114020E9409060E94B70B089524
:100C60000E94541408950E945814089508950E94F3
:100C7000570B0E9436062FEF84E39CE02150804002
:100C80009040E1F700C0000008950E9437060E94DE
:100C9000A02D08950E9437060E94B12D08950F934C
:100CA0001F93CF93DF938C0161E00E94F105EC016B
:100CB000B8010E94C523811106C080E0DF91CF9169
:100CC0001F910F910895B801CE010E94BE0588239F
:100CD000A1F3B801CE010E94C429882371F3B801A1
:100CE000CE010E942925882341F3B801CE010E943C
:100CF0003629882311F3B801CE010E946C22882383
:100D0000E1F2F8018281882361F0CA35FDE5DF0751
:100D100001F158F4C115ECE5DE0791F0CE3DDC455C
:100D200091F0C8010E94BC05C9CFCC358DE5D8072C
:100D300069F090F0C73ADD45A1F70E944A06BDCFA1
:100D40000E944506BACF0E943311F7CF0E946D1062
:100D5000E8CF0E947710E5CF0E947B10E2CF0E947F
:100D6000B62C0E94A40708950E94A8070E94BB2CDD
:100D70000895B0E0A0E0EFEBF6E00C94DD35E82F4D
:100D8000F0E0E45DFC4FD490282F2695269526951B
:100D900030E0F901E453FC4F0491877010E0082E15
:100DA00002C0159507950A94E2F701701127F90121
:100DB000E454FC4FE490F12C082E02C0F594E79423
:100DC0000A94E2F791E0E922FF24F901E455FC4F8F
:100DD000C491D0E002C0D595C7958A95E2F7C1705D
:100DE000DD270115110519F081EE0E94F307E114CA
:100DF000F10419F086EE0E94F3078D2D0E94FA0887
:100E0000E114F10419F086EE0E948908011511051C
:100E100019F081EE0E948908CD2B19F08CE20E9416
:100E2000FA08CDB7DEB7E7E00C94F935EF92FF9200
:100E30000F931F93CF93DF93EC01162F0AE0888165
:100E4000882309F454C0813009F04EC08981813073
:100E500099F47E0122E0E20EF11C8A810E94FA08D8
:100E6000E7012196812F815050F3EFE9FFE03197A0
:100E7000F1F700C00000F7CF823041F47E0182E03C
:100E8000E80EF11C8A810E94F307EACF833041F417
:100E90007E01E2E0EE0EF11C8A810E948908E0CF1B
:100EA000843011F02196DDCF2A81229690E080E0F7
:100EB000AE014F5F5F4F2053330B2A30310548F0AE
:100EC000019778F2EFE9FFE03197F1F700C00000F9
:100ED000F7CF089FB001099F700D1124C901860F3B
:100EE000971F2981EA01E4CF0E94B906BACFCDB796
:100EF000DEB7E6E00C94FA3560E00E94160708952C
:100F0000982F92959F7011F0892F94E0282F2695A5
:100F1000269511F09E5F822F869509F09F5F892F9D
:100F2000089508950E949107089581E008950E9410
:100F3000950708950895CF93C82F0E9492078C2F8C
:100F40000E949707CF91089580E00E949B07089523
:100F50000E94DC2B0E949B0708950E94DC2B90913D
:100F6000F401981721F08093F4010E949B070895E3
:100F7000ABE0B0E0EEEBF7E00C94E2354F8358873E
:100F800069877A878B8761110E94B80F1E821D8244
:100F900085E0FE013796DE01119601900D928A954B
:100FA000E1F78C819D81892B61F449815A816B81A4
:100FB0007C818D819E810E94E10E2B96E2E00C9453
:100FC000FE3589819A8189238F3F79F3CE0101967D
:100FD0000E94FB058111E9CFF0CFFC018081918156
:100FE0000E94A70C0895CF93C82F8823C9F0823898
:100FF000C9F40E94DC2B81FD13C089E30E94700FAD
:101000000E94D90F2FEF81EE94E021508040904054
:10101000E1F700C0000089E30E94780F0E94D90F19
:10102000CF9108958338A1F40E94DC2B80FDF8CF86
:1010300083E50E94700F0E94D90F2FEF81EE94E09C
:10104000215080409040E1F700C0000083E5E4CFEC
:101050008438A1F40E94DC2B82FDE2CF87E40E9459
:10106000700F0E94D90F2FEF81EE94E02150804045
:101070009040E1F700C0000087E4CECF8CEF8C0FEA
:10108000813AB8F48C2F0E94F3268111C9CF6C2FBE
:1010900080910001909101010E94472C882329F042
:1010A0008C2F0E94780F0E94D90F8C2F0E94700FF6
:1010B000B5CF80E28C0F883048F4C77081E001C062
:1010C000880FCA95EAF70E949B0FA8CFEBE5EC0FBB
:1010D000E33040F4F0E0E758FE4F808190E00E945A
:1010E000092C9ECFE8E5EC0FE73150F4F0E0EE0F6D
:1010F000FF1FE55BFE4F808191810E941F2C90CFE6
:10110000C03F08F48DCF8C2F0E94DB180E94AE19CF
:1011100087CF882309F455C0823879F40E94DC2BEC
:1011200081FF4FC089E30E94700F0E94D90F89E3AD
:101130000E94780F0E94D90F0895833859F40E94B5
:10114000DC2B80FF3EC083E50E94700F0E94D90F08
:1011500083E5EECF843859F40E94DC2B82FF31C046
:1011600087E40E94700F0E94D90F87E4E1CF9CEFC3
:10117000980F913AE8F290E2980F983050F4877007
:1011800091E001C0990F8A95EAF7892F0E94A10F7B
:10119000D1CF9BE5980F933028F490E080E00E9437
:1011A000092C089598E5980F973128F490E080E095
:1011B0000E941F2C0895803F20F00E9435190E9444
:1011C000AE1908951F93CF93DF93182FEB010E9460
:1011D000F307209739F4812F0E948908DF91CF917E
:1011E0001F9108958FE99FE00197F1F700C000007B
:1011F0002197EFCF70E060E0893311F460E570E093
:101200000E94E2080895882321F00E949B0F0E940B
:10121000D90F0895882321F00E94A10F0E94D90FB1
:101220000895B0E0A0E0E7E1F9E00C94DB356C0153
:10123000D62FC72FFC011281F580F2949FE0F9228E
:101240000E94910FE82E8823B9F0E12E1123A1F01E
:101250008C2F807F803421F080E28D0F8830D0F099
:101260008091E40282FF16C082E00E943C100E943E
:10127000910F91E0E82EE926BC2EB2948FE0B822BF
:10128000FBE0FB1508F468C0EB2DF0E0EE57F94CDD
:101290000C949435E12CF0CF0C2F0F70C07F11F01F
:1012A0000295007F112399F0002359F080E28D0F01
:1012B000883010F0D11107C0802F0E949B0F0E9430
:1012C000D90F8D2F41C0802F0E94AB0FF8CF8D2FEB
:1012D0000E948908002309F43FC080E28D0F883006
:1012E00010F0D11104C0802F0E94A10F03C0802FE5
:1012F0000E94B10F0E94D90F2FC00C2F0F70C07F1A
:10130000C03211F00295007FDD2381F0D13009F465
:1013100063C0112309F46DC0FF2009F463C0F60116
:10132000858180FFCECF8F7085835CC08091E40281
:1013300082FD33C0112359F0002329F0802F0E9431
:101340009B0F0E94D90F80E00E94F30705C080E048
:101350000E9489080111C7CFEB2DE850FF0B34978D
:1013600020F40E94DC2B0E949B07EE2089F00E9453
:101370008D0F80FD0DC0F60112820E94870F0E9422
:10138000CB0BC6010E94170B0E94870F0E94D70B40
:10139000CDB7DEB7E9E00C94F735112389F0F110F1
:1013A00006C00E94BB0F802B0E940309D5CF21E00D
:1013B000F212F7CF0E94BB0F802B0E94C20FCCCF3E
:1013C000F11006C00E94CF0F802F0E940A09C4CFDF
:1013D00031E0F31609F2F6CF112331F085E08F15D5
:1013E00008F4BACF802FE0CF94E09F1508F4B4CF73
:1013F000EBCFFF2049F3D93349F4FFEF27EE33E079
:10140000F15020403040E1F700C000008D2F0E94D5
:101410008908A2CF8C2F86958695837069F08130DC
:1014200009F09ACF8D2F9C2F9370111102C090E07C
:1014300080E00E941F2C90CF8D2F9C2F9370111154
:1014400002C090E080E00E94092C86CF8D2F1123EE
:1014500029F00E94DB180E94AE197ECF0E94351938
:10146000FACF8C2F837079F5111176CF4D2F4295DD
:1014700046954770440F440F8D2F8F70042E01C086
:10148000880F0A94EAF72D2F2071D4FF07C02FE0B0
:1014900030E001C0220F4A95EAF72095C695C6951F
:1014A000C370822BC23049F058F4C13019F00E9449
:1014B000A80B52CF0E94A20B4FCF0E94AE0B4CCF75
:1014C0000E949F0B49CF8695112311F08C2F8170BC
:1014D000882309F441CF4D2F429546954770440F1C
:1014E000440F8D2F8F70042E01C0880F0A94EAF7E5
:1014F0002D2F2071D4FF07C02FE030E001C0220F54
:101500004A95EAF72095C695C695C370822BC230DE
:1015100049F058F4C13019F00E94F60B1DCF0E941B
:10152000F00B1ACF0E94FC0B17CF0E94B70B14CF01
:10153000CF70112329F08C2F0E94CB0B8D2F34CF2D
:101540008D2F0E940A098C2F0E94D70B05CFD23F06
:1015500051F160F4D03FB9F0D13F81F0112309F48B
:1015600049C0F110AECE8C2F8F7121C0D33F11F145
:10157000D43FA1F78091E40282FD26C08C2F8F71A9
:10158000112311F314C0112349F084E08F1508F4DE
:10159000E3CE8C2F8F710E94E40BDECE95E09F1579
:1015A00008F4DACEF6CF8C2F8F711111CDCF0E94B7
:1015B000CB0BD2CE112329F08C2F8F710E94C20B3E
:1015C000CBCE0E94BE0BC8CE112349F0CF718C2F19
:1015D0000E94CB0B63E08C2F0E941E10BDCE81E0D9
:1015E0000E943C10E1E0EF1508F0B6CE82E00E94C8
:1015F0003C10B2CEF110FFCE8C2F8F71A5CF0F9380
:101600001F93CF93DF93EC01688179818A810E94D7
:10161000B20C8C010E94020C0E949E0BB801CE01FC
:101620000E941109DF91CF911F910F910895CF93DF
:10163000DF93EC018B819C81892B29F08881998132
:1016400089238F3F51F4DF91CF910895CE010E94FD
:10165000FF0ACE010E94FD05F6CFCE010E944F0683
:101660008111F4CF0E94910F882369F38A81882326
:1016700051F38091E40282FFE6CF82E00E943C10A9
:10168000E2CF90E080E00E94092C90E080E00E9490
:101690001F2C0E94B80F0E94D90F0E94CA190E94E5
:1016A000AE1908950E94800F0E94410B08950E9478
:1016B000A80F0E94520B089592959F70963091F05A
:1016C00058F4925F9F70923058F4803F19F030F4D4
:1016D000883E30F481E008959A5FF4CF843FD1F3DF
:1016E00080E00895883EB0F3813FD1F7F3CFFC014D
:1016F000808191810E94A70C0E945C0B0895A5E057
:10170000B0E0E5E8FBE00C94E2352596E2E00C94CD
:10171000FE35A6E0B0E0EFE8FBE00C94E23526965B
:10172000E2E00C94FE3508950E94930B08950E9408
:10173000940B809315020E94410B089508950E9416
:10174000970B089590911502892B0E94970B08958D
:101750009091150289230E94970B0895909115028C
:1017600089270E94970B08950E949B0508950E9467
:10177000B40B809314020E94410B089580E00E94F4
:10178000B70B089591E001C0990F8A95EAF7892F68
:101790000E94B70B089521E030E001C0220F8A9526
:1017A000EAF780911402822B0E94B70B089521E082
:1017B00030E001C0220F8A95EAF72095809114024B
:1017C00082230E94B70B089521E030E001C0220F70
:1017D0008A95EAF78091140282270E94B70B089538
:1017E00090911402892B0E94B70B089590911402D6
:1017F00089230E94B70B08959091140289270E94B3
:10180000B70B08950895262F277091E001C0990F16
:101810002A95EAF723E0769567952A95E1F7FB018B
:10182000EE0FFF1FE60FF71FE40FF51F50E040E03B
:10183000682F70E08191DF0111979B01042E02C097
:10184000369527950A94E2F72170219528272923B8
:1018500028272C934F5F5F4F4330510559F7089568
:10186000A82FA77023E0969587952A95E1F7FC01AC
:10187000EE0FFF1FE80FF91FE60FF71F50E040E0E3
:1018800080E0219130E00A2E02C0369527950A9417
:10189000E2F721703327042E01C0220F0A94EAF7E1
:1018A000822B4F5F5F4F4330510559F70895262F24
:1018B0009A3068F4883058F438E0939FB0011124CE
:1018C000680F711D46EF51E0822F0E94030C0895AE
:1018D0009A3070F4883060F448E0949F90011124AD
:1018E00066EF71E0820F932F911D0E94300C0895D6
:1018F00080E00895CF92DF92FF920F931F93CF93D2
:10190000DF936C010091140280911502082BC7E04F
:10191000D0E010E0FC2EC8010C2E02C095958795F2
:101920000A94E2F780FD0CC02197A0F7F12C8F2DCF
:10193000DF91CF911F910F91FF90DF90CF9008958D
:10194000B6018C2F0E94F212019771F3F0CFCF9362
:10195000DF93EC010E947A0CBE010E94F212DF912B
:10196000CF9108951F93CF93DF93EB019091F501F1
:10197000992339F0CB010E94A70CDF91CF911F91E1
:101980000895882369F0CB010E947A0C182F682FE4
:10199000CE010E94570CBE01812F0E94F212EDCFA2
:1019A000CB010E94680C182FF6CF1F93CF93DF93C3
:1019B000C091160216E0809117028C1304C0DF91CB
:1019C000CF911F910895D0E01C9FF0011D9FF00D55
:1019D0001124E85EFD4F40815181628173818481D1
:1019E00095810E94890B2196C770E5CF40914802EE
:1019F0005091490260914A0270914B0280914C02D1
:101A000090914D020E94890B08951F93CF93DF930D
:101A100080914D02807F09F049C080914A0288235D
:101A200009F444C080911602C091170260914802E7
:101A300070914902A0914B02B0914C02D62FD7234E
:101A400016E0C81799F190E0109711F0DF3F19F4F4
:101A500001968770F6CF189F9001199F300D1124C1
:101A6000F901E85EFD4F41814713F2CF40814613F3
:101A7000EFCF42814111ECCF438154814A1B5B0B74
:101A8000483C510528F780914D028F70806180930A
:101A90004D02F901E35EFD4F80818F70806180838C
:101AA00088E492E00E94170B0E94D50CDF91CF9141
:101AB0001F910895A1E1B0E0E0E6FDE00C94DA3575
:101AC0008C0185E0F801DE011D9601900D928A954A
:101AD000E1F7F801E28088E4C82E82E0D82E609118
:101AE0004B0270914C026115710509F44EC1909141
:101AF000480220914902892F82238F3F09F445C172
:101B000040815181A380B480F0904A02F501E61B28
:101B1000F70BFF2009F4EAC080914D02382F307F87
:101B2000E83CF10508F0A3C031116DC0FE2C25136F
:101B300016C0941314C0E11012C08F70806180939E
:101B40004D020E94F60CC6010E94170B80914D02B7
:101B5000F80185838F2D6196EAE00C94F635A11487
:101B6000B10429F0842F85238F3F09F027C180E03D
:101B7000F82FF170DF2E80FF3CC08091160220917B
:101B8000170236E0821315C04D875E878D859E85CE
:101B90000E94A70C292F22952F702230F0F02430BC
:101BA00018F59F70F1F0F8019581907FD1F4D12C58
:101BB0001EC090E0389FF001399FF00D1124E85EBF
:101BC000FD4F6181651306C06081641303C06281AB
:101BD000E6120FC001968770D5CF9F7011F0882351
:101BE00031F3805E883018F3C8010E94170BFD2C7A
:101BF000B1CFEE2009F4AECF80914D028160809389
:101C00004D02F12CA7CF251306C0941304C0F80190
:101C1000EE2009F487C0C8010E94770B882319F1D0
:101C2000EE2009F180914D02803270F0209148023F
:101C30003091490238872F831986BB86AA868C8704
:101C4000CE0107960E94170B86E0F801A8E4B2E0E7
:101C500001900D928A95E1F70E94050D0E94F60C05
:101C6000FF24F39477CFC8010E94170BF9CF3111ED
:101C700013C07A2DB98AA88A6E2D89890E947F0B9C
:101C800088E492E00E94170B86E0F60111928A9593
:101C9000E9F70E94F60CB5CF25130FC094130DC0C1
:101CA000E1100BC0F8018583C8010E94170B86E084
:101CB000F60111928A95E9F74DCFC8010E94770B82
:101CC000882389F2EE2079F280914D02803208F467
:101CD000BBCF20914802309149023A8329831B826D
:101CE000BD82AC828E83CE010196ACCFE83CF1057B
:101CF00008F03EC0FE2CEE2009F4B5CF25132AC013
:101D0000941328C080914D0280FD1BC0982F907FB6
:101D1000C1F0F8018583903F31F0982F907F905F5C
:101D20008F70892B8583C8010E94170B86E0F8010C
:101D3000A8E4B2E001900D928A95E1F70E94F60CBA
:101D400009CF86E0F801A8E4B2E001900D928A95EF
:101D5000E1F700CFC8010E94770B811175CF809108
:101D60004D02816080934D02C8010E94170BF2CE94
:101D70007A2DB98AA88A6E2D89890E947F0B86E008
:101D8000F60111928A95E9F7D9CFEE2009F46BCFCD
:101D9000C8010E94770BF82E882309F464CF86E0EF
:101DA000F801A8E4B2E001900D928A95E1F788E489
:101DB00092E00E94ED070E94050DC0CF81E08E25C4
:101DC000D7CEACE0B0E0E7EEFEE00C94E1354F8317
:101DD000588769877A878B879C87CE0107960E94F0
:101DE0005A0D882369F08A859B85892B39F04F81AC
:101DF0005885842F85238F3F09F06BC016E05FC0A4
:101E000086E0FE013796DE01119601900D928A95CB
:101E1000E1F78A859B85892B89F38F8198858923B2
:101E20008F3F61F32091170230E0C901019687705E
:101E30009927409116024817190671F40E94570B12
:101E4000109217021092160286E0E8E4F2E0DF0139
:101E50001D928A95E9F7D2CF96E0929FD001939F89
:101E6000B00D1124A85EBD4FFE01319601900D9278
:101E70009A95E1F7809317020E94D50CBFCF819FFE
:101E8000C0011124885E9D4F0E945A0D8823E9F0FD
:101E9000E09116021E9FF0011124E85EFD4F408183
:101EA000518162817381848195810E94890B809127
:101EB000160290E001968770992780931602809110
:101EC0001602909117028913DACF2C96E3E00C9456
:101ED000FD3569857A858B859C850E94890B8ECF1F
:101EE000682F80910001909101010E947D2C08953E
:101EF000682F80910001909101010E94802C08952B
:101F000080910001909101010E94832C089580919D
:101F1000560285958595859508958091560287701E
:101F2000089590915602977081E009F480E0089539
:101F300080916102089590916102892B80936102E2
:101F4000089580959091610298239093610208957D
:101F500010926102089590916002892B8093600233
:101F6000089580959091600298239093600208955F
:101F700010926002089580915702089508950E947A
:101F8000BE0F08959091E40292FF08C0909157020D
:101F9000981721F0809357020E94BF0F08958091F7
:101FA0005702882329F01092570280E00E94BF0F49
:101FB0000895CF93DF93E0910001F09101018091AA
:101FC00061028083E0910001F09101018081909194
:101FD0006002892B808390915702992381F0E091D0
:101FE0000001F09101018081892B808380910001A3
:101FF000909101010E94352C81110E94CF0FC09158
:102000000001D091010148E050E06EE472E0CE01A1
:102010000E942236892B59F088E0FE01AEE4B2E03E
:1020200001900D928A95E1F7CE010E94F02BDF918D
:10203000CF91089508950E941A1008959091E40296
:1020400092FF11C098E0899F90011124622B609348
:1020500056020E94CB0B80915602859585958595F9
:102060000E941B1008950E94CB0B089510925602F7
:1020700080E00E941B10089590915602809589235C
:1020800080935602282F277091F4282F082E000CD9
:10209000330B9217130659F09091E40292FF07C098
:1020A0008595859585950E94D70B0E9436100895D9
:1020B0009091E40292FB222720F9281769F080FB17
:1020C00092F99093E4028091E3029091E4020E94DD
:1020D000AA1082E00E943C1008958091E40282FBE5
:1020E000882780F991E089270E945810089581E09F
:1020F0000E945810089580E00E94581008956FEFD4
:102100007FEF90E080E00E946A36089590E080E0E2
:102110000E944636883E9E4F19F40E94602308951F
:1021200080E0089582E090E00E943836089583E0D0
:1021300090E00E9438360895CF9384E090E00E94AA
:102140003836C82F82E290E00E943836982F8C2FC4
:10215000CF910895CF93C92F682F84E090E00E941B
:102160004C366C2F82E290E00E944C36CF9108955D
:10217000AB01BC018FE090E00E945E360895AB0198
:10218000BC0183E190E00E945E36089560E070E05B
:10219000CB010E94BF10089560E070E0CB010E9467
:1021A000B8100E94C610089568EE7EEF90E080E0BF
:1021B0000E946A3660E082E090E00E944C3660E067
:1021C00083E090E00E944C361092150260E084E0BB
:1021D00090E00E944C3664E082E290E00E944C362F
:1021E00060E085E090E00E944C3660E086E090E0A0
:1021F0000E944C366FEF87E090E00E944C3640E042
:1022000050E0BA0188E090E00E945E3660E08DE028
:1022100090E00E944C3640E050E0BA0188E190E046
:102220000E945E3660E087E190E00E944C3640E01C
:1022300050E0BA018CE190E00E945E3670E060E010
:1022400080E290E00E946A3640E050E0BA0188E106
:1022500090E00E945E3680E00E9479230E94A823CD
:102260000E94CC1008950E94D4100895682F8EE02B
:1022700090E00E944C3608950E94452D60937002B4
:1022800070937102809372029093730260936C0258
:1022900070936D0280936E0290936F02089508957B
:1022A00008950E945011089508950E9454110895B0
:1022B0008CE194E10E94D22B0E944F110E94511197
:1022C00008950E94FE150895089508950E946411CE
:1022D0000E94651108950E9438140E949A0708957B
:1022E0000E94302D0E94D1130E94B8230E9416161E
:1022F0000E945B150E946B110E9411250E941E21F5
:102300000E942A160E9455110895AAE0B0E0EBE859
:10231000F1E10C94D9350E947E15C82E81110E94DE
:102320003C1182E6A82E82E0B82E10E000E0902E4C
:10233000802F0E945B14E82EF501F1905F01F816E2
:10234000B9F18091740281FD0E9461148F2D8E2558
:10235000D12CFF24F394982F9F2129F10E94611121
:10236000882399F0DE829F82EF2081E009F480E0EB
:1023700088870E94392D8160782F9A8789874E81BE
:102380005F8168858A850E94B807F801EE59FD4F84
:102390008081F826F08281E0C11001C080E02A9699
:1023A000EBE00C94F535D394FF0CF8E0DF12D3CFBB
:1023B0000F5F1F4F0A30110509F0B9CF8FEF8983E6
:1023C0008A831B820E94392D8160782F9D838C83A4
:1023D00049815A816B818D810E94B807DCCF0E94B0
:1023E00085110E94FE150E9494210E94EC190E9402
:1023F000AD070895CF93DF930E94F712EC0181158A
:1024000021E5920708F042C0811530E5930708F0F6
:102410009DC0883E910530F5803E910508F092C040
:10242000883A910588F4853A910508F084C0813096
:10243000910509F487C0009709F484C0049708F057
:1024400081C0D0E0C0E07EC08F3B9105D0F7C85A74
:10245000D0E0CC0FDD1FC458DE4F0990D881C02DCD
:10246000D46470C08115904250F4C11581E0D80742
:1024700008F068C0C03FD10520F3D06563C0C11526
:1024800090E4D907F0F2DF70D06A5CC0811525E5D1
:10249000920700F5811534E5930708F08BC081158C
:1024A00043E5940708F073C0C11582E5D80708F426
:1024B00069C0CE018370992721E030E002C0220F6D
:1024C000331F8A95E2F7C695C69580E2C89FE00162
:1024D000112454C0C11599E5D907A8F4C11528E500
:1024E000D20708F06CC0C11536E5D30708F0A9CFB4
:1024F0008C2F0E948E13C82FD0E0DC2FCC27CC2746
:10250000DF71D0621FC0C1154AE5D40708F45CC072
:10251000CE0190568115904208F093CF8D2F8F7188
:102520000E948E1390E0982F882788279F719C0126
:102530002C2BE901E6CFC55AD0E0C655DE4FC88145
:10254000D0E0D064CE01DF91CF910895E4E096957C
:102550008795EA95E1F783702C2F269526952370B1
:1025600040E2249F90011124382B8C2F8370C1E00E
:10257000D0E002C0CC0FDD1F8A95E2F7C22BD32B2F
:10258000DC68E0CFDC2FCC27C16FD06ADBCF837053
:10259000992721E030E002C0220F331F8A95E2F72D
:1025A000C695C69590E2C99FE0011124C22BD32B9A
:1025B000DA68C8CFD82FCC27C46FD06AC3CFDC2F3E
:1025C000CC27C06FD06ABECF8C2F8F700E948E1325
:1025D00034E0D695C7953A95E1F7CF709C2FEC0182
:1025E000D069B0CF0E947F280E94FA1108958238E6
:1025F0009105B1F1B0F48133910509F475C048F447
:102600008932910509F469C08A32910509F473C0D1
:1026100008958533910509F459C08933910501F175
:102620000895833E9105A9F138F4803E9105F9F0B3
:10263000823E910549F10895863E9105A9F1873EB4
:102640009105C9F1843E910519F52091E40221FF1D
:102650001FC08091E30284FD14C087EE90E00895CE
:102660002091E3022370A1F080EE90E00895209184
:10267000E30220FD47C03091E40230FF09C024FF8F
:1026800044C090E080E004C02091E30222FDF7CF37
:1026900008952091E30222FD3BC03091E40230FD19
:1026A000E3CF24FFF5CFEDCF2091E30223FFF0CF5E
:1026B00024FDE7CFD2CF2091E30223FD2CC030913F
:1026C000E40231FFEECF84EE90E008952091E30222
:1026D00025FFDECF89E290E008952091E30225FFF7
:1026E000D7CF85E390E008952091E30226FFD0CF75
:1026F0008AE290E008952091E30226FFC9CF81E3AA
:1027000090E0089589E390E0089583EE90E00895C5
:1027100082EE90E0089586EE90E008959091E302B5
:1027200092FF06C0282F28712830F9F4877F846033
:1027300093FF06C0282F28712831F1F4877E846129
:102740002091E40220FF06C0382F38713830D9F4C8
:10275000877F816021FF06C0282F28712831D1F49E
:10276000877E816194FD877E0895282F247124300F
:10277000F9F68B7F8860DCCF282F2471243101F794
:102780008B7E8861DDCF382F3171313019F78E7F24
:102790008860E0CF282F2171213121F78E7E88615A
:1027A000E1CF1092DF021092E0021092E10210924B
:1027B000E2020895CF92DF92EF92FF926B017C01CB
:1027C0000E94FE1581110EC00E94452DC61AD70A1F
:1027D000E80AF90AC092DF02D092E002E092E10238
:1027E000F092E202FF90EF90DF90CF9008950F9368
:1027F0001F930E94FE15882329F00E94452D1F91EA
:102800000F9108950E94452D0091DF021091E00282
:102810002091E1023091E202600F711F821F931F2D
:10282000EECF0E94FE15882319F00E94392D0895DD
:102830000E94F713CB01089580E008950E947F1055
:1028400008950E947E158FE39CE90197F1F700C07F
:1028500000000E947E1580E00E945B1480FF04C08F
:102860000E941E140E94A02D08950E942114089514
:102870000E948610811102C00E9433110E949210A2
:10288000809374020E949C109093E4028093E30270
:102890000E9435140E9497100E949F0B8091140291
:1028A0000E94B40B089508950E945314089508954A
:1028B0000E9457140895E82FF0E0E051FD4F808109
:1028C0000895089580EA8A95F1F7089500C0089563
:1028D0000E946214089508950E946B140895A5E063
:1028E000B0E0E5E7F4E10C94DE350E94FE15F82E29
:1028F0006091FA02882309F440C085E0E82E8E0139
:102900000F5F1F4FF8018E2D11928A95E9F7862FE0
:1029100090E0B80180519D4F0E9438168823B9F08D
:102920008091E50290E045E050E0B80180519D4F74
:102930000E94223621E020937502892B91F4F12C1C
:102940000E9433068F2D2596E6E00C94FA3580918F
:1029500075028823A1F3F8011192EA94E9F7109225
:102960007502A091E502B0E0A051BD4F85E0F801ED
:1029700001900D928A95E1F7E3CF70E060517D4FB1
:102980008091E50290E080519D4F0E94BF160E9409
:102990006C14D8CFF894E82FE295EF70F0E031A1F5
:1029A000282F2F7081E090E001C0880F2A95EAF768
:1029B000982F9095932391A392A1892B82A3789429
:1029C0000895CF93DF93C5EBD1E089918F3F11F04C
:1029D0000E94CA1481E0CA3BD807B9F7CDEAD1E01A
:1029E00089918F3F11F00E94CA1481E0C53BD8073E
:1029F000B9F7DF91CF910895B0E0A0E0E2E0F5E112
:102A00000C94DC35EC01D62E062F10E0C8018B5457
:102A10009E4F7C01FC0180818F3F09F445C0F894F2
:102A2000E82FE295EF70F0E091A18F7021E030E0A7
:102A300001C0220F8A95EAF7892F822B81A382A1F8
:102A40002095282322A378940E946614EDEAF1E0F1
:102A500045EB51E031E0C12C21912F3F51F1A22FE4
:102A6000A295AF70B0E090968C9190E02F7002C06C
:102A7000959587952A95E2F780FD1BC0832FC82A7C
:102A8000330F4E175F0741F7F70180818F3F11F039
:102A90000E94CA1461E0C11001C060E08D2D0E9447
:102AA0006814C00FD11FC882CDB7DEB7E8E00C9420
:102AB000F83580E0E4CF809102018091020195E039
:102AC000811190E09093FA0285E0891B8093E502E2
:102AD0000E94E1148AE0E0EFF2E0DF01982F1D92FE
:102AE0009A95E9F7E6EEF2E0DF011D928A95E9F7A3
:102AF00085E00E94C1150E9430060895AAE0B0E06A
:102B0000E4E8F5E10C94DE358E010F5F1F4F8AE09B
:102B1000F80111928A95E9F7F12C6F2DC8010E94F6
:102B2000FC14F394F5E0FF12F8CF4AE050E0B8014E
:102B300086EE92E00E9422367C0121E0892B09F486
:102B400020E0E114F10441F08AE0F801A6EEB2E0E1
:102B500001900D928A95E1F76091FA0270E0605160
:102B60007D4F45E086EE92E00E94C21581E090E044
:102B7000E114F10411F40E946F142A96E6E00C941B
:102B8000FA350895FF920F931F93CF93DF93F82E9A
:102B9000092F162FD72FC42F222349F081E08093CD
:102BA00078020E94392D909377028093760280916B
:102BB00078028823A1F080917602909177020E949A
:102BC000512D059760F0EF2DF02FA12FBD2FCE0FC7
:102BD000DF2FD11DEC17FD0739F410927802CDB725
:102BE000DEB7E5E00C94FB3581918D93F3CF269809
:102BF0002E9883B186FB882780F9089580917B0207
:102C0000811107C00E942F35882351F081E0809305
:102C10007B0281E090917B02913009F080E0089581
:102C200082E080937B020E942A35F3CF0E94F71541
:102C3000809302018091020166E0882349F080E0E0
:102C40000E94801B0E94FE1581110E946E1608953D
:102C500086E0F6CF0E94FE15811102C00E94711617
:102C6000089581E090917C029A3008F080E0089508
:102C70000F931F93CF93DF93EC018B0180917C0224
:102C80008A30B8F4B801CE010E94BC16C82F811159
:102C900022C080917C028F3FB9F40E94392D90931D
:102CA0007A02809379028C2FDF91CF911F910F913F
:102CB00008958091790290917A020E94512D843F6B
:102CC000914000F7C0E0EFCF8F5F80937C028A30A5
:102CD00020F7C1E0E8CF10927C02E5CF0E94702A75
:102CE00008950E94732A0895B0E0A0E0EAE7F6E1B3
:102CF0000C94DD357901C82F880FDD0B4115510586
:102D0000A9F0FE0193E0EE0FFF1F9A95E1F7ED5F4A
:102D1000FE4F8181928183589D4F208130E0421780
:102D2000530708F49A01A9010E942F36CE010E9490
:102D30005C2BD82E8823D1F001151105B9F083E062
:102D4000CC0FDD1F8A95E1F7FE01ED5FFE4F438159
:102D500050E00417150708F4A801CD5FDE4F6C8121
:102D60007D8163587D4FC7010E942F368D2DCDB7D1
:102D7000DEB7E7E00C94F9350E94E91708950E9448
:102D80000A180895A4E0B0E0E8ECF6E10C94E03510
:102D900060919C0270919D0280919E0290919F0291
:102DA0000E94602D11E0643671058105910518F1CE
:102DB0000E94F7136E5F7F4F8F4F9F4F69837A8317
:102DC0008B839C8310E000E030E020E044E050E0A2
:102DD000BE016F5F7F4F82E00E947416182F882318
:102DE00051F00E94452D60939C0270939D02809348
:102DF0009E0290939F02812F2496E4E00C94FC3570
:102E0000B0E0A0E0E6E0F7E10C94DA357C015B018C
:102E10006A010E94311601E010E0882311F00AE0F7
:102E200010E0C1E0D0E0B501C701F60109958111BC
:102E300004C021960C171D072CF4CDB7DEB7EAE0CD
:102E40000C94F635CC9F9001CD9F300D300D1124A0
:102E500090E080E045E34A95F1F700000196821783
:102E60009307C1F7E0CFA8E0B0E0E9E3F7E10C9405
:102E7000E035CE0101960E943A2018856091A002AB
:102E80007091A1028091A2029091A3020E94602DF4
:102E9000643671058105910510F41123C1F010E02D
:102EA00000E030E020E048E050E0BE016F5F7F4F7F
:102EB00083E00E947416882369F00E94452D609378
:102EC000A0027093A1028093A2029093A3020E9499
:102ED000372081E02896E4E00C94FC35A6E0B0E0D1
:102EE000E4E7F7E10C94DA357B01C090BA01D090A9
:102EF000BB0101E010E09E012A5F3F4F50E040E03F
:102F000070E060E080E00E947416182F882309F4B6
:102F100048C056018FEFA81AB80A609198027091C4
:102F2000990280919A0290919B020E94602D6436D2
:102F300071058105910568F105E010E09E012F5FA4
:102F40003F4F50E040E070E060E081E00E94741686
:102F5000D82E65E070E0C5010E94122511E09E8127
:102F6000981310E01D2141F10E94452D60939802B5
:102F70007093990280939A0290939B0285E0FE01E0
:102F80003196A3E9B2E001900D928A95E1F711E044
:102F900013C065E070E0C5010E9412259E8189136F
:102FA000CBCF85E0F6013196DE01119601900D92AE
:102FB0008A95E1F71111E2CF85E0E3E9F2E0D7016C
:102FC00001900D928A95E1F7812F2696EAE00C9404
:102FD000F6350F931F93CF93DF93EC018B014EE6F1
:102FE00057E10E940017811106C080E0DF91CF9168
:102FF0001F910F91089542EC56E1B801CE010E9455
:103000000017882391F343E357E1B801CE010E94F2
:103010000017ECCF0F931F93CF93DF93C091BA01AA
:10302000D091BB01CE01019625E0FB01DC010190AE
:103030000D922A95E1F765E070E00E9412258883E1
:103040006E817F818885998500918F021091900211
:1030500020919102309192026017710782079307C5
:1030600051F060938F02709390028093910290933D
:1030700092020E94DA138989882331F060E0CE0140
:103080000A960E945F21198ADF91CF911F910F91BB
:1030900008950E94892F0E9470110E94962F089512
:1030A0000E949B2F0E94EF110E94B52F08950E944D
:1030B000D22C0E946F2F0E9458110E9449180E9422
:1030C00050180E946611FBCF8091AA0280FF0DC0AC
:1030D0006091280170E0660F771F6038710570F508
:1030E0006115710569F1862F089581FF07C0609110
:1030F000280184E0689FB0011124EFCF609128017E
:1031000082FD0AC08091A9028823A9F0209127019D
:1031100060912801821710F088E0ECCF869FC001F3
:10312000112433E0880F991F3A95E1F7622F70E080
:103130000E945E35D2CF68E070E0D5CF8FE708956A
:1031400081E008958091AA0280FF0CC06091240163
:1031500070E075956795759567956115710549F1ED
:10316000862F089581FF06C06091240170E0759557
:103170006795F3CF6091240182FD0BC09091A80266
:103180009923A1F06091230180912401961738F0D2
:10319000682F70E06038710500F38FE70895899F0C
:1031A000C001112470E00E945E35F4CF61E070E050
:1031B000D7CF81E00895803F31F40E946418819553
:1031C0008093AE020895813F19F40E946418F8CFED
:1031D000823F31F40E94641881958093AD02089576
:1031E000833F19F40E946418F8CF893F29F40E94A4
:1031F000A2188093AF0208958A3F21F40E94A2187A
:103200008195F7CF8B3F31F40E94A218819580936E
:10321000B00208958C3F19F40E94A218F8CF9CE0E8
:10322000980F953070F4845F990B21E030E001C075
:10323000220F8A95EAF78091AC02822B8093AC0230
:1032400008958D3F31F48091AA0281608093AA0293
:1032500008958E3F21F48091AA028260F7CF8F3FBC
:10326000B9F78091AA028460F1CF4091AD02803F0E
:1032700059F48091AE0287FF0DC01092AE02411149
:103280000BC01092A90208C0813F81F48091AE0268
:1032900018169CF3442381F08091AF029091B00204
:1032A000892B09F05AC01092A8020895823F49F470
:1032B00047FFF0CF1092AD028091AE028111ECCFAA
:1032C000E0CF833F19F41416ACF3E4CF9091AF0232
:1032D000893F29F41916F4F61092AF02DBCF8A3F2A
:1032E00019F497FFD7CFF8CF9091B0028B3F29F414
:1032F00097FFD0CF1092B002CDCF8C3F19F41916A2
:10330000CCF3C8CF9CE0980F953090F4845F990B74
:1033100021E030E0B90102C0660F771F8A95E2F71D
:10332000CB0180959091AC0289238093AC02B2CFFF
:103330008D3F31F48091AA028E7F8093AA02AACF9A
:103340008E3F21F48091AA028D7FF7CF8F3F09F045
:10335000A1CF8091AA028B7FF0CF08950E94392DD2
:103360009C019091AD028091AE02982B21F0309398
:10337000A7022093A6029091AF028091B002982BF1
:1033800021F03093A5022093A4028BEA92E00E94E0
:10339000FB2B089586E0EBEAF2E0DF011D928A95AF
:1033A000E9F71092A9021092A8021092AA020895B9
:1033B000FC01828181110EC0838181110BC0848147
:1033C000811108C091E08581811101C090E0892FB1
:1033D0008170089581E0FCCFA6E0B0E0E2EFF9E172
:1033E0000C94E13586E0EBEAF2E0DE011196019003
:1033F0000D928A95E1F71092AD021092AE021092F2
:10340000AF021092B0028B819C81892B89F0809150
:10341000A6029091A7020E94512DAC019091A902A1
:103420009923C9F1809129018417150608F440C039
:103430008D819E81892B91F08091A4029091A502AB
:103440000E94512DAC019091A802992309F471C0FA
:10345000809125018417150608F479C0BE016F5FBD
:103460007F4F8BEA92E00E948A2C811105C08BEA83
:1034700092E00E94D81981110E94AE1986E0FE01E7
:103480003196ABEAB2E001900D928A95E1F726966B
:10349000E3E00C94FD3520912A018AE0289F9001F9
:1034A00011242417350720F69F5F9093A90202C0CC
:1034B0009F3FD1F71B81112359F00E9464189FEFA1
:1034C00011160CF491E0899F802D11248093AD0298
:1034D0001C81112359F00E9464189FEF11160CF4FF
:1034E00091E0899F802D11248093AE023091AD022E
:1034F000332309F49DCF2091AE02222309F498CF03
:1035000045EB3403C0011124992359F09093AD0287
:1035100045EB240390011124332339F03093AE029C
:1035200087CF81E08093AD02F3CF81E08093AE023C
:103530007FCF209126018AE0289F90011124241733
:10354000350708F08BCF9F5F9093A80202C09F3F82
:10355000D1F71D81112359F00E94A2189FEF111677
:103560000CF491E0899F802D11248093AF021E817D
:10357000112359F00E94A2189FEF11160CF491E04C
:10358000899F802D11248093B0023091AF023323A4
:1035900009F464CF2091B002222309F45FCF45EBF8
:1035A0003403C0011124992359F09093AF0245EBE5
:1035B000240390011124332339F03093B0024ECF0D
:1035C00081E08093AF02F3CF81E08093B00246CFD9
:1035D000EF92FF920F931F93CF93DF93EB01E82FAE
:1035E000D1110EC0442321F0F0E0ED50FB4FE491E7
:1035F0006E2F7E2F8E2FCDB7DEB7E6E00C94FA3516
:103600000D2F10E0282F30E0442329F02D503B4FA0
:10361000F901249130E0F6E0CF9FC0011124EFEFD3
:10362000F0E0BF010E944A35AB018C2F90E0880F7B
:10363000991FA5E5A49FB001A59F700D1124861BBD
:10364000970B982F990F980FBF01601B710B629F0A
:10365000D001639FB00D729FB00D11248B2F9D9FE1
:10366000B0011124672F7727EF01C61BD70BBE01CE
:10367000629FE001639FD00D729FD00D11247F01E6
:10368000E91AF108E09EB001E19E700DF09E700D08
:103690001124672F7727E61BF70BE29F8001E39F3A
:1036A000100DF29F100D1124E12F722F42305105A1
:1036B00099F048F44115510569F04130510581F008
:1036C000EB2F8D2F07C04430510569F080F0463054
:1036D0005105B1F76E2F8FCFE22F7B2F812FFACFBD
:1036E000E22F7D2FF7CFEB2F822F712FF3CF7B2F80
:1036F000822FED2FEFCF41E00E94E81A0895089540
:10370000EEE2F1E08083618308958C3070F4482FFD
:10371000460F5527551F4D3051053CF4809330011D
:10372000860F809331016093320108950E947B1BC4
:103730000895CF93DF93762FE901682F842F0E949D
:10374000961B798368838A83DF91CF910895453BE7
:1037500008F044EB0E94991B08958091FB02982F7A
:103760009E7F61F4817082608093FB028091FE02F3
:10377000853B18F084EB8093FE0208958A34B0F301
:1037800081708864F1CF88E090E00E94403608950F
:10379000CF92DF92EF92FF926B017C010E94AD1BF2
:1037A000B701A60188E090E00E945E36FF90EF909E
:1037B000DF90CF9008956091FB027091FC028091A0
:1037C000FD029091FE020E94C81B0895EBEFF2E00B
:1037D00083E0808311828FEF828384EB8383148262
:1037E000AEEBB2E012968C911297836012968C9396
:1037F00060817181828193810E94C81B08958091AC
:10380000FB0280FF02C08695089580E008959091A4
:10381000FF02933018F49F5F9093FF02882351F0CA
:103820006091FB027091FC028091FD029091FE027A
:103830000E94C81B089581E00E94071C0895909182
:10384000FF02992319F091509093FF02882351F0C1
:103850006091FB027091FC028091FD029091FE024A
:103860000E94C81B089581E00E941F1C089580914A
:10387000FF0208958093FF02662351F06091FB02DE
:103880007091FC028091FD029091FE020E94C81B83
:10389000089560E00E943A1C08958091FC0208950A
:1038A0008091FD0208958091FE02089570E00E94CB
:1038B0003423089560912F018091FB0280FF0BC09B
:1038C00080912E0123E0829FC001112480509D4FE2
:1038D0000E94561C0895809130019091310123E09F
:1038E000829FF0011124E050FD4F891748F71182A3
:1038F000108212828F5F3396F8CF9091FB0290FF77
:103900000EC0909130012091310133E0939FF0017E
:103910001124E050FD4F921718F00E945A1C089590
:103920008183608342839F5F3396F5CFA3E0B0E04D
:10393000ECE9FCE10C94E2359091FB0290FF0AC0A7
:103940009E012F5F3F4F0E94A71B4B8169818A8197
:103950000E947D1C2396E2E00C94FE35CF93DF930A
:10396000EC01EC81F0E0E251FC4F4491EBEFF2E02E
:10397000628181810E94961C8C818F5F8C83DF9194
:10398000CF910895CF93DF93EC01EBEFF2E0438109
:1039900062818C810E94961C8C818F5F8C83DF9169
:1039A000CF910895A3E0B0E0E8EDFCE10C94E035A0
:1039B0008C018091B10281110AC09E012F5F3F4F9F
:1039C00044EB6FEF0E94A71B8A818093B102F8013C
:1039D0006481613069F08091B10240E0662361F05A
:1039E00040E0623011F44091B10280E060E004C038
:1039F0006091B10240E080E00E947D1CF80184816A
:103A000090E0019663E070E00E945E358483239627
:103A1000E4E00C94FC35A3E0B0E0E1E1FDE10C94BE
:103A2000DB35082FD62EF42EC22E9091FB0290FF8C
:103A30003AC0E92FE695AE2FB0E0A454BE4F8C916A
:103A40008093BE029E7F923091F59E012F5F3F4F83
:103A5000802F0E94A71B4B8169818A810E947D1C57
:103A60008091FC02801308C08091FD028D1104C07A
:103A70008091FE028F1529F08091C00282608093B0
:103A8000C0020093FC02D092FD02F092FE02CC2014
:103A900051F06091FB027091FC028091FD029091C7
:103AA000FE020E94C81B2396E9E00C94F735823091
:103AB00019F4F090FE02D4CF863019F40091FC0284
:103AC000CFCF8930D9F3893159F6E9516E2F617022
:103AD000B62EE695F0E0E251FB4F1491E12C609197
:103AE0003201E61618F00E945A1CBACFE19EC001BE
:103AF000112470E00E944A35802FB11014C0860F47
:103B000020913001622F6E0D7727771F9B01220FC6
:103B1000331F260F371F20503D4F4F2D6D2D0E9414
:103B2000A71BE394DCCF861BEBCFEBEFF2E0918198
:103B3000282F438162818AE0890F0E940B1D08951E
:103B400081E00E94951D0895EBEFF2E09181282F0E
:103B50004381628186EF890F0E940B1D089581E0E9
:103B60000E94A41D0895EBEFF2E0628121E1620F53
:103B700008F46FEF282F438181810E940B1D089567
:103B800081E00E94B31D0895EBEFF2E0628121E134
:103B9000621B08F460E0282F438181810E940B1D85
:103BA000089581E00E94C41D0895EBEFF2E0438187
:103BB00021E1420F08F44FEF282F628181810E949A
:103BC0000B1D089581E00E94D51D0895EBEFF2E0F2
:103BD000438121E1421B08F440E0282F628181816A
:103BE0000E940B1D089581E00E94E61D089520E0CB
:103BF0000E940B1D08959091FB0290FF0FC02C3086
:103C000068F430E0F901EE0FFF1FE20FF31FE05000
:103C1000FD4F8183608342830E945A1C0895A3E074
:103C2000B0E0E5E1FEE10C94E135122F9091FB024A
:103C300090FF0BC09E012F5F3F4F0E94A71B212FBB
:103C40004B8169818A810E94FB1D2396E3E00C94DD
:103C5000FD35EF92FF921F93CF93DF93EC0110E0BD
:103C6000EE24EA94F12C60913201161770F00E9454
:103C70005A1C9A818C8190FF27C08F5F8C83DF91C3
:103C8000CF911F91FF90EF90089520913001422F26
:103C9000410F5527551FCA019A01220F331F280FC4
:103CA000391F20503D4F70E0C7010E945E35962FAE
:103CB0008C814091FE026091FD02199F800D1124BC
:103CC0000E94A71B1F5FCFCF8150D8CFB0E0A0E0EC
:103CD000ECE6FEE10C94D835EC018A81BB24BA9461
:103CE00080FD02C0BB24B3948C8181110AC081E0A5
:103CF000B81222C08091320181508093B30281E0DA
:103D00008C83A12C4CE0942E80913201A816B8F03F
:103D10000E945A1C8091B30291E0B91259C08111DE
:103D200052C08091320181508093B3021C82CDB782
:103D3000DEB7ECE00C94F4351092B302E0CF0091C2
:103D40003001CA2CD12C0C0D1D2D111DC801880F5E
:103D5000991F080F191F00501D4FF8011182108282
:103D6000128234E0E32EF12C812C8091B302880D75
:103D70008D301CF1692D0E943C35892F082E000CD6
:103D8000990BC816D90691F48091FE028E9DA00170
:103D90008F9D500D11245595479555954795980140
:103DA0006091FD028091FC020E94A71B8B0CF1E048
:103DB000EF1AF108D1F6A394A7CF87FFDFCF909138
:103DC0003201890FDBCF81508093B302BC82AFCF29
:103DD00090E001966091320170E00E945E35809320
:103DE000B3028C83A4CFEF92FF920F931F93CF93D4
:103DF000DF93EC018C81811109C081E08C831092EA
:103E0000B20292E090932D0180932C0180913001B9
:103E10009091310123E0829FF0011124E050FD4F89
:103E2000891758F110E003E060913201161758F13C
:103E30000E945A1C80912C012091B202280F2093DD
:103E4000B20290912D01980F90932D01191654F400
:103E5000022E000C330B409132014150550B2417B8
:103E6000350734F0819580932C01813009F41C8250
:103E7000CDB7DEB7E6E00C94FA35118210821282DB
:103E80008F5F3396CDCFE12EF12C70E0C7010E94F9
:103E90005E3520913001820F482F50E02091B20210
:103EA000022E000C330BE216F306BCF020912D011C
:103EB000022E000C330B2E153F057CF0809F9001E5
:103EC000112420503D4F4091FE026091FD028091EF
:103ED000FC020E94A71B1F5FA7CFFA01EE0FFF1F76
:103EE000E40FF51FE050FD4F118210821282F3CFD4
:103EF000B0E0A0E0EEE7FFE10C94D835EC014C8196
:103F0000042F10E09801D8010E94A9359B01AC0153
:103F10000E94BF354B015C01E0E2F0E0E01BF10BD9
:103F2000A5E5B0E0AC019B010E94BF356B017C01AF
:103F30009F01DF010E94A1359B01AC010E94CA359F
:103F40009B01AC01280D391D4A1D5B1DC701B6013F
:103F50000E947235F22E822F90E039E23F1520F157
:103F600043E0249F9001112435952795122F109539
:103F700000E085E5E82EEF1880913201081718F16E
:103F80000E945A1C9C8181E0992319F0903219F407
:103F90008FEF80932B0180912B01890F8C83CDB7FC
:103FA000DEB7ECE00C94F43525E530E0B901681B90
:103FB000790B9B01220F331F260F371F37FFD4CFFA
:103FC0002F5F3F4FD1CF8E2D01FD8F2D20913001DE
:103FD000622F600F7727771F9B01220F331F260F59
:103FE000371F20503D4F412F6091FD020E94A71BBB
:103FF0000F5FC2CF0F931F93CF93DF93EC0110E0BD
:1040000000E0909132019017110609F06CF40E94C3
:104010005A1C8C8190E00196817099278C83DF91E6
:10402000CF911F910F91089520913001A801420F67
:10403000511D9A01220F331F240F351F20503D4F71
:104040004C816091FD028091FC02969590171106BB
:1040500051F04CF0442349F04091FE020E94A71B0E
:104060000F5F1F4FCECF4423B9F340E0F7CF10923C
:10407000C002089525E0EBEFF2E0DC0101900D9223
:104080002A95E1F72091BE023091BF024091C00213
:10409000FC012583368347830895EEEBF2E011821D
:1040A0008281846082830895EBEFF2E080818E7FCD
:1040B00080830E944D20EEEBF2E08281816082835A
:1040C0002FEF80E792E0215080409040E1F700C060
:1040D00000000E945A1C0895EBEFF2E080818E7F71
:1040E000808360817181828193810E94C81B0E94BC
:1040F0004D20EEEBF2E08281816082832FEF80E73A
:1041000092E0215080409040E1F700C000000E9402
:104110005A1C08956091FB02669570E04BE050E0F8
:1041200083E391E00E941536892B19F481E0809396
:10413000BF020E9411149093B8028093B70280913D
:10414000C00284608093C00208959091FB0290FFAA
:1041500030C0917081112EC092609093FB028091CB
:10416000C00281608093C002662351F06091FB021F
:104170007091FC028091FD029091FE020E94C81B8A
:104180006091FB02669570E04BE050E083E391E0C4
:104190000E941536892BA9F00E944D2081E0809362
:1041A000BA024091FE026091FD028091FC020E94E1
:1041B000F71D0895853210F09864CFCF880F982BA3
:1041C000CCCF0E948A20EACF682F9091FB0296956F
:1041D00081E0890F853208F081E00E94A5200895D2
:1041E00081E00E94E4200895682F9091FB0296954B
:1041F0008FEF890F09F484E20E94A520089581E0E1
:104200000E94F420089561E00E94A5200895EBEF3C
:10421000F2E080818160808386950E940321089569
:104220008091FB0280FF03C00E946C2008950E94D1
:104230000721089560E00E94A52008958091BD02A5
:10424000811133C00E948610811104C00E94331175
:104250000E94E61B0E94C31B6093FB027093FC024A
:104260008093FD029093FE028091C0028360809350
:10427000C0026E7F61F40E94E61B0E94C31B609324
:10428000FB027093FC028093FD029093FE020E9459
:10429000AD1B0E944D208091FB0280FF03C08695DC
:1042A0000E941A2181E08093BD020895EBEFF2E0B5
:1042B00080818160808386950E941A2108951F93D2
:1042C000CF93DF93EC01162F8F8180FF0CC0888184
:1042D00080FF24C08091FB0281608093FB02888173
:1042E00086950E94A5208F8181FF06C0212F4B81DA
:1042F0006A8189810E940B1D8F8182FF05C08E819A
:10430000882379F00E948A208F8183FF03C081E097
:104310008093BA02DF91CF911F9108950E9454209B
:10432000E2CF0E944D20F0CFEF92FF920F931F93A8
:10433000CF93DF938091BF02882309F463C08091FB
:10434000BE02E091FB02E695E81BE093B9028230E1
:1043500009F05DC0F0E0E651FC4FE491CE2FD0E0D3
:104360000EEA1CE18091BA02882361F01092BA0231
:104370000E9411149093B8028093B7021092BC026D
:104380001092BB020E941114E091B702F091B802A2
:104390009C012E1B3F0B2F3F3F47A0F52091B602FB
:1043A0002223B1F01092B6022091B4023091B502EE
:1043B000821B930B8F3F9F4758F4205D3A48309300
:1043C000B5022093B4028091C00288608093C0023D
:1043D000E090BB02F090BC02EC0FFD1FF093B8021E
:1043E000E093B70287EB92E0F80109958091BB0258
:1043F0009091BC02892B31F4E114F10419F081E0B1
:104400008093B602CDB7DEB7E6E00C94FA3586307D
:1044100049F4F0E0E951FC4FE491CE2FD0E002ECFA
:104420001CE1A0CF893051F4E695F0E0EC51FC4F4F
:10443000E491CE2FD0E009E21EE194CF8F3051F409
:10444000E695F0E0EF51FC4FE491CE2FD0E006E688
:104450001EE188CF853149F4F0E0E252FC4FE4914F
:10446000CE2FD0E003EF1EE17DCFC8E2D0E008E719
:104470001FE1883109F476CF833239F4ECEDF3E0B3
:10448000C591D49102ED1CE16DCFC4EFD1E00AEFEC
:104490001FE1843209F466CFC0EDD7E00FE71BE1DE
:1044A00061CFFA01811101C0FB0109950895CF93F5
:1044B000DF93C82FD62F0E94FF1B8C1748F00E9455
:1044C000FF1B8D1728F40E94F020DF91CF910895F3
:1044D0008C2F0E940321F9CF1F93CF93DF93EC0120
:1044E000FB01128111117EC00E94980F8272CC3C98
:1044F000FCE5DF0709F49CC008F041C0C63CECE5D0
:10450000DE0709F481C0D8F4C33C9CE5D90709F45F
:1045100071C030F4C23CDC4509F469C011E062C0EE
:10452000C43C9CE5D90709F46AC04FEA5DE160EA42
:104530007DE1C53CDC4591F70E94512253C0C93C46
:10454000FCE5DF0709F46AC068F4C73CECE5DE0768
:1045500009F45FC040EC5DE161ED7DE1C83CDC4504
:1045600059F3DCCFCA3C9CE5D90709F45CC043E3AE
:104570005CE16BE17CE1CB3CDC45F1F2CFCFC13DAE
:10458000FCE5DF0709F465C098F4CE3C9CE5D9074B
:1045900009F457C008F451C0CF3CFCE5DF0709F42B
:1045A00055C0C03DDC4509F0B9CF6EE089E04BC095
:1045B000C43D9CE5D90709F452C058F4C23DFCE55E
:1045C000DF0709F449C0C33DDC4509F0A7CF88E106
:1045D00035C0C53D9CE5D90709F444C0CD35DD455E
:1045E00009F09CCF812FDF91CF911F9108950E94F8
:1045F0001021F8CF4FEF50E260EF70E29DCF40EF17
:1046000050E26FEF70E298CF40EA5DE16FEA7DE142
:1046100093CF41ED5DE160EC7DE18ECF43EF5DE155
:1046200062EE7DE189CF42EE5DE163EF7DE184CF13
:104630004BE15CE163E37CE17FCF81E00E940321F9
:10464000D1CF65E082E00E945722CCCF68E086E0BF
:10465000FACF64E18FE0F7CF67E185E1F4CF62E262
:1046600089E1F1CF83E2EACF539A4BB1477F5BB147
:104670005860EFB7F8949B01220F331F260F371FA6
:10468000280F391F2817390741F4EFBF8FE594E051
:104690000197F1F700C000000895DC016D91CD0194
:1046A00078E05BB9000000C067FF4BB9660F0000FF
:1046B00000C000C000C04BB900C07A9591F7E2CFAE
:1046C00083E290E00E943836823289F484E290E0FE
:1046D0000E943836883059F485E290E00E943836DE
:1046E00091E0843109F090E0892F8170089580E095
:1046F000FCCFCF93C82F6FEF811162E283E290E08D
:104700000E944C366FEFC11168E084E290E00E9495
:104710004C366FEFC11164E185E290E00E944C36A7
:10472000CF910895089586E290E00E943836682F70
:1047300070E090E080E008950895CF93C62F0E9426
:104740009C236C2F86E290E00E944C36CF91089516
:1047500080E00E94792360E070E0CB010E949D23FD
:104760000E94FF270E94DC2881E00E94792308959F
:104770000E9492230E9493230E949C230E94602304
:10478000811102C00E94A8230895CF93FB01C2812A
:10479000CC2309F19C0122513F452031310520F500
:1047A00082510E94EC28C0E08C2FCF91089581E0C7
:1047B0000E94CB0B43E062E081E00E942606F3CF2B
:1047C00081E00E94D70B43E062E081E00E94260670
:1047D000EBCF82E0F6CF8031FFE59F0789F381318F
:1047E0009F45B9F3C1E0E0CF8031EFE59E07F9F2D4
:1047F00081319F45C9F682E0DBCF2FEFFC0120839A
:104800000895CF93DF93EC0188818138A9F028F4D3
:10481000803871F0DF91CF910895823881F083382C
:10482000C9F70E944D1C89830E94501C8A83F2CFD5
:104830000E94531C8983EECF0E94FF1BFBCF0E9476
:10484000371CF8CFCF93DF93EC0188818138D9F002
:1048500028F4803869F0DF91CF9108958238F9F01B
:104860008338C9F70E94531C482F6A81898108C088
:10487000D9810E94501CC82F0E944D1C4D2F6C2FB7
:104880000E94F71DE8CF89810E941A218981811138
:1048900003C00E945420DFCF0E945621DCCF8981C3
:1048A0000E94491CD8CFEF92FF920F931F93CF9392
:1048B000DF93EC01062FDC01ED91CD01E150E331F6
:1048C00008F0ACC0F0E0E257F94C0C949435198232
:1048D00089E08A83602FCE010E94422ECDB7DEB7D9
:1048E000E6E00C94FA358981823069F0833071F00A
:1048F0008130D9F40E94452D0E949A356A837B83CA
:104900008C839D83E7CF0E949323F6CF7E01B2E094
:10491000EB0EF11C10E0812F0E945B14F7018193D4
:104920007F011F5F1A30B9F7D5CF602FCE010E94EB
:10493000FD23D0CF89818230C1F76A817B818C8150
:104940009D810E949A350E949D23C4CF4B816A812C
:1049500089810E94C1279827892798279D838C8366
:10496000B9CF2C813D813227232732274B816A81A1
:1049700089810E94E327AECF0E94FF27ABCF0E9420
:104980002224A8CF0E940124A5CF0E94DB1BA2CF26
:104990000E948D2889839ECF0E948F28982789277F
:1049A00098279A83898396CF6B8170E089819A8159
:1049B000AE014C5F5F4F9827892798270E94922865
:1049C00089CF6B8170E089819A81AE014C5F5F4F26
:1049D0009827892798270E94B7287CCF0E94DC2837
:1049E00079CF0E94AE27D6CF6B8170E089819A8102
:1049F000AE014C5F5F4F9827892798270E94372880
:104A000069CF6B8170E089819A81AE014C5F5F4F05
:104A10009827892798270E945B285CCF8FEF88838F
:104A200059CF0895FC01680F791F8FEF91E36E173E
:104A30007F0709F408952191822728E030E087FF5D
:104A400006C0880F892721503109C9F7F0CF880F98
:104A5000FACFCF93DF93EC01FB018281882309F425
:104A600033C1C330FDE5DF07C0F5CA3F9CE5D90778
:104A700030F49E0122503C4524313105B0F50E94AE
:104A80009C109093E4028093E302C1318CE5D80737
:104A900009F4EEC008F069C0C930ECE5DE0709F49E
:104AA000D5C0C8F5C5308CE5D80709F4C7C000F5F6
:104AB000C330ECE5DE0709F4B9C008F0BBC0C23072
:104AC000DC4509F4ADC08091E3029091E4020E94BC
:104AD000AA100E94570B80E008C0C136EDE5DE0742
:104AE00071F2C53AFDE5DF0751F2DF91CF910895EC
:104AF0008091E3028062C7309CE5D90709F493C036
:104B00008091E3028061C830DC4508F48CC080915C
:104B1000E302806488C08091E3028B7FCD30FCE5A6
:104B2000DF0709F480C098F48091E3028E7FCB30D8
:104B30009CE5D90709F477C08091E3028C60CC3002
:104B4000DC4508F470C08091E3028D7F6CC08091D9
:104B5000E3028F7ECF30FCE5DF0709F464C008F480
:104B60007BC08091E3028F7D5EC0CD3F9CE5D9077D
:104B700009F47AC050F5C531FCE5DF0709F486C0B9
:104B800098F48091E302837FC3319CE5D90709F44F
:104B90004AC008F471C00E94570B9091E302892F1C
:104BA00097FB87F980583FC0CB3FFCE5DF0709F44E
:104BB00049C008F055C08091E4028160CA3FDC45DD
:104BC00009F081CF8093E4027ECFC130EDE5DE07AE
:104BD00009F468C0A8F4CF3F8CE5D80709F452C0A7
:104BE0008091E4028360C115DD4560F38091E402A9
:104BF000982F909591708E7F892B90FB81F9E2CF51
:104C0000C136EDE5DE0709F451C0C53AFDE5DF0721
:104C100009F453C0C230DD4509F055CF80E043C0F0
:104C20008091E30281608093E3024DCF8091E302A3
:104C30008260F9CF8091E3028460F5CF8091E30236
:104C40008860F1CF8091E4028260BCCF0E94570B54
:104C50008091E3028068E7CF8091E302877FE3CF12
:104C60008091E4028E7FAECF8091E4028D7FAACF47
:104C70008091E3028F7BD7CF0E94570B8091E30294
:104C80008F77D1CF8091E4028C7F9CCF8091E3021B
:104C900082FB992790F921E0922790FB82F990FB03
:104CA00083F9C1CF81E00E9436110DCF9091E302CC
:104CB000892F8F7E94FF8061B6CF9091E302892F78
:104CC0008E7F90FF8160AFCF81E00FCF8B3109F4F1
:104CD00064C040F58B3071F078F4863009F446C03A
:104CE00020F4853059F180E00895873009F447C0F9
:104CF0008830C9F781E00895803109F45CC068F418
:104D00008E3089F790917402892F8B7F92FF846097
:104D10008093740282FD4BC0EDCF863159F3893107
:104D200049F3E1CF8A32F9F060F48732B1F020F430
:104D30008E31C8F28D514BC08932A9F60E944506CA
:104D4000D9CF833440F48A3308F040C0853329F04A
:104D5000883381F2C8CF833431F681E00E949F0B03
:104D60000E94570BC7CF0E943311C4CF80917402A9
:104D7000807F8093740281E08093C40208959091B3
:104D80007402892F8E7F90FF81608093740280FD72
:104D9000B1CF817F80937402ADCF90917402892F3F
:104DA0008D7F91FF82608093740281FFA3CF8091F9
:104DB00074028160EFCF90917402892F877F93FFF7
:104DC00088608093740283FDF2CF94CF895391E081
:104DD00001C0990F8A95EAF7892FC0CF80E0089526
:104DE0000E94EE260895CF93C82F8091C40281308F
:104DF000B9F0882331F08230A1F11092C40280E032
:104E00000DC00E94980F8232D1F78C2F0E94EE269F
:104E100081111BC08C2F0E9466268170CF9108954E
:104E20000E94980F823289F38C2F0E94F026811104
:104E30000AC0C43199F060F4CB3029F0C03169F771
:104E400082E08093C40281E0E8CF81E090E0E5CF8A
:104E5000C93221F0C833B9F380E0DFCF1092C40229
:104E6000FBCFC93209F440C0F0F4C431E9F1A8F431
:104E700081E0C73099F680932A0184E1809329016B
:104E80008AE0809328018EE18093270188E0809357
:104E9000240188E28093230104C082EE8C0F8A30C3
:104EA00070F181E0BBCFC03509F450C0B8F48AE09E
:104EB000CF34B9F7E091C102F091C202309789F383
:104EC0002081082E000C990B820F911D8F3F9105B8
:104ED00009F00CF43FC08FEF8083E3CFC135C1F1FF
:104EE00081E0C23539F39ACF8091C3028823C9F299
:104EF0001092C3021092C2021092C102D2CFCD51C1
:104F0000C093C302C330C9F048F4C13099F089E2BC
:104F100091E0C23051F01092C302C3CFC53099F076
:104F200078F083E291E0C630B1F79093C2028093AB
:104F3000C102B7CF8AE291E0F8CF88E291E0F5CFE5
:104F400087E291E0F2CF84E291E0EFCF86EFB2CF3B
:104F50008FEFB0CF97FFC0CF1082A3CF84E008952A
:104F600090E1699FB001112450E0440F551F640F78
:104F7000751F90EA899F600D711D1124CB018796E2
:104F800008950F931F93CF93DF938430C8F46A3052
:104F9000B8F44830A8F40E94B0278C010E9438363B
:104FA000C82FD0E0DC2FCC27C80101960E943836EC
:104FB0009E01282BC901DF91CF911F910F91089578
:104FC00090E080E0F8CF0F931F93CF93DF93122FE1
:104FD000032F843078F46A3068F4483058F40E9423
:104FE000B027EC01602F0E944C36612FCE01019654
:104FF0000E944C36DF91CF911F910F910895AF928F
:10500000BF92CF92DF92EF92FF921F93CF93DF93E5
:105010008CEAC82E80E0D82ED0E07601C0E014C023
:10502000F50125913491412F6C2F8D2F0E94E3279C
:1050300082E0A80EB11C1F5F183091F780E1E80EE6
:10504000F11CCF5FCA3019F0570110E0E9CFDF5FE4
:1050500080EAC80ED11CD43001F7DF91CF911F91A7
:10506000FF90EF90DF90CF90BF90AF900895EF92B8
:10507000FF920F931F93CF93DF93EC018A017C0182
:10508000E60EF71ECE018796CE15DF0529F4CDB7C3
:10509000DEB7E6E00C94FA35C03822E0D20740F4DF
:1050A0000E943836F80180830F5F1F4F2196EACFA8
:1050B000F8011082F9CFB0E0A0E0E1E6F8E20C944C
:1050C000DC357C016A018C01060F171FEC01CE0153
:1050D0008796C017D10729F4CDB7DEB7E8E00C9466
:1050E000F835C03822E0D20740F4FE01EE19FF097E
:1050F000EC0DFD1D60810E944C362196E8CF462FB5
:10510000843040F47A3030F4683020F4672F0E9405
:10511000C127089590E080E0089580E1089589E531
:1051200091E00895EF92FF920F931F93CF93DF9337
:10513000EC018A017C01E60EF71ECE0189559D4FD8
:10514000CE15DF0529F4CDB7DEB7E6E00C94FA35CD
:10515000C93521E0D20740F40E943836F801808337
:105160000F5F1F4F2196E9CFF8011082F9CFB0E011
:10517000A0E0EDEBF8E20C94DC357C016A018C01D7
:10518000060F171FEC01CE0189559D4FC017D1079F
:1051900029F4CDB7DEB7E8E00C94F835C93521E045
:1051A000D20740F4FE01EE19FF09EC0DFD1D6081F0
:1051B0000E944C362196E7CFCF93DF93C7EAD2E027
:1051C00060E0CE010E944C362196C11584E0D807DC
:1051D000B9F7DF91CF910895A4E0B0E0E2EFF8E2F3
:1051E0000C94DD35F82E8FE08F1548F18FEF93E0AA
:1051F0000E943836811123C007EA12E0F11023C063
:1052000019821A821B821C82DD24D39478018FEFCD
:10521000E81AF80AC8010E94383689831A8288235E
:1052200071F09FEF980F9330D8F48A83D9820E5F84
:105230001F4FC7010E9438368B83811112C02496FC
:10524000E7E00C94F935011584E01807C1F3C801B3
:105250000E943836811101C0FA940F5F1F4FCECFE4
:105260008701CE0101960E947C07D0CFCF93DF93B8
:10527000EB0186319C4511F50E94980F9A81992384
:1052800099F08A7A91E009F490E09093C502811137
:1052900009C089E20E94700F0E94D90F80E0DF915F
:1052A000CF91089585E3F6CF8091C502811104C0A6
:1052B00089E20E94780FF0CF85E3FBCF81E0EFCF4A
:1052C0000F931F93CF93DF93C42FD22FFC018281C2
:1052D0008823C9F04093C8020E94392D9093C702D9
:1052E0008093C60280E28C0F883040F4C77081E062
:1052F00001C0880FCA95EAF70E940309DF91CF9198
:105300001F910F9108951091C802141332C080911B
:10531000C6029091C7020E94512D883C910548F524
:10532000C0E2CD0F1D17B9F080E2810F883040F444
:10533000177081E001C0880F1A95EAF70E940A09E8
:10534000C83048F481E09D2F977001C0880F9A956E
:10535000EAF70E940309802F0E94FA08C83070F60D
:10536000D77081E001C0880FDA95EAF70E940A0938
:10537000C5CF80E28C0F883008F6C77081E001C08D
:10538000880FCA95EAF7F2CF0F939C01CB01233F18
:105390004CE5340759F1A8F4283DFCE53F0701F13D
:1053A000293D4CE53407D1F1273D3C4591F406E217
:1053B00021EE41EE67ED7CE50E94602980E00F91CF
:1053C0000895253FFCE53F07E9F0B0F0263F3C4556
:1053D000F9F0FC018281882339F11092C802EFCFE5
:1053E00007E225EE45EE68ED7CE5E6CF06E221EE2C
:1053F00040EE63EF7CE5E0CF07E225EE44EE64EF9C
:105400007CE5DACF06E221EE42EE65EF7CE5D4CF13
:1054100007E225EE46EE66EF7CE5CECF08E221E01E
:1054200045EE69ED7CE5C8CF81E0C9CF8EE14A9BAE
:1054300002C08150E1F74A9BFECF08955A9880E25E
:105440008A95F1F75A9A0895FC013BE03A95F1F7F5
:1054500098E020E080E031E040E14A95F1F7880FE4
:105460004A9B02C08160232742E04A95F1F7000081
:1054700040E14A95F1F7915079F790E19A95F1F76B
:1054800099B132E03A95F1F7000040E14A95F1F721
:1054900092FB992790F992272081920F908308958B
:1054A000A1E0B0E0E6E5FAE20C94DE3519828C0169
:1054B0007C01E60EF11C0E151F0541F481E0998177
:1054C000911180E02196E6E00C94FA350E94162AAC
:1054D000CE0101960E94242AF80181938F01EBCF1F
:1054E000529A5A9A089552985A9AEA9AE9E6F0E03E
:1054F00080818F7C808308956150770B91E001C09B
:10550000990F6A95EAF720E031E0911108C0222353
:1055100091F05A9A80E28A95F1F75A980895492FA6
:10552000482339F05A9A232740E24A95F1F7969595
:10553000ECCF5A98F9CF5A98EDCFFF920F931F9363
:10554000CF93DF93EC018C01060F111DC017D1071B
:1055500029F4CDB7DEB7E5E00C94FB35F9900E9455
:105560001E2A68E08F2D0E947C2AF0CF1F920F9296
:105570000FB60F9211240F931F932F933F934F93C6
:105580005F936F937F938F939F93AF93BF93EF93AB
:10559000FF93CF93DF930F92CDB7DEB719820E94AE
:1055A000162ACE0101960E94242A082F06950695F8
:1055B0000695282F22952570902F9570290F922FF0
:1055C000937026952695920F982797708981982B2E
:1055D00009F05CC0053008F059C080E18A95F1F708
:1055E0005A9A529A82E08A95F1F700C05A9888E058
:1055F000089F80011124D801AD5FBE4F1696ED9132
:10560000FC9117973097A9F06091BA017091BB0196
:1056100014962D913C911597260F371F11968D9159
:105620009C911297680F791F13964C9113978C9148
:105630000995F801ED5FFE4F6381662351F02091DB
:10564000BA013091BB0184819581820F931F0E9422
:105650009D2A0E941E2A80E18A95F1F75A98529855
:105660005A9A80E18A95F1F7F801ED5FFE4F60816B
:10567000662351F02091BA013091BB018181928162
:10568000820F931F0E94502A0E94162A0F90DF91CA
:10569000CF91FF91EF91BF91AF919F918F917F91AA
:1056A0006F915F914F913F912F911F910F910F90AB
:1056B0000FBE0F901F9018950F931F93CF93DF93FA
:1056C000EC0105970CF04CC0F894529A5A9885E07A
:1056D0008A95F1F700009C2F969595708C2F857018
:1056E000980F892F83709695969523E0CC0FDD1F38
:1056F0002A95E1F7980F8E01092B0E941E2A00C0FF
:1057000068E0802F0E947C2A80E18A95F1F7529808
:105710005A9A4A9B1EC087E090E04A991CC0FE013D
:10572000ED5FFE4F63816623F9F02091BA0130915D
:10573000BB0184819581820F931F0E94502A8111A1
:1057400013C0529A5A9A7894DF91CF911F910F917A
:10575000089500C0DECF019729F4529A5A9A78949E
:1057600080E0F2CF00C0D9CF0E94162A80E28A954D
:10577000F1F75A98529A80E18A95F1F7CD5FDE4FA2
:105780006881662351F02091BA013091BB01898173
:105790009A81820F931F0E949D2A0E941E2A78944C
:1057A00081E0D2CF9093F1018093F001089590931E
:1057B000CF028093CE0208950E94FE15811103C08E
:1057C0008091C9020895E091CE02F091CF02309706
:1057D00029F00190F081E02D0995089580E0089569
:1057E000E091CE02F091CF02309721F00280F38158
:1057F000E02D09950895E091CE02F091CF02309707
:1058000039F022E0DC012C930480F581E02D09952C
:1058100008952091CC023091CD022817390771F0FC
:105820009093CD028093CC02E091CE02F091CF0212
:10583000309721F00680F781E02D09950895209199
:10584000CA023091CB022817390771F09093CB022E
:105850008093CA02E091CE02F091CF02309721F0FE
:105860000084F185E02D099508959C012E5F3F4F3E
:10587000AC01485F5F4F80E02417350709F40895B5
:10588000F90191919F019923B9F38F5FF5CF6623B9
:1058900049F0FC01329608962191261729F0E81765
:1058A000F907D1F780E0089581E008959C01FC019B
:1058B00032969FEF80E04191461751F09F3F19F4D7
:1058C000411101C0982F8F5F8630A9F79F3F09F4DF
:1058D0000895290F311D97FD3A95F90162830895C6
:1058E000FC01329608962191261303C0DF0111971F
:1058F0001C92E817F907B9F708950E94562C0895ED
:105900000E94702C0895029626E0FC0111922A95BF
:10591000E9F7089546E050E00E94223621E0892B05
:1059200009F420E0822F089508950E94942C089590
:10593000811106C081E08093D0020E94952C0895C9
:1059400082E0F9CF83E08093D0020E94952C0895E5
:105950000E94982C089581E08093D0020E94952C9B
:1059600008950E94AB2C0895089508950E94B52CC7
:105970000895089508950E94B42C0895CF930E942D
:10598000B92C0E947E150E94BA2CC0E08C2F0E9478
:105990005B14811105C0CF5FCA30C1F7CF91089564
:1059A00081E0FCCF85B7806885BF85B7806885BFFB
:1059B00008951F921FB61F9211248F939F93AF9348
:1059C000BF938091D102811113C0809124039091E3
:1059D0002503A0912603B09127034196A11DB11D77
:1059E0008093240390932503A0932603B093270369
:1059F000BF91AF919F918F911F901FBE1F901895DF
:105A000080912C03843031F10E94AF061092D102B4
:105A100088E190E020E40FB6F894A89580936000A8
:105A20000FBE2093600083B7817F846083BF83B7FC
:105A3000816083BF7894889583B78E7F83BF0FB6CC
:105A4000F894A8958091600088618093600010921E
:105A500060000FBE08950E94570B0E94B40608957F
:105A600082E084BD93E095BD9AEF97BD80936E0070
:105A700008952FB7F8948091240390912503A09165
:105A80002603B09127032FBF08952FB7F894609194
:105A900024037091250380912603909127032FBF43
:105AA00008959C014FB7F8948091240390912503A9
:105AB000A0912603B09127034FBF821B930B08953B
:105AC000CF92DF92EF92FF922FB7F894C090240309
:105AD000D0902503E0902603F09027032FBFA70165
