:100000000C94B7030C94D4030C94D4030C94CE2A10
:100010000C94D4030C94D4030C94D4030C94D40304
:100020000C94D4030C94D4030C94C7320C949B33DB
:100030000C94F12C0C94D4030C94D4030C94D4039E
:100040000C94D4030C94D4030C94D4030C94D403D4
:100050000C94D4030C94942D0C94D4030C94D403DA
:100060000C94D4030C94D4030C94D4030C94D403B4
:100070000C94D4030C94D4030C94D4030C94D403A4
:100080000C94D4030C94D4030C94D4030C94D40394
:100090000C94D4030C94D4030C94D4030C94D40384
:1000A0000C94D4030C94D4030C94D40329001E00A4
:1000B0001F00200021002200000000002B0014007F
:1000C0001A0008001500170000000000E0000400FE
:1000D0001600070009000A0000000000E1001D00F2
:1000E0001B00060019000500000000000000E200EF
:1000F000E3002C002C00000000000000230024007E
:100100002500260027002D002E0031001C001800BD
:100110000C00120013002F00300035000B000D0002
:100120000E000F003300340028002A0011001000D8
:10013000360037003800E500015100002C002C008B
:100140000000E700E60000000000000002533A0053
:100150003B003C003D003E000000000001000100AB
:100160000100010001000100000000000100010089
:100170000100010001000100000000000100010079
:10018000010001000100010000000000000001006A
:100190000100010001000000000000003F004000DD
:1001A00041004200430044004500490001000100B5
:1001B000460047004800520001004C0001000100C9
:1001C0004A004B0050004F0001002A0001000100CE
:1001D0004D004E005100010001000000010001002F
:1001E0000000780001000000000000000253000041
:1001F00000000000000000000000000000000000FF
:1002000000000000000000000000000000000000EE
:1002100000000000000000000000000000000000DE
:1002200000000000000000000000000000000000CE
:1002300000000000000000000000000000000000BE
:1002400000000000000000000000000000000000AE
:1002500000000000000000000000005CC25CC35C05
:10026000000000000000000000000000CA5CC95C43
:10027000C65CC55CC85CC75C0000000000000000F4
:1002800000007800000000000000000000000000F6
:10029000000000000000000000000000000000005E
:1002A000000000000000000000000000000000004E
:1002B000000000000000000000000000000000003E
:1002C000000000000000000000000000000000002E
:1002D000000000000000000000000000000000001E
:1002E000000000000000000000000000000000000E
:1002F00000000000000000000000005C00000000A2
:1003000000000000000000000000000000000000ED
:1003100000000000000000000000000000000000DD
:1003200000000000000000000000000000000000CD
:10033000000000002A2B2800000000000000000040
:100340000000000000000029000000002C1E3420E6
:10035000212224342627252E362D3738271E1F200C
:100360002122232425263333362E37381F04050651
:100370000708090A0B0C0D0E0F1011121314151695
:100380001718191A1B1C1D2F3130232D3504050693
:100390000708090A0B0C0D0E0F1011121314151675
:1003A0001718191A1B1C1D2F3130354C0000000086
:1003B000000000000000000000000000000000003D
:1003C000000000000000000000000000000000002D
:1003D0007E0F00D4FFFFFFC70000007800047F3FBE
:1003E0001F643214643214783C1E1E140A05222342
:1003F000252628292A2C2D2F3032333536383A3B02
:100400003D3E4042434547494A4C4E505153555753
:10041000595A5C5E6062646668696B6D6F71737572
:1004200077797B7D7F81838587898A8C8E90929472
:1004300096989A9C9E9FA1A3A5A7A8AAACAEAFB17F
:10044000B3B4B6B8B9BBBCBEBFC1C2C3C5C6C7C9C9
:10045000CACBCCCDCED0D1D2D2D3D4D5D6D7D7D883
:10046000D9D9DADADBDBDBDCDCDCDCDCDDDDDDDDD5
:10047000DCDCDCDCDCDBDBDBDADAD9D9D8D7D7D6DD
:10048000D5D4D3D2D2D1D0CECDCCCBCAC9C7C6C594
:10049000C3C2C1BFBEBCBBB9B8B6B4B3B1AFAEACDA
:1004A000AAA8A7A5A3A19F9E9C9A98969492908E85
:1004B0008C8A89878583817F7D7B79777573716F5E
:1004C0006D6B6968666462605E5C5A59575553513A
:1004D000504E4C4A4947454342403E3D3B3A3836F0
:1004E000353332302F2D2C2A292826252322FFAA06
:1004F0007F554000010101010101010101020202D9
:1005000002020202020203030303030303030404BF
:100510000404040404050505050506060606060789
:100520000707070708080808090909090A0A0A0B42
:100530000B0B0C0C0C0D0D0D0E0E0E0F0F0F1010E3
:10054000111111121213131414151516161717186A
:100550001819191A1A1B1B1C1D1D1E1E1F202021D5
:100560002222232424252626272829292A2B2C2D1C
:100570002D2E2F30313232333435363738393A3B3D
:100580003C3D3E3F404142434445464748494A4C32
:100590004D4E4F50515354555658595A5B5D5E5FFE
:1005A000616264656668696B6C6D6F707273757794
:1005B000787A7B7D7E8082838587888A8C8E8F91F6
:1005C000939596989A9C9EA0A2A3A5A7A9ABADAF20
:1005D000B1B3B5B7BABCBEC0C2C4C6C9CBCDCFD10A
:1005E000D4D6D8DBDDDFE2E4E7E9EBEEF0F3F5F8B3
:1005F000FAFDFF0A03370073006B00620000001E63
:1006000003530061006C006900630079006C0069AD
:100610000063005F004100630069006400000004A3
:1006200003090409025B00030100A0C809040000DB
:100630000103010100092111010001224000070509
:1006400081030800010904010002030000000921E0
:100650001101000122220007058203200001070585
:100660000303200001090402000103000000092126
:1006700011010001227B0007058403200001120103
:10068000000200000008D8045FEB0700010200012F
:100690000660FF0961A1010962150026FF0095208F
:1006A000750881020963150026FF009520750891E1
:1006B00002C005010902A10185020901A100050985
:1006C0001901290815002501950875018102050108
:1006D000093009311581257F950275088106093891
:1006E0001581257F950175088106050C0A380215CC
:1006F00081257F950175088106C0C005010980A18B
:1007000001850319012AB700150126B70095017567
:10071000108100C0050C0901A101850419012AA05E
:1007200002150126A002950175108100C00501097E
:1007300006A101050719E029E715002501950875AF
:100740000181029501750881010507190029FF152E
:100750000026FF0095067508810005081901290586
:10076000950575019102950175039101C000112451
:100770001FBECFEFDAE0DEBFCDBF11E0A0E0B1E0F9
:10078000E6E8FDE602C005900D92A03FB107D9F75B
:1007900023E0A0EFB1E001C01D92A533B207E1F75D
:1007A0000E946F180C9498360C940000FF920F93DF
:1007B0001F93CF93DF93FC01F62ED42F122F90912D
:1007C000F3012091F201992311F021E030E0C22FD2
:1007D000C17082818823F9F0CC23B1F0D1110CC013
:1007E000992319F081EE0E94A1088091F2018823DB
:1007F00019F085EE0E94A1088F2D0E940B08CDB73D
:10080000DEB7E5E00C941336002319F081EE0E9468
:100810000B08812FF2CFCC2371F0D1110CC099239A
:1008200019F081EE0E94A1088091F201882319F04D
:1008300085EE0E94A1088F2D0E94A108CC23D9F03B
:10084000D1110EC08091F301882319F081EE0E942E
:100850000B088091F201882319F085EE0E940B08A5
:10086000812F0E94A108C111CACF002341F281EE5D
:100870000E94A108C4CF002399F381EEEFCFEF923D
:10088000FF920F93CF93DF93EC017B01813E9105A3
:1008900009F440C0853E910509F44DC08091F301F3
:1008A000E0910001F0910101908191FD56C18823F2
:1008B00019F081EE0E940B088091F201E091000195
:1008C000F0910101908195FD42C1882319F085EED8
:1008D0000E940B08C736D10509F432C108F06CC07C
:1008E000CE32D10509F4DEC008F03FC0C532D105D3
:1008F00009F4C6C058F5C332D10509F4B5C008F0F3
:10090000B8C000E02FE130E06F9799F440E06FE26B
:1009100070E04DC0FB018281882349F091E0909303
:10092000F301DF91CF910F91FF90EF900895109216
:10093000F30181E0F6CFFB018281882321F091E071
:100940009093F201EECF1092F201F3CFC732D105AE
:1009500009F4A4C008F49BC000E02DE230E0AD979C
:1009600041F741E067E870E022C0C333D10509F4E4
:10097000AEC078F4C033D10509F4A2C008F499C020
:1009800000E027E830E0E197A1F641E069E870E097
:100990000EC0C533D10509F4A6C008F49DC0E9977F
:1009A00041F601E029E330E041E069E370E0C7018E
:1009B0000E94D60380E0B5CFCD32F2E0DF0709F424
:1009C000B1C068F5C432E2E0DE0709F49FC0A8F4C4
:1009D000CF3182E0D80709F491C0C332E2E0DE07EC
:1009E00009F490C0C538D10509F0A3CF00E026E393
:1009F00030E040E066E370E0DACFC632F2E0DF07D5
:100A000009F48CC008F486C001E026E230E0C73269
:100A1000D24009F08ECF41E066E270E0C8CFC1332A
:100A2000F2E0DF0709F484C068F4CF32E2E0DE07C9
:100A300009F47CC001E023E330E0C033D240A8F1E8
:100A400001E03FC0C43382E0D80709F475C0C53364
:100A5000E2E0DE0709F44EC0C333D24009F069CFAB
:100A600000E024E330E036C000E023E230E040E084
:100A70003EC000E024E230E041E063E270E097CF66
:100A800000E025E230E041E064E370E090CF00E078
:100A900026E230E041E065E270E089CF00E027E245
:100AA00030E0B9CF01E02DE230E041E063E370E0F7
:100AB0007ECF00E020E330E041E060E370E077CFFC
:100AC00000E022E330E041E062E370E070CF00E05C
:100AD00023E330E040E0D8CF01E024E230E041E021
:100AE0006FE170E064CF01E02FE230E041E06EE2C0
:100AF00070E05DCF01E02EE230E0F8CF00E02FE2C1
:100B000030E004CF00E02EE230E0B1CF01E023E29C
:100B100030E0B2CF01E024E330E0B5CF01E025E2E0
:100B200030E0B8CF01E027E830E01BCF01E0C2CFD2
:100B300001E029E830E029CF01E02FE130E0CFCF1C
:100B400001E02DE230E041E06DE270E030CF811154
:100B5000C1CE85EE0E94A108BDCE8111ADCE81EE41
:100B60000E94A108A9CECF93C82F0E94980720E029
:100B7000823091F08330A1F040E060E0813071F488
:100B80004FEF6FEF8AEA0E94271E6BE081E00E9420
:100B90009D1B8C2FCF9108954FEF6FEF80E0F3CF27
:100BA0004FEF6FEF8FEBEFCF81E008950E943F048E
:100BB000089508950E94D9050895A5E0B0E0E3EEF8
:100BC000F5E00C94F93549835A833091F501898118
:100BD0009A81311119C0662399F0222389F00E946D
:100BE000920C182F682F89819A810E946F0C69815D
:100BF0007A81812F0E9497282596E3E00C94153680
:100C00000E94800C182FF3CF0E94920C69817A8188
:100C1000F1CFFC01262F4081518162817381848153
:100C20000E94DD05089581E00895CF93DF93EC01E4
:100C300060E00E940906BE010E94DA05DF91CF91B3
:100C40000895E1E0F0E0DF0102C0AA0FBB1F6A9542
:100C5000E2F7BD01DF0102C0AA0FBB1F4A95E2F710
:100C60006A2B01C0EE0F2A95EAF7962F9823961368
:100C700002C08E2B0895E0958E230895242F462FD1
:100C8000682F809114020E9421060E94CF0B0895C4
:100C90000E946C1408950E947014089508950E9493
:100CA0006F0B0E944E062FEF84E39CE021508040A2
:100CB0009040E1F700C0000008950E944F060E9496
:100CC000B82D08950E944F060E94C92D08950F93D4
:100CD0001F93CF93DF938C0161E00E940906EC0122
:100CE000B8010E94DD23811106C080E0DF91CF9121
:100CF0001F910F910895B801CE010E94D605882357
:100D0000A1F3B801CE010E94DC29882371F3B80158
:100D1000CE010E944125882341F3B801CE010E94F3
:100D20004E29882311F3B801CE010E948422882322
:100D3000E1F2F8018281882361F0CA35FDE5DF0721
:100D400001F158F4C115ECE5DE0791F0CE3DDC452C
:100D500091F0C8010E94D405C9CFCC358DE5D807E4
:100D600069F090F0C73ADD45A1F70E946206BDCF59
:100D70000E945D06BACF0E944B11F7CF0E948510EA
:100D8000E8CF0E948F10E5CF0E949310E2CF0E941F
:100D9000CE2C0E94BC0708950E94C0070E94D32C4D
:100DA0000895B0E0A0E0E7EDF6E00C94F535E82F0B
:100DB000F0E0E45DFC4FD490282F269526952695EB
:100DC00030E0F901E453FC4F0491877010E0082EE5
:100DD00002C0159507950A94E2F701701127F901F1
:100DE000E454FC4FE490F12C082E02C0F594E794F3
:100DF0000A94E2F791E0E922FF24F901E455FC4F5F
:100E0000C491D0E002C0D595C7958A95E2F7C1702C
:100E1000DD270115110519F081EE0E940B08E11480
:100E2000F10419F086EE0E940B088D2D0E94120924
:100E3000E114F10419F086EE0E94A10801151105D4
:100E400019F081EE0E94A108CD2B19F08CE20E94CE
:100E50001209CDB7DEB7E7E00C941136EF92FF929E
:100E60000F931F93CF93DF93EC01162F0AE0888135
:100E7000882309F454C0813009F04EC08981813043
:100E800099F47E0122E0E20EF11C8A810E9412098F
:100E9000E7012196812F815050F3EFE9FFE0319770
:100EA000F1F700C00000F7CF823041F47E0182E00C
:100EB000E80EF11C8A810E940B08EACF833041F4CE
:100EC0007E01E2E0EE0EF11C8A810E94A108E0CFD3
:100ED000843011F02196DDCF2A81229690E080E0C7
:100EE000AE014F5F5F4F2053330B2A30310548F07E
:100EF000019778F2EFE9FFE03197F1F700C00000C9
:100F0000F7CF089FB001099F700D1124C901860F0A
:100F1000971F2981EA01E4CF0E94D106BACFCDB74D
:100F2000DEB7E6E00C94123660E00E942E070895CA
:100F3000982F92959F7011F0892F94E0282F269575
:100F4000269511F09E5F822F869509F09F5F892F6D
:100F5000089508950E94A907089581E008950E94C8
:100F6000AD0708950895CF93C82F0E94AA078C2F2C
:100F70000E94AF07CF91089580E00E94B3070895C3
:100F80000E94F42B0E94B30708950E94F42B9091C5
:100F9000F401981721F08093F4010E94B30708959B
:100FA000ABE0B0E0E6EDF7E00C94FA354F835887FC
:100FB00069877A878B8761110E94D00F1E821D82FC
:100FC00085E0FE013796DE01119601900D928A951B
:100FD000E1F78C819D81892B61F449815A816B8174
:100FE0007C818D819E810E94F90E2B96E2E00C940B
:100FF000163689819A8189238F3F79F3CE01019634
:101000000E9413068111E9CFF0CFFC01808191810C
:101010000E94BF0C0895CF93C82F8823C9F082384F
:10102000C9F40E94F42B81FD13C089E30E94880F4C
:101030000E94F10F2FEF81EE94E02150804090400C
:10104000E1F700C0000089E30E94900F0E94F10FB9
:10105000CF9108958338A1F40E94F42B80FDF8CF3E
:1010600083E50E94880F0E94F10F2FEF81EE94E03C
:10107000215080409040E1F700C0000083E5E4CFBC
:101080008438A1F40E94F42B82FDE2CF87E40E9411
:10109000880F0E94F10F2FEF81EE94E021508040E5
:1010A0009040E1F700C0000087E4CECF8CEF8C0FBA
:1010B000813AB8F48C2F0E940B278111C9CF6C2F75
:1010C00080910001909101010E945F2C882329F0FA
:1010D0008C2F0E94900F0E94F10F8C2F0E94880F7E
:1010E000B5CF80E28C0F883048F4C77081E001C032
:1010F000880FCA95EAF70E94B30FA8CFEBE5EC0F73
:10110000E33040F4F0E0E758FE4F808190E00E9429
:10111000212C9ECFE8E5EC0FE73150F4F0E0EE0F24
:10112000FF1FE55BFE4F808191810E94372C90CF9D
:10113000C03F08F48DCF8C2F0E94F3180E94C6196F
:1011400087CF882309F455C0823879F40E94F42BA4
:1011500081FF4FC089E30E94880F0E94F10F89E34D
:101160000E94900F0E94F10F0895833859F40E9455
:10117000F42B80FF3EC083E50E94880F0E94F10F90
:1011800083E5EECF843859F40E94F42B82FF31C0FE
:1011900087E40E94880F0E94F10F87E4E1CF9CEF63
:1011A000980F913AE8F290E2980F983050F48770D7
:1011B00091E001C0990F8A95EAF7892F0E94B90F33
:1011C000D1CF9BE5980F933028F490E080E00E9407
:1011D000212C089598E5980F973128F490E080E04D
:1011E0000E94372C0895803F20F00E944D190E94E4
:1011F000C61908951F93CF93DF93182FEB010E9418
:101200000B08209739F4812F0E94A108DF91CF911C
:101210001F9108958FE99FE00197F1F700C000004A
:101220002197EFCF70E060E0893311F460E570E062
:101230000E94FA080895882321F00E94B30F0E94AB
:10124000F10F0895882321F00E94B90F0E94F10F39
:101250000895B0E0A0E0EFE2F9E00C94F3356C0102
:10126000D62FC72FFC011281F580F2949FE0F9225E
:101270000E94A90FE82E8823B9F0E12E1123A1F0D6
:101280008C2F807F803421F080E28D0F8830D0F069
:101290008091E40282FF16C082E00E9454100E94F6
:1012A000A90F91E0E82EE926BC2EB2948FE0B82277
:1012B000FBE0FB1508F468C0EB2DF0E0E656F94CB6
:1012C0000C94AC35E12CF0CF0C2F0F70C07F11F0D7
:1012D0000295007F112399F0002359F080E28D0FD1
:1012E000883010F0D11107C0802F0E94B30F0E94E8
:1012F000F10F8D2F41C0802F0E94C30FF8CF8D2F8B
:101300000E94A108002309F43FC080E28D0F8830BD
:1013100010F0D11104C0802F0E94B90F03C0802F9C
:101320000E94C90F0E94F10F2FC00C2F0F70C07FB9
:10133000C03211F00295007FDD2381F0D13009F435
:1013400063C0112309F46DC0FF2009F463C0F601E6
:10135000858180FFCECF8F7085835CC08091E40251
:1013600082FD33C0112359F0002329F0802F0E9401
:10137000B30F0E94F10F80E00E940B0805C080E0CF
:101380000E94A1080111C7CFEB2DE850FF0B349745
:1013900020F40E94F42B0E94B307EE2089F00E94F3
:1013A000A50F80FD0DC0F60112820E949F0F0E94C2
:1013B000E30BC6010E942F0B0E949F0F0E94EF0BB0
:1013C000CDB7DEB7E9E00C940F36112389F0F110A8
:1013D00006C00E94D30F802B0E941B09D5CF21E0AD
:1013E000F212F7CF0E94D30F802B0E94DA0FCCCFDE
:1013F000F11006C00E94E70F802F0E942209C4CF7F
:1014000031E0F31609F2F6CF112331F085E08F15A4
:1014100008F4BACF802FE0CF94E09F1508F4B4CF42
:10142000EBCFFF2049F3D93349F4FFEF27EE33E048
:10143000F15020403040E1F700C000008D2F0E94A5
:10144000A108A2CF8C2F86958695837069F0813094
:1014500009F09ACF8D2F9C2F9370111102C090E04C
:1014600080E00E94372C90CF8D2F9C2F937011110C
:1014700002C090E080E00E94212C86CF8D2F1123A6
:1014800029F00E94F3180E94C6197ECF0E944D19C0
:10149000FACF8C2F837079F5111176CF4D2F4295AD
:1014A00046954770440F440F8D2F8F70042E01C056
:1014B000880F0A94EAF72D2F2071D4FF07C02FE080
:1014C00030E001C0220F4A95EAF72095C695C695EF
:1014D000C370822BC23049F058F4C13019F00E9419
:1014E000C00B52CF0E94BA0B4FCF0E94C60B4CCFFD
:1014F0000E94B70B49CF8695112311F08C2F817074
:10150000882309F441CF4D2F429546954770440FEB
:10151000440F8D2F8F70042E01C0880F0A94EAF7B4
:101520002D2F2071D4FF07C02FE030E001C0220F23
:101530004A95EAF72095C695C695C370822BC230AE
:1015400049F058F4C13019F00E940E0C1DCF0E94D2
:10155000080C1ACF0E94140C17CF0E94CF0B14CF87
:10156000CF70112329F08C2F0E94E30B8D2F34CFE5
:101570008D2F0E9422098C2F0E94EF0B05CFD23FA6
:1015800051F160F4D03FB9F0D13F81F0112309F45B
:1015900049C0F110AECE8C2F8F7121C0D33F11F115
:1015A000D43FA1F78091E40282FD26C08C2F8F7179
:1015B000112311F314C0112349F084E08F1508F4AE
:1015C000E3CE8C2F8F710E94FC0BDECE95E09F1531
:1015D00008F4DACEF6CF8C2F8F711111CDCF0E9487
:1015E000E30BD2CE112329F08C2F8F710E94DA0BDE
:1015F000CBCE0E94D60BC8CE112349F0CF718C2FD1
:101600000E94E30B63E08C2F0E943610BDCE81E078
:101610000E945410E1E0EF1508F0B6CE82E00E947F
:101620005410B2CEF110FFCE8C2F8F71A5CF0F9337
:101630001F93CF93DF93EC01688179818A810E94A7
:10164000CA0C8C010E941A0C0E94B60BB801CE0184
:101650000E942909DF91CF911F910F910895CF9397
:10166000DF93EC018B819C81892B29F08881998102
:1016700089238F3F51F4DF91CF910895CE010E94CD
:10168000170BCE010E941506F6CFCE010E94670609
:101690008111F4CF0E94A90F882369F38A818823DE
:1016A00051F38091E40282FFE6CF82E00E94541061
:1016B000E2CF90E080E00E94212C90E080E00E9448
:1016C000372C0E94D00F0E94F10F0E94E2190E9455
:1016D000C61908950E94980F0E94590B08950E9400
:1016E000C00F0E946A0B089592959F70963091F0FA
:1016F00058F4925F9F70923058F4803F19F030F4A4
:10170000883E30F481E008959A5FF4CF843FD1F3AE
:1017100080E00895883EB0F3813FD1F7F3CFFC011C
:10172000808191810E94BF0C0E94740B0895A5E0F6
:10173000B0E0EDE9FBE00C94FA352596E2E00C947C
:101740001636A6E0B0E0E7EAFBE00C94FA35269600
:10175000E2E00C94163608950E94AB0B08950E94A7
:10176000AC0B809315020E94590B089508950E94B6
:10177000AF0B089590911502892B0E94AF0B08952D
:101780009091150289230E94AF0B08959091150244
:1017900089270E94AF0B08950E94B30508950E9407
:1017A000CC0B809314020E94590B089580E00E9494
:1017B000CF0B089591E001C0990F8A95EAF7892F20
:1017C0000E94CF0B089521E030E001C0220F8A95DE
:1017D000EAF780911402822B0E94CF0B089521E03A
:1017E00030E001C0220F8A95EAF72095809114021B
:1017F00082230E94CF0B089521E030E001C0220F28
:101800008A95EAF78091140282270E94CF0B0895EF
:1018100090911402892B0E94CF0B0895909114028D
:1018200089230E94CF0B08959091140289270E946A
:10183000CF0B08950895262F277091E001C0990FCE
:101840002A95EAF723E0769567952A95E1F7FB015B
:10185000EE0FFF1FE60FF71FE40FF51F50E040E00B
:10186000682F70E08191DF0111979B01042E02C067
:10187000369527950A94E2F7217021952827292388
:1018800028272C934F5F5F4F4330510559F7089538
:10189000A82FA77023E0969587952A95E1F7FC017C
:1018A000EE0FFF1FE80FF91FE60FF71F50E040E0B3
:1018B00080E0219130E00A2E02C0369527950A94E7
:1018C000E2F721703327042E01C0220F0A94EAF7B1
:1018D000822B4F5F5F4F4330510559F70895262FF4
:1018E0009A3068F4883058F438E0939FB00111249E
:1018F000680F711D46EF51E0822F0E941B0C089566
:101900009A3070F4883060F448E0949F900111247C
:1019100066EF71E0820F932F911D0E94480C08958D
:1019200080E00895CF92DF92FF920F931F93CF93A1
:10193000DF936C010091140280911502082BC7E01F
:10194000D0E010E0FC2EC8010C2E02C095958795C2
:101950000A94E2F780FD0CC02197A0F7F12C8F2D9F
:10196000DF91CF911F910F91FF90DF90CF9008955D
:10197000B6018C2F0E940A13019771F3F0CFCF9319
:10198000DF93EC010E94920CBE010E940A13DF91CA
:10199000CF9108951F93CF93DF93EB019091F501C1
:1019A000992339F0CB010E94BF0CDF91CF911F9199
:1019B0000895882369F0CB010E94920C182F682F9C
:1019C000CE010E946F0CBE01812F0E940A13EDCF41
:1019D000CB010E94800C182FF6CF1F93CF93DF937B
:1019E000C091160216E0809117028C1304C0DF919B
:1019F000CF911F910895D0E01C9FF0011D9FF00D25
:101A00001124E85EFD4F40815181628173818481A0
:101A100095810E94A10B2196C770E5CF40914802A5
:101A20005091490260914A0270914B0280914C02A0
:101A300090914D020E94A10B08951F93CF93DF93C5
:101A400080914D02807F09F049C080914A0288232D
:101A500009F444C080911602C091170260914802B7
:101A600070914902A0914B02B0914C02D62FD7231E
:101A700016E0C81799F190E0109711F0DF3F19F4C4
:101A800001968770F6CF189F9001199F300D112491
:101A9000F901E85EFD4F41814713F2CF40814613C3
:101AA000EFCF42814111ECCF438154814A1B5B0B44
:101AB000483C510528F780914D028F7080618093DA
:101AC0004D02F901E35EFD4F80818F70806180835C
:101AD00088E492E00E942F0B0E94ED0CDF91CF91E1
:101AE0001F910895A1E1B0E0E8E7FDE00C94F23524
:101AF0008C0185E0F801DE011D9601900D928A951A
:101B0000E1F7F801E28088E4C82E82E0D82E6091E7
:101B10004B0270914C026115710509F44EC1909110
:101B2000480220914902892F82238F3F09F445C141
:101B300040815181A380B480F0904A02F501E61BF8
:101B4000F70BFF2009F4EAC080914D02382F307F57
:101B5000E83CF10508F0A3C031116DC0FE2C25133F
:101B600016C0941314C0E11012C08F70806180936E
:101B70004D020E940E0DC6010E942F0B80914D0256
:101B8000F80185838F2D6196EAE00C940E36A1143E
:101B9000B10429F0842F85238F3F09F027C180E00D
:101BA000F82FF170DF2E80FF3CC08091160220914B
:101BB000170236E0821315C04D875E878D859E859E
:101BC0000E94BF0C292F22952F702230F0F0243074
:101BD00018F59F70F1F0F8019581907FD1F4D12C28
:101BE0001EC090E0389FF001399FF00D1124E85E8F
:101BF000FD4F6181651306C06081641303C062817B
:101C0000E6120FC001968770D5CF9F7011F0882320
:101C100031F3805E883018F3C8010E942F0BFD2C31
:101C2000B1CFEE2009F4AECF80914D028160809358
:101C30004D02F12CA7CF251306C0941304C0F80160
:101C4000EE2009F487C0C8010E948F0B882319F188
:101C5000EE2009F180914D02803270F0209148020F
:101C60003091490238872F831986BB86AA868C87D4
:101C7000CE0107960E942F0B86E0F801A8E4B2E09F
:101C800001900D928A95E1F70E941D0D0E940E0DA4
:101C9000FF24F39477CFC8010E942F0BF9CF3111A5
:101CA00013C07A2DB98AA88A6E2D89890E94970B54
:101CB00088E492E00E942F0B86E0F60111928A954B
:101CC000E9F70E940E0DB5CF25130FC094130DC078
:101CD000E1100BC0F8018583C8010E942F0B86E03C
:101CE000F60111928A95E9F74DCFC8010E948F0B3A
:101CF000882389F2EE2079F280914D02803208F437
:101D0000BBCF20914802309149023A8329831B823C
:101D1000BD82AC828E83CE010196ACCFE83CF1054A
:101D200008F03EC0FE2CEE2009F4B5CF25132AC0E2
:101D3000941328C080914D0280FD1BC0982F907F86
:101D4000C1F0F8018583903F31F0982F907F905F2C
:101D50008F70892B8583C8010E942F0B86E0F801C4
:101D6000A8E4B2E001900D928A95E1F70E940E0D71
:101D700009CF86E0F801A8E4B2E001900D928A95BF
:101D8000E1F700CFC8010E948F0B811175CF8091C0
:101D90004D02816080934D02C8010E942F0BF2CE4C
:101DA0007A2DB98AA88A6E2D89890E94970B86E0C0
:101DB000F60111928A95E9F7D9CFEE2009F46BCF9D
:101DC000C8010E948F0BF82E882309F464CF86E0A7
:101DD000F801A8E4B2E001900D928A95E1F788E459
:101DE00092E00E9405080E941D0DC0CF81E08E2563
:101DF000D7CEACE0B0E0EFEFFEE00C94F9354F83C6
:101E0000588769877A878B879C87CE0107960E94BF
:101E1000720D882369F08A859B85892B39F04F8163
:101E20005885842F85238F3F09F06BC016E05FC073
:101E300086E0FE013796DE01119601900D928A959B
:101E4000E1F78A859B85892B89F38F819885892382
:101E50008F3F61F32091170230E0C901019687702E
:101E60009927409116024817190671F40E946F0BCA
:101E7000109217021092160286E0E8E4F2E0DF0109
:101E80001D928A95E9F7D2CF96E0929FD001939F59
:101E9000B00D1124A85EBD4FFE01319601900D9248
:101EA0009A95E1F7809317020E94ED0CBFCF819FB6
:101EB000C0011124885E9D4F0E94720D8823E9F0B5
:101EC000E09116021E9FF0011124E85EFD4F408153
:101ED000518162817381848195810E94A10B8091DF
:101EE000160290E0019687709927809316028091E0
:101EF0001602909117028913DACF2C96E3E00C9426
:101F0000153669857A858B859C850E94A10B8ECFBD
:101F1000682F80910001909101010E94952C0895F5
:101F2000682F80910001909101010E94982C0895E2
:101F300080910001909101010E949B2C0895809155
:101F400056028595859585950895809156028770EE
:101F5000089590915602977081E009F480E0089509
:101F600080916102089590916102892B80936102B2
:101F7000089580959091610298239093610208954D
:101F800010926102089590916002892B8093600203
:101F9000089580959091600298239093600208952F
:101FA00010926002089580915702089508950E944A
:101FB000D60F08959091E40292FF08C090915702C5
:101FC000981721F0809357020E94D70F08958091AF
:101FD0005702882329F01092570280E00E94D70F01
:101FE0000895CF93DF93E0910001F091010180917A
:101FF00061028083E0910001F09101018081909164
:102000006002892B808390915702992381F0E0919F
:102010000001F09101018081892B80838091000172
:10202000909101010E944D2C81110E94E70FC091F7
:102030000001D091010148E050E06EE472E0CE0171
:102040000E943A36892B59F088E0FE01AEE4B2E0F6
:1020500001900D928A95E1F7CE010E94082CDF9144
:10206000CF91089508950E94321008959091E4024E
:1020700092FF11C098E0899F90011124622B609318
:1020800056020E94E30B80915602859585958595B1
:102090000E94331008950E94E30B08951092560297
:1020A00080E00E9433100895909156028095892314
:1020B00080935602282F277091F4282F082E000CA9
:1020C000330B9217130659F09091E40292FF07C068
:1020D0008595859585950E94EF0B0E944E10089579
:1020E0009091E40292FB222720F9281769F080FBE7
:1020F00092F99093E4028091E3029091E4020E94AD
:10210000C21082E00E94541008958091E40282FB84
:10211000882780F991E089270E947010089581E056
:102120000E947010089580E00E94701008956FEF73
:102130007FEF90E080E00E948236089590E080E09A
:102140000E945E36883E9E4F19F40E9478230895BF
:1021500080E0089582E090E00E945036089583E088
:1021600090E00E9450360895CF9384E090E00E9462
:102170005036C82F82E290E00E945036982F8C2F64
:10218000CF910895CF93C92F682F84E090E00E94EB
:1021900064366C2F82E290E00E946436CF910895FD
:1021A000AB01BC018FE090E00E9476360895AB0150
:1021B000BC0183E190E00E947636089560E070E013
:1021C000CB010E94D710089560E070E0CB010E941F
:1021D000D0100E94DE10089568EE7EEF90E080E05F
:1021E0000E94823660E082E090E00E94643660E007
:1021F00083E090E00E9464361092150260E084E073
:1022000090E00E94643664E082E290E00E946436CE
:1022100060E085E090E00E94643660E086E090E057
:102220000E9464366FEF87E090E00E94643640E0E1
:1022300050E0BA0188E090E00E94763660E08DE0E0
:1022400090E00E94643640E050E0BA0188E190E0FE
:102250000E94763660E087E190E00E94643640E0BC
:1022600050E0BA018CE190E00E94763670E060E0C8
:1022700080E290E00E94823640E050E0BA0188E1BE
:1022800090E00E94763680E00E9491230E94C02355
:102290000E94E41008950E94EC100895682F8EE0CB
:1022A00090E00E94643608950E945D2D6093700254
:1022B00070937102809372029093730260936C0228
:1022C00070936D0280936E0290936F02089508954B
:1022D00008950E946811089508950E946C11089550
:1022E00084E394E10E94EA2B0E9467110E94691125
:1022F00008950E9416160895089508950E947C116D
:102300000E947D1108950E9450140E94B207089502
:102310000E94482D0E94E9130E94D0230E942E168D
:102320000E9473150E9483110E9429250E94362164
:102330000E9442160E946D110895AAE0B0E0E3EAFF
:10234000F1E10C94F1350E949615C82E81110E947E
:10235000541182E6A82E82E0B82E10E000E0902E04
:10236000802F0E947314E82EF501F1905F01F8169A
:10237000B9F18091740281FD0E9479148F2D8E2510
:10238000D12CFF24F394982F9F2129F10E947911D9
:10239000882399F0DE829F82EF2081E009F480E0BB
:1023A00088870E94512D8160782F9A8789874E8176
:1023B0005F8168858A850E94D007F801EE59FD4F3C
:1023C0008081F826F08281E0C11001C080E02A9669
:1023D000EBE00C940D36D394FF0CF8E0DF12D3CF72
:1023E0000F5F1F4F0A30110509F0B9CF8FEF8983B6
:1023F0008A831B820E94512D8160782F9D838C835C
:1024000049815A816B818D810E94D007DCCF0E9467
:102410009D110E9416160E94AC210E94041A0E946F
:10242000C5070895CF93DF930E940F13EC01811528
:1024300021E5920708F042C0811530E5930708F0C6
:102440009DC0883E910530F5803E910508F092C010
:10245000883A910588F4853A910508F084C0813066
:10246000910509F487C0009709F484C0049708F027
:1024700081C0D0E0C0E07EC08F3B9105D0F7C85A44
:10248000D0E0CC0FDD1FC458DE4F0990D881C02D9D
:10249000D46470C08115904250F4C11581E0D80712
:1024A00008F068C0C03FD10520F3D06563C0C115F6
:1024B00090E4D907F0F2DF70D06A5CC0811525E5A1
:1024C000920700F5811534E5930708F08BC081155C
:1024D00043E5940708F073C0C11582E5D80708F4F6
:1024E00069C0CE018370992721E030E002C0220F3D
:1024F000331F8A95E2F7C695C69580E2C89FE00132
:10250000112454C0C11599E5D907A8F4C11528E5CF
:10251000D20708F06CC0C11536E5D30708F0A9CF83
:102520008C2F0E94A613C82FD0E0DC2FCC27CC27FD
:10253000DF71D0621FC0C1154AE5D40708F45CC042
:10254000CE0190568115904208F093CF8D2F8F7158
:102550000E94A61390E0982F882788279F719C01DE
:102560002C2BE901E6CFC55AD0E0C655DE4FC88115
:10257000D0E0D064CE01DF91CF910895E4E096954C
:102580008795EA95E1F783702C2F26952695237081
:1025900040E2249F90011124382B8C2F8370C1E0DE
:1025A000D0E002C0CC0FDD1F8A95E2F7C22BD32BFF
:1025B000DC68E0CFDC2FCC27C16FD06ADBCF837023
:1025C000992721E030E002C0220F331F8A95E2F7FD
:1025D000C695C69590E2C99FE0011124C22BD32B6A
:1025E000DA68C8CFD82FCC27C46FD06AC3CFDC2F0E
:1025F000CC27C06FD06ABECF8C2F8F700E94A613DD
:1026000034E0D695C7953A95E1F7CF709C2FEC0151
:10261000D069B0CF0E9497280E9412120895823884
:102620009105B1F1B0F48133910509F475C048F416
:102630008932910509F469C08A32910509F473C0A1
:1026400008958533910509F459C08933910501F145
:102650000895833E9105A9F138F4803E9105F9F083
:10266000823E910549F10895863E9105A9F1873E84
:102670009105C9F1843E910519F52091E40221FFED
:102680001FC08091E30284FD14C087EE90E008959E
:102690002091E3022370A1F080EE90E00895209154
:1026A000E30220FD47C03091E40230FF09C024FF5F
:1026B00044C090E080E004C02091E30222FDF7CF07
:1026C00008952091E30222FD3BC03091E40230FDE9
:1026D000E3CF24FFF5CFEDCF2091E30223FFF0CF2E
:1026E00024FDE7CFD2CF2091E30223FD2CC030910F
:1026F000E40231FFEECF84EE90E008952091E302F2
:1027000025FFDECF89E290E008952091E30225FFC6
:10271000D7CF85E390E008952091E30226FFD0CF44
:102720008AE290E008952091E30226FFC9CF81E379
:1027300090E0089589E390E0089583EE90E0089595
:1027400082EE90E0089586EE90E008959091E30285
:1027500092FF06C0282F28712830F9F4877F846003
:1027600093FF06C0282F28712831F1F4877E8461F9
:102770002091E40220FF06C0382F38713830D9F498
:10278000877F816021FF06C0282F28712831D1F46E
:10279000877E816194FD877E0895282F24712430DF
:1027A000F9F68B7F8860DCCF282F2471243101F764
:1027B0008B7E8861DDCF382F3171313019F78E7FF4
:1027C0008860E0CF282F2171213121F78E7E88612A
:1027D000E1CF1092DF021092E0021092E10210921B
:1027E000E2020895CF92DF92EF92FF926B017C019B
:1027F0000E94161681110EC00E945D2DC61AD70ABE
:10280000E80AF90AC092DF02D092E002E092E10207
:10281000F092E202FF90EF90DF90CF9008950F9337
:102820001F930E941616882329F00E945D2D1F9188
:102830000F9108950E945D2D0091DF021091E0023A
:102840002091E1023091E202600F711F821F931FFD
:10285000EECF0E941616882319F00E94512D08957C
:102860000E940F14CB01089580E008950E949710F4
:1028700008950E9496158FE39CE90197F1F700C037
:1028800000000E94961580E00E94731480FF04C02F
:102890000E9436140E94B82D08950E94391408959C
:1028A0000E949E10811102C00E944B110E94AA102A
:1028B000809374020E94B4109093E4028093E30228
:1028C0000E944D140E94AF100E94B70B8091140219
:1028D0000E94CC0B089508950E946B1408950895EA
:1028E0000E946F140895E82FF0E0E051FD4F8081C1
:1028F0000895089580EA8A95F1F7089500C0089533
:102900000E947A14089508950E9483140895A5E002
:10291000B0E0EDE8F4E10C94F6350E941616F82EBE
:102920006091FA02882309F440C085E0E82E8E0108
:102930000F5F1F4FF8018E2D11928A95E9F7862FB0
:1029400090E0B80180519D4F0E9450168823B9F045
:102950008091E50290E045E050E0B80180519D4F44
:102960000E943A3621E020937502892B91F4F12CD4
:102970000E944B068F2D2596E6E00C94123680912E
:1029800075028823A1F3F8011192EA94E9F71092F5
:102990007502A091E502B0E0A051BD4F85E0F801BD
:1029A00001900D928A95E1F7E3CF70E060517D4F81
:1029B0008091E50290E080519D4F0E94D7160E94C1
:1029C0008414D8CFF894E82FE295EF70F0E031A1AD
:1029D000282F2F7081E090E001C0880F2A95EAF738
:1029E000982F9095932391A392A1892B82A37894F9
:1029F0000895CF93DF93C5EBD1E089918F3F11F01C
:102A00000E94E21481E0CA3BD807B9F7CDEAD1E0D1
:102A100089918F3F11F00E94E21481E0C53BD807F5
:102A2000B9F7DF91CF910895B0E0A0E0EAE1F5E1D8
:102A30000C94F435EC01D62E062F10E0C8018B540F
:102A40009E4F7C01FC0180818F3F09F445C0F894C2
:102A5000E82FE295EF70F0E091A18F7021E030E077
:102A600001C0220F8A95EAF7892F822B81A382A1C8
:102A70002095282322A378940E947E14EDEAF1E0A9
:102A800045EB51E031E0C12C21912F3F51F1A22FB4
:102A9000A295AF70B0E090968C9190E02F7002C03C
:102AA000959587952A95E2F780FD1BC0832FC82A4C
:102AB000330F4E175F0741F7F70180818F3F11F009
:102AC0000E94E21461E0C11001C060E08D2D0E94FF
:102AD0008014C00FD11FC882CDB7DEB7E8E00C94D8
:102AE000103680E0E4CF809102018091020195E0F0
:102AF000811190E09093FA0285E0891B8093E502B2
:102B00000E94F9148AE0E0EFF2E0DF01982F1D92B5
:102B10009A95E9F7E6EEF2E0DF011D928A95E9F772
:102B200085E00E94D9150E9448060895AAE0B0E009
:102B3000ECE9F5E10C94F6358E010F5F1F4F8AE04A
:102B4000F80111928A95E9F7F12C6F2DC8010E94C6
:102B50001415F394F5E0FF12F8CF4AE050E0B80105
:102B600086EE92E00E943A367C0121E0892B09F43E
:102B700020E0E114F10441F08AE0F801A6EEB2E0B1
:102B800001900D928A95E1F76091FA0270E0605130
:102B90007D4F45E086EE92E00E94DA1581E090E0FC
:102BA000E114F10411F40E9487142A96E6E00C94D3
:102BB00012360895FF920F931F93CF93DF93F82E51
:102BC000092F162FD72FC42F222349F081E080939D
:102BD00078020E94512D9093770280937602809123
:102BE00078028823A1F080917602909177020E946A
:102BF000692D059760F0EF2DF02FA12FBD2FCE0F7F
:102C0000DF2FD11DEC17FD0739F410927802CDB7F4
:102C1000DEB7E5E00C94133681918D93F3CF2698BF
:102C20002E9883B186FB882780F9089580917B02D6
:102C3000811107C00E944735882351F081E08093BD
:102C40007B0281E090917B02913009F080E0089551
:102C500082E080937B020E944235F3CF0E940F16E0
:102C6000809302018091020166E0882349F080E0B0
:102C70000E94981B0E94161681110E9486160895C4
:102C800086E0F6CF0E941616811102C00E948916B6
:102C9000089581E090917C029A3008F080E00895D8
:102CA0000F931F93CF93DF93EC018B0180917C02F4
:102CB0008A30B8F4B801CE010E94D416C82F811111
:102CC00022C080917C028F3FB9F40E94512D9093D5
:102CD0007A02809379028C2FDF91CF911F910F910F
:102CE00008958091790290917A020E94692D843F23
:102CF000914000F7C0E0EFCF8F5F80937C028A3075
:102D000020F7C1E0E8CF10927C02E5CF0E94882A2C
:102D100008950E948B2A0895B0E0A0E0E2E9F6E170
:102D20000C94F5357901C82F880FDD0B411551053D
:102D3000A9F0FE0193E0EE0FFF1F9A95E1F7ED5F1A
:102D4000FE4F8181928183589D4F208130E0421750
:102D5000530708F49A01A9010E944736CE010E9448
:102D6000742BD82E8823D1F001151105B9F083E01A
:102D7000CC0FDD1F8A95E1F7FE01ED5FFE4F438129
:102D800050E00417150708F4A801CD5FDE4F6C81F1
:102D90007D8163587D4FC7010E9447368D2DCDB789
:102DA000DEB7E7E00C9411360E94011808950E94E6
:102DB00022180895A4E0B0E0E0EEF6E10C94F835B6
:102DC00060919C0270919D0280919E0290919F0261
:102DD0000E94782D11E0643671058105910518F186
:102DE0000E940F146E5F7F4F8F4F9F4F69837A83CE
:102DF0008B839C8310E000E030E020E044E050E072
:102E0000BE016F5F7F4F82E00E948C16182F8823CF
:102E100051F00E945D2D60939C0270939D028093FF
:102E20009E0290939F02812F2496E4E00C94143626
:102E3000B0E0A0E0EEE1F7E10C94F2357C015B013B
:102E40006A010E94491601E010E0882311F00AE0AF
:102E500010E0C1E0D0E0B501C701F601099581118C
:102E600004C021960C171D072CF4CDB7DEB7EAE09D
:102E70000C940E36CC9F9001CD9F300D300D112457
:102E800090E080E045E34A95F1F700000196821753
:102E90009307C1F7E0CFA8E0B0E0E1E5F7E10C94DB
:102EA000F835CE0101960E94522018856091A0024B
:102EB0007091A1028091A2029091A3020E94782DAC
:102EC000643671058105910510F41123C1F010E0FD
:102ED00000E030E020E048E050E0BE016F5F7F4F4F
:102EE00083E00E948C16882369F00E945D2D609318
:102EF000A0027093A1028093A2029093A3020E9469
:102F00004F2081E02896E4E00C941436A6E0B0E06F
:102F1000ECE8F7E10C94F2357B01C090BA01D09057
:102F2000BB0101E010E09E012A5F3F4F50E040E00E
:102F300070E060E080E00E948C16182F882309F46E
:102F400048C056018FEFA81AB80A60919802709194
:102F5000990280919A0290919B020E94782D64368A
:102F600071058105910568F105E010E09E012F5F74
:102F70003F4F50E040E070E060E081E00E948C163E
:102F8000D82E65E070E0C5010E942A2511E09E81DF
:102F9000981310E01D2141F10E945D2D609398026D
:102FA0007093990280939A0290939B0285E0FE01B0
:102FB0003196A3E9B2E001900D928A95E1F711E014
:102FC00013C065E070E0C5010E942A259E81891327
:102FD000CBCF85E0F6013196DE01119601900D927E
:102FE0008A95E1F71111E2CF85E0E3E9F2E0D7013C
:102FF00001900D928A95E1F7812F2696EAE00C94D4
:103000000E360F931F93CF93DF93EC018B0146E8AD
:1030100057E10E941817811106C080E0DF91CF911F
:103020001F910F9108954AED56E1B801CE010E941B
:103030001817882391F34BE457E1B801CE010E94A1
:103040001817ECCF0F931F93CF93DF93C091BA0162
:10305000D091BB01CE01019625E0FB01DC0101907E
:103060000D922A95E1F765E070E00E942A25888399
:103070006E817F818885998500918F0210919002E1
:103080002091910230919202601771078207930795
:1030900051F060938F02709390028093910290930D
:1030A00092020E94F2138989882331F060E0CE01F8
:1030B0000A960E947721198ADF91CF911F910F9173
:1030C00008950E94A12F0E9488110E94AE2F08959A
:1030D0000E94B32F0E9407120E94CD2F08950E94D4
:1030E000EA2C0E94872F0E9470110E9461180E9492
:1030F00068180E947E11FBCF8091AA0280FF0DC04C
:103100006091280170E0660F771F6038710570F5D7
:103110006115710569F1862F089581FF07C06091DF
:10312000280184E0689FB0011124EFCF609128014D
:1031300082FD0AC08091A9028823A9F0209127016D
:1031400060912801821710F088E0ECCF869FC001C3
:10315000112433E0880F991F3A95E1F7622F70E050
:103160000E947635D2CF68E070E0D5CF8FE7089522
:1031700081E008958091AA0280FF0CC06091240133
:1031800070E075956795759567956115710549F1BD
:10319000862F089581FF06C06091240170E0759527
:1031A0006795F3CF6091240182FD0BC09091A80236
:1031B0009923A1F06091230180912401961738F0A2
:1031C000682F70E06038710500F38FE70895899FDC
:1031D000C001112470E00E947635F4CF61E070E008
:1031E000D7CF81E00895803F31F40E947C1881950B
:1031F0008093AE020895813F19F40E947C18F8CFA5
:10320000823F31F40E947C1881958093AD0208952D
:10321000833F19F40E947C18F8CF893F29F40E945B
:10322000BA188093AF0208958A3F21F40E94BA1819
:103230008195F7CF8B3F31F40E94BA188195809326
:10324000B00208958C3F19F40E94BA18F8CF9CE0A0
:10325000980F953070F4845F990B21E030E001C045
:10326000220F8A95EAF78091AC02822B8093AC0200
:1032700008958D3F31F48091AA0281608093AA0263
:1032800008958E3F21F48091AA028260F7CF8F3F8C
:10329000B9F78091AA028460F1CF4091AD02803FDE
:1032A00059F48091AE0287FF0DC01092AE02411119
:1032B0000BC01092A90208C0813F81F48091AE0238
:1032C00018169CF3442381F08091AF029091B002D4
:1032D000892B09F05AC01092A8020895823F49F440
:1032E00047FFF0CF1092AD028091AE028111ECCF7A
:1032F000E0CF833F19F41416ACF3E4CF9091AF0202
:10330000893F29F41916F4F61092AF02DBCF8A3FF9
:1033100019F497FFD7CFF8CF9091B0028B3F29F4E3
:1033200097FFD0CF1092B002CDCF8C3F19F4191671
:10333000CCF3C8CF9CE0980F953090F4845F990B44
:1033400021E030E0B90102C0660F771F8A95E2F7ED
:10335000CB0180959091AC0289238093AC02B2CFCF
:103360008D3F31F48091AA028E7F8093AA02AACF6A
:103370008E3F21F48091AA028D7FF7CF8F3F09F015
:10338000A1CF8091AA028B7FF0CF08950E94512D8A
:103390009C019091AD028091AE02982B21F0309368
:1033A000A7022093A6029091AF028091B002982BC1
:1033B00021F03093A5022093A4028BEA92E00E94B0
:1033C000132C089586E0EBEAF2E0DF011D928A9566
:1033D000E9F71092A9021092A8021092AA02089589
:1033E000FC01828181110EC0838181110BC0848117
:1033F000811108C091E08581811101C090E0892F81
:103400008170089581E0FCCFA6E0B0E0EAE0FAE147
:103410000C94F93586E0EBEAF2E0DE0111960190BA
:103420000D928A95E1F71092AD021092AE021092C1
:10343000AF021092B0028B819C81892B89F0809120
:10344000A6029091A7020E94692DAC019091A90259
:103450009923C9F1809129018417150608F440C009
:103460008D819E81892B91F08091A4029091A5027B
:103470000E94692DAC019091A802992309F471C0B2
:10348000809125018417150608F479C0BE016F5F8D
:103490007F4F8BEA92E00E94A22C811105C08BEA3B
:1034A00092E00E94F01981110E94C61986E0FE0187
:1034B0003196ABEAB2E001900D928A95E1F726963B
:1034C000E3E00C94153620912A018AE0289F9001B0
:1034D00011242417350720F69F5F9093A90202C09C
:1034E0009F3FD1F71B81112359F00E947C189FEF59
:1034F00011160CF491E0899F802D11248093AD0268
:103500001C81112359F00E947C189FEF11160CF4B6
:1035100091E0899F802D11248093AE023091AD02FD
:10352000332309F49DCF2091AE02222309F498CFD2
:1035300045EB3403C0011124992359F09093AD0257
:1035400045EB240390011124332339F03093AE026C
:1035500087CF81E08093AD02F3CF81E08093AE020C
:103560007FCF209126018AE0289F90011124241703
:10357000350708F08BCF9F5F9093A80202C09F3F52
:10358000D1F71D81112359F00E94BA189FEF11162F
:103590000CF491E0899F802D11248093AF021E814D
:1035A000112359F00E94BA189FEF11160CF491E004
:1035B000899F802D11248093B0023091AF02332374
:1035C00009F464CF2091B002222309F45FCF45EBC8
:1035D0003403C0011124992359F09093AF0245EBB5
:1035E000240390011124332339F03093B0024ECFDD
:1035F00081E08093AF02F3CF81E08093B00246CFA9
:10360000EF92FF920F931F93CF93DF93EB01E82F7D
:10361000D1110EC0442321F0F0E0ED50FB4FE491B6
:103620006E2F7E2F8E2FCDB7DEB7E6E00C941236CC
:103630000D2F10E0282F30E0442329F02D503B4F70
:10364000F901249130E0F6E0CF9FC0011124EFEFA3
:10365000F0E0BF010E946235AB018C2F90E0880F33
:10366000991FA5E5A49FB001A59F700D1124861B8D
:10367000970B982F990F980FBF01601B710B629FDA
:10368000D001639FB00D729FB00D11248B2F9D9FB1
:10369000B0011124672F7727EF01C61BD70BBE019E
:1036A000629FE001639FD00D729FD00D11247F01B6
:1036B000E91AF108E09EB001E19E700DF09E700DD8
:1036C0001124672F7727E61BF70BE29F8001E39F0A
:1036D000100DF29F100D1124E12F722F4230510571
:1036E00099F048F44115510569F04130510581F0D8
:1036F000EB2F8D2F07C04430510569F080F0463024
:103700005105B1F76E2F8FCFE22F7B2F812FFACF8C
:10371000E22F7D2FF7CFEB2F822F712FF3CF7B2F4F
:10372000822FED2FEFCF41E00E94001B08950895F6
:10373000EEE2F1E08083618308958C3070F4482FCD
:10374000460F5527551F4D3051053CF480933001ED
:10375000860F809331016093320108950E94931B7C
:103760000895CF93DF93762FE901682F842F0E946D
:10377000AE1B798368838A83DF91CF910895453B9F
:1037800008F044EB0E94B11B08958091FB02982F32
:103790009E7F61F4817082608093FB028091FE02C3
:1037A000853B18F084EB8093FE0208958A34B0F3D1
:1037B00081708864F1CF88E090E00E9458360895C7
:1037C000CF92DF92EF92FF926B017C010E94C51BAA
:1037D000B701A60188E090E00E947636FF90EF9056
:1037E000DF90CF9008956091FB027091FC02809170
:1037F000FD029091FE020E94E01B0895EBEFF2E0C3
:1038000083E0808311828FEF828384EB8383148231
:10381000AEEBB2E012968C911297836012968C9365
:1038200060817181828193810E94E01B0895809163
:10383000FB0280FF02C08695089580E00895909174
:10384000FF02933018F49F5F9093FF02882351F09A
:103850006091FB027091FC028091FD029091FE024A
:103860000E94E01B089581E00E941F1C0895909122
:10387000FF02992319F091509093FF02882351F091
:103880006091FB027091FC028091FD029091FE021A
:103890000E94E01B089581E00E94371C08958091EA
:1038A000FF0208958093FF02662351F06091FB02AE
:1038B0007091FC028091FD029091FE020E94E01B3B
:1038C000089560E00E94521C08958091FC020895C2
:1038D0008091FD0208958091FE02089570E00E949B
:1038E0004C23089560912F018091FB0280FF0BC053
:1038F00080912E0123E0829FC001112480509D4FB2
:103900000E946E1C0895809130019091310123E056
:10391000829FF0011124E050FD4F891748F7118272
:10392000108212828F5F3396F8CF9091FB0290FF46
:103930000EC0909130012091310133E0939FF0014E
:103940001124E050FD4F921718F00E94721C089548
:103950008183608342839F5F3396F5CFA3E0B0E01D
:10396000E4EBFCE10C94FA359091FB0290FF0AC065
:103970009E012F5F3F4F0E94BF1B4B8169818A814F
:103980000E94951C2396E2E00C941636CF93DF93A9
:10399000EC01EC81F0E0E251FC4F4491EBEFF2E0FE
:1039A000628181810E94AE1C8C818F5F8C83DF914C
:1039B000CF910895CF93DF93EC01EBEFF2E04381D9
:1039C00062818C810E94AE1C8C818F5F8C83DF9121
:1039D000CF910895A3E0B0E0E0EFFCE10C94F8355E
:1039E0008C018091B10281110AC09E012F5F3F4F6F
:1039F00044EB6FEF0E94BF1B8A818093B102F801F4
:103A00006481613069F08091B10240E0662361F029
:103A100040E0623011F44091B10280E060E004C007
:103A20006091B10240E080E00E94951CF801848121
:103A300090E0019663E070E00E94763584832396DF
:103A4000E4E00C941436A3E0B0E0E9E2FDE10C946C
:103A5000F335082FD62EF42EC22E9091FB0290FF44
:103A60003AC0E92FE695AE2FB0E0A454BE4F8C913A
:103A70008093BE029E7F923091F59E012F5F3F4F53
:103A8000802F0E94BF1B4B8169818A810E94951CF7
:103A90008091FC02801308C08091FD028D1104C04A
:103AA0008091FE028F1529F08091C0028260809380
:103AB000C0020093FC02D092FD02F092FE02CC20E4
:103AC00051F06091FB027091FC028091FD02909197
:103AD000FE020E94E01B2396E9E00C940F36823030
:103AE00019F4F090FE02D4CF863019F40091FC0254
:103AF000CFCF8930D9F3893159F6E9516E2F6170F2
:103B0000B62EE695F0E0E251FB4F1491E12C609166
:103B10003201E61618F00E94721CBACFE19EC00175
:103B2000112470E00E946235802FB11014C0860FFE
:103B300020913001622F6E0D7727771F9B01220F96
:103B4000331F260F371F20503D4F4F2D6D2D0E94E4
:103B5000BF1BE394DCCF861BEBCFEBEFF2E0918150
:103B6000282F438162818AE0890F0E94231D0895D6
:103B700081E00E94AD1D0895EBEFF2E09181282FC6
:103B80004381628186EF890F0E94231D089581E0A1
:103B90000E94BC1D0895EBEFF2E0628121E1620F0B
:103BA00008F46FEF282F438181810E94231D08951F
:103BB00081E00E94CB1D0895EBEFF2E0628121E1EC
:103BC000621B08F460E0282F438181810E94231D3D
:103BD000089581E00E94DC1D0895EBEFF2E043813F
:103BE00021E1420F08F44FEF282F628181810E946A
:103BF000231D089581E00E94ED1D0895EBEFF2E092
:103C0000438121E1421B08F440E0282F6281818139
:103C10000E94231D089581E00E94FE1D089520E06A
:103C20000E94231D08959091FB0290FF0FC02C303D
:103C300068F430E0F901EE0FFF1FE20FF31FE050D0
:103C4000FD4F8183608342830E94721C0895A3E02C
:103C5000B0E0EDE2FEE10C94F935122F9091FB02F9
:103C600090FF0BC09E012F5F3F4F0E94BF1B212F73
:103C70004B8169818A810E94131E2396E3E00C9494
:103C80001536EF92FF921F93CF93DF93EC0110E074
:103C9000EE24EA94F12C60913201161770F00E9424
:103CA000721C9A818C8190FF27C08F5F8C83DF917B
:103CB000CF911F91FF90EF90089520913001422FF6
:103CC000410F5527551FCA019A01220F331F280F94
:103CD000391F20503D4F70E0C7010E947635962F66
:103CE0008C814091FE026091FD02199F800D11248C
:103CF0000E94BF1B1F5FCFCF8150D8CFB0E0A0E0A4
:103D0000E4E8FEE10C94F035EC018A81BB24BA941E
:103D100080FD02C0BB24B3948C8181110AC081E074
:103D2000B81222C08091320181508093B30281E0A9
:103D30008C83A12C4CE0942E80913201A816B8F00F
:103D40000E94721C8091B30291E0B91259C0811196
:103D500052C08091320181508093B3021C82CDB752
:103D6000DEB7ECE00C940C361092B302E0CF009179
:103D70003001CA2CD12C0C0D1D2D111DC801880F2E
:103D8000991F080F191F00501D4FF8011182108252
:103D9000128234E0E32EF12C812C8091B302880D45
:103DA0008D301CF1692D0E945435892F082E000C8E
:103DB000990BC816D90691F48091FE028E9DA00140
:103DC0008F9D500D11245595479555954795980110
:103DD0006091FD028091FC020E94BF1B8B0CF1E000
:103DE000EF1AF108D1F6A394A7CF87FFDFCF909108
:103DF0003201890FDBCF81508093B302BC82AFCFF9
:103E000090E001966091320170E00E9476358093D7
:103E1000B3028C83A4CFEF92FF920F931F93CF93A3
:103E2000DF93EC018C81811109C081E08C831092B9
:103E3000B20292E090932D0180932C018091300189
:103E40009091310123E0829FF0011124E050FD4F59
:103E5000891758F110E003E060913201161758F10C
:103E60000E94721C80912C012091B202280F209395
:103E7000B20290912D01980F90932D01191654F4D0
:103E8000022E000C330B409132014150550B241788
:103E9000350734F0819580932C01813009F41C8220
:103EA000CDB7DEB7E6E00C94123611821082128292
:103EB0008F5F3396CDCFE12EF12C70E0C7010E94C9
:103EC000763520913001820F482F50E02091B202C8
:103ED000022E000C330BE216F306BCF020912D01EC
:103EE000022E000C330B2E153F057CF0809F9001B5
:103EF000112420503D4F4091FE026091FD028091BF
:103F0000FC020E94BF1B1F5FA7CFFA01EE0FFF1F2D
:103F1000E40FF51FE050FD4F118210821282F3CFA3
:103F2000B0E0A0E0E6E9FFE10C94F035EC014C8153
:103F3000042F10E09801D8010E94C1359B01AC010B
:103F40000E94D7354B015C01E0E2F0E0E01BF10B91
:103F5000A5E5B0E0AC019B010E94D7356B017C0167
:103F60009F01DF010E94B9359B01AC010E94E2353F
:103F70009B01AC01280D391D4A1D5B1DC701B6010F
:103F80000E948A35F22E822F90E039E23F1520F10F
:103F900043E0249F9001112435952795122F109509
:103FA00000E085E5E82EEF1880913201081718F13E
:103FB0000E94721C9C8181E0992319F0903219F4BF
:103FC0008FEF80932B0180912B01890F8C83CDB7CC
:103FD000DEB7ECE00C940C3625E530E0B901681B47
:103FE000790B9B01220F331F260F371F37FFD4CFCA
:103FF0002F5F3F4FD1CF8E2D01FD8F2D20913001AE
:10400000622F600F7727771F9B01220F331F260F28
:10401000371F20503D4F412F6091FD020E94BF1B72
:104020000F5FC2CF0F931F93CF93DF93EC0110E08C
:1040300000E0909132019017110609F06CF40E9493
:10404000721C8C8190E00196817099278C83DF919E
:10405000CF911F910F91089520913001A801420F37
:10406000511D9A01220F331F240F351F20503D4F41
:104070004C816091FD028091FC029695901711068B
:1040800051F04CF0442349F04091FE020E94BF1BC6
:104090000F5F1F4FCECF4423B9F340E0F7CF10920C
:1040A000C002089525E0EBEFF2E0DC0101900D92F3
:1040B0002A95E1F72091BE023091BF024091C002E3
:1040C000FC012583368347830895EEEBF2E01182ED
:1040D0008281846082830895EBEFF2E080818E7F9D
:1040E00080830E946520EEEBF2E082818160828312
:1040F0002FEF80E792E0215080409040E1F700C030
:1041000000000E94721C0895EBEFF2E080818E7F28
:10411000808360817181828193810E94E01B0E9473
:104120006520EEEBF2E08281816082832FEF80E7F1
:1041300092E0215080409040E1F700C000000E94D2
:10414000721C08956091FB02669570E04BE050E0B0
:1041500083E391E00E942D36892B19F481E080934E
:10416000BF020E9429149093B8028093B7028091F5
:10417000C00284608093C00208959091FB0290FF7A
:1041800030C0917081112EC092609093FB0280919B
:10419000C00281608093C002662351F06091FB02EF
:1041A0007091FC028091FD029091FE020E94E01B42
:1041B0006091FB02669570E04BE050E083E391E094
:1041C0000E942D36892BA9F00E94652081E0809302
:1041D000BA024091FE026091FD028091FC020E94B1
:1041E0000F1E0895853210F09864CFCF880F982B5A
:1041F000CCCF0E94A220EACF682F9091FB02969527
:1042000081E0890F853208F081E00E94BD20089589
:1042100081E00E94FC200895682F9091FB02969502
:104220008FEF890F09F484E20E94BD20089581E098
:104230000E940C21089561E00E94BD200895EBEFDB
:10424000F2E080818160808386950E941B21089521
:104250008091FB0280FF03C00E94842008950E9489
:104260001F21089560E00E94BD2008958091BD0245
:10427000811133C00E949E10811104C00E944B1115
:104280000E94FE1B0E94DB1B6093FB027093FC02EA
:104290008093FD029093FE028091C0028360809320
:1042A000C0026E7F61F40E94FE1B0E94DB1B6093C4
:1042B000FB027093FC028093FD029093FE020E9429
:1042C000C51B0E9465208091FB0280FF03C086957C
:1042D0000E94322181E08093BD020895EBEFF2E06D
:1042E00080818160808386950E94322108951F938A
:1042F000CF93DF93EC01162F8F8180FF0CC0888154
:1043000080FF24C08091FB0281608093FB02888142
:1043100086950E94BD208F8181FF06C0212F4B8191
:104320006A8189810E94231D8F8182FF05C08E8151
:10433000882379F00E94A2208F8183FF03C081E04F
:104340008093BA02DF91CF911F9108950E946C2053
:10435000E2CF0E946520F0CFEF92FF920F931F9360
:10436000CF93DF938091BF02882309F463C08091CB
:10437000BE02E091FB02E695E81BE093B9028230B1
:1043800009F05DC0F0E0E651FC4FE491CE2FD0E0A3
:1043900006EC1CE18091BA02882361F01092BA0207
:1043A0000E9429149093B8028093B7021092BC0225
:1043B0001092BB020E942914E091B702F091B8025A
:1043C0009C012E1B3F0B2F3F3F47A0F52091B602CB
:1043D0002223B1F01092B6022091B4023091B502BE
:1043E000821B930B8F3F9F4758F4205D3A483093D0
:1043F000B5022093B4028091C00288608093C0020D
:10440000E090BB02F090BC02EC0FFD1FF093B802ED
:10441000E093B70287EB92E0F80109958091BB0227
:104420009091BC02892B31F4E114F10419F081E080
:104430008093B602CDB7DEB7E6E00C941236863034
:1044400049F4F0E0E951FC4FE491CE2FD0E00AEDC1
:104450001CE1A0CF893051F4E695F0E0EC51FC4F1F
:10446000E491CE2FD0E001E41EE194CF8F3051F4DF
:10447000E695F0E0EF51FC4FE491CE2FD0E00EE74F
:104480001EE188CF853149F4F0E0E252FC4FE4911F
:10449000CE2FD0E00BE01FE17DCFC8E2D0E000E9F5
:1044A0001FE1883109F476CF833239F4ECEDF3E083
:1044B000C591D4910AEE1CE16DCFC4EFD1E002E1C9
:1044C00010E2843209F466CFC0EDD7E007E91BE1C2
:1044D00061CFFA01811101C0FB0109950895CF93C5
:1044E000DF93C82FD62F0E94171C8C1748F00E940C
:1044F000171C8D1728F40E940821DF91CF91089591
:104500008C2F0E941B21F9CF1F93CF93DF93EC01D7
:10451000FB01128111117EC00E94B00F8272CC3C4F
:10452000FCE5DF0709F49CC008F041C0C63CECE59F
:10453000DE0709F481C0D8F4C33C9CE5D90709F42F
:1045400071C030F4C23CDC4509F469C011E062C0BE
:10455000C43C9CE5D90709F46AC047EC5DE168EB0F
:104560007DE1C53CDC4591F70E94692253C0C93CFE
:10457000FCE5DF0709F46AC068F4C73CECE5DE0738
:1045800009F45FC048ED5DE169EE7DE1C83CDC45C2
:1045900059F3DCCFCA3C9CE5D90709F45CC04BE475
:1045A0005CE163E37CE1CB3CDC45F1F2CFCFC13D84
:1045B000FCE5DF0709F465C098F4CE3C9CE5D9071B
:1045C00009F457C008F451C0CF3CFCE5DF0709F4FB
:1045D00055C0C03DDC4509F0B9CF6EE089E04BC065
:1045E000C43D9CE5D90709F452C058F4C23DFCE52E
:1045F000DF0709F449C0C33DDC4509F0A7CF88E1D6
:1046000035C0C53D9CE5D90709F444C0CD35DD452D
:1046100009F09CCF812FDF91CF911F9108950E94C7
:104620002821F8CF47E151E268E071E29DCF48E0F0
:1046300051E267E171E298CF48EB5DE167EC7DE123
:1046400093CF49EE5DE168ED7DE18ECF4BE05EE119
:104650006AEF7DE189CF4AEF5DE16BE07EE184CFD7
:1046600043E35CE16BE47CE17FCF81E00E941B21AE
:10467000D1CF65E082E00E946F22CCCF68E086E077
:10468000FACF64E18FE0F7CF67E185E1F4CF62E232
:1046900089E1F1CF83E2EACF539A4BB1477F5BB117
:1046A0005860EFB7F8949B01220F331F260F371F76
:1046B000280F391F2817390741F4EFBF8FE594E021
:1046C0000197F1F700C000000895DC016D91CD0164
:1046D00078E05BB9000000C067FF4BB9660F0000CF
:1046E00000C000C000C04BB900C07A9591F7E2CF7E
:1046F00083E290E00E945036823289F484E290E0B6
:104700000E945036893059F485E290E00E9450367C
:1047100091E0833009F090E0892F8170089580E066
:10472000FCCFCF93C82F6FEF811162E283E290E05C
:104730000E9464366FEFC11169E084E290E00E944C
:1047400064366FEFC11163E085E290E00E94643649
:10475000CF910895089586E290E00E945036682F28
:1047600070E090E080E008950895CF93C62F0E94F6
:10477000B4236C2F86E290E00E946436CF910895B6
:1047800080E00E94912360E070E0CB010E94B5239D
:104790000E9417280E94F42881E00E949123089526
:1047A0000E94AA230E94AB230E94B4230E94782374
:1047B000811102C00E94C0230895CF93FB01C281E2
:1047C000CC2309F19C0122513F452031310520F5D0
:1047D00082510E940429C0E08C2FCF91089581E07E
:1047E0000E94E30B43E062E081E00E943E06F3CFCB
:1047F00081E00E94EF0B43E062E081E00E943E0610
:10480000EBCF82E0F6CF8031FFE59F0789F381315E
:104810009F45B9F3C1E0E0CF8031EFE59E07F9F2A3
:1048200081319F45C9F682E0DBCF2FEFFC01208369
:104830000895CF93DF93EC0188818138A9F028F4A3
:10484000803871F0DF91CF910895823881F08338FC
:10485000C9F70E94651C89830E94681C8A83F2CF75
:104860000E946B1C8983EECF0E94171CFBCF0E9415
:104870004F1CF8CFCF93DF93EC0188818138D9F0BA
:1048800028F4803869F0DF91CF9108958238F9F0EB
:104890008338C9F70E946B1C482F6A81898108C040
:1048A000D9810E94681CC82F0E94651C4D2F6C2F57
:1048B0000E940F1EE8CF89810E94322189818111D7
:1048C00003C00E946C20DFCF0E946E21DCCF898163
:1048D0000E94611CD8CFEF92FF920F931F93CF934A
:1048E000DF93EC01062FDC01ED91CD01E150E331C6
:1048F00008F0ACC0F0E0EA55F94C0C94AC351982E4
:1049000089E08A83602FCE010E945A2ECDB7DEB790
:10491000E6E00C9412368981823069F0833071F0C0
:104920008130D9F40E945D2D0E94B2356A837B8369
:104930008C839D83E7CF0E94AB23F6CF7E01B2E04C
:10494000EB0EF11C10E0812F0E947314F70181938C
:104950007F011F5F1A30B9F7D5CF602FCE010E94BB
:104960001524D0CF89818230C1F76A817B818C8107
:104970009D810E94B2350E94B523C4CF4B816A81CC
:1049800089810E94D9279827892798279D838C831E
:10499000B9CF2C813D813227232732274B816A8171
:1049A00089810E94FB27AECF0E941728ABCF0E94BF
:1049B0003A24A8CF0E941924A5CF0E94F31BA2CFAE
:1049C0000E94A52889839ECF0E94A728982789271F
:1049D00098279A83898396CF6B8170E089819A8129
:1049E000AE014C5F5F4F9827892798270E94AA281D
:1049F00089CF6B8170E089819A81AE014C5F5F4FF6
:104A00009827892798270E94CF287CCF0E94F428D6
:104A100079CF0E94C627D6CF6B8170E089819A81B9
:104A2000AE014C5F5F4F9827892798270E944F2837
:104A300069CF6B8170E089819A81AE014C5F5F4FD5
:104A40009827892798270E9473285CCF8FEF888347
:104A500059CF0895FC01680F791F8FEF91E36E170E
:104A60007F0709F408952191822728E030E087FF2D
:104A700006C0880F892721503109C9F7F0CF880F68
:104A8000FACFCF93DF93EC01FB018281882309F4F5
:104A900033C1C330FDE5DF07C0F5CA3F9CE5D90748
:104AA00030F49E0122503C4524313105B0F50E947E
:104AB000B4109093E4028093E302C1318CE5D807EF
:104AC00009F4EEC008F069C0C930ECE5DE0709F46E
:104AD000D5C0C8F5C5308CE5D80709F4C7C000F5C6
:104AE000C330ECE5DE0709F4B9C008F0BBC0C23042
:104AF000DC4509F4ADC08091E3029091E4020E948C
:104B0000C2100E946F0B80E008C0C136EDE5DE07E1
:104B100071F2C53AFDE5DF0751F2DF91CF910895BB
:104B20008091E3028062C7309CE5D90709F493C005
:104B30008091E3028061C830DC4508F48CC080912C
:104B4000E302806488C08091E3028B7FCD30FCE576
:104B5000DF0709F480C098F48091E3028E7FCB30A8
:104B60009CE5D90709F477C08091E3028C60CC30D2
:104B7000DC4508F470C08091E3028D7F6CC08091A9
:104B8000E3028F7ECF30FCE5DF0709F464C008F450
:104B90007BC08091E3028F7D5EC0CD3F9CE5D9074D
:104BA00009F47AC050F5C531FCE5DF0709F486C089
:104BB00098F48091E302837FC3319CE5D90709F41F
:104BC0004AC008F471C00E946F0B9091E302892FD4
:104BD00097FB87F980583FC0CB3FFCE5DF0709F41E
:104BE00049C008F055C08091E4028160CA3FDC45AD
:104BF00009F081CF8093E4027ECFC130EDE5DE077E
:104C000009F468C0A8F4CF3F8CE5D80709F452C076
:104C10008091E4028360C115DD4560F38091E40278
:104C2000982F909591708E7F892B90FB81F9E2CF20
:104C3000C136EDE5DE0709F451C0C53AFDE5DF07F1
:104C400009F453C0C230DD4509F055CF80E043C0C0
:104C50008091E30281608093E3024DCF8091E30273
:104C60008260F9CF8091E3028460F5CF8091E30206
:104C70008860F1CF8091E4028260BCCF0E946F0B0C
:104C80008091E3028068E7CF8091E302877FE3CFE2
:104C90008091E4028E7FAECF8091E4028D7FAACF17
:104CA0008091E3028F7BD7CF0E946F0B8091E3024C
:104CB0008F77D1CF8091E4028C7F9CCF8091E302EB
:104CC00082FB992790F921E0922790FB82F990FBD3
:104CD00083F9C1CF81E00E944E110DCF9091E30284
:104CE000892F8F7E94FF8061B6CF9091E302892F48
:104CF0008E7F90FF8160AFCF81E00FCF8B3109F4C1
:104D000064C040F58B3071F078F4863009F446C009
:104D100020F4853059F180E00895873009F447C0C8
:104D20008830C9F781E00895803109F45CC068F4E7
:104D30008E3089F790917402892F8B7F92FF846067
:104D40008093740282FD4BC0EDCF863159F38931D7
:104D500049F3E1CF8A32F9F060F48732B1F020F400
:104D60008E31C8F28D514BC08932A9F60E945D0682
:104D7000D9CF833440F48A3308F040C0853329F01A
:104D8000883381F2C8CF833431F681E00E94B70BBB
:104D90000E946F0BC7CF0E944B11C4CF8091740249
:104DA000807F8093740281E08093C4020895909183
:104DB0007402892F8E7F90FF81608093740280FD42
:104DC000B1CF817F80937402ADCF90917402892F0F
:104DD0008D7F91FF82608093740281FFA3CF8091C9
:104DE00074028160EFCF90917402892F877F93FFC7
:104DF00088608093740283FDF2CF94CF895391E051
:104E000001C0990F8A95EAF7892FC0CF80E00895F5
:104E10000E9406270895CF93C82F8091C402813045
:104E2000B9F0882331F08230A1F11092C40280E001
:104E30000DC00E94B00F8232D1F78C2F0E9406273E
:104E400081111BC08C2F0E947E268170CF91089506
:104E50000E94B00F823289F38C2F0E9408278111A3
:104E60000AC0C43199F060F4CB3029F0C03169F741
:104E700082E08093C40281E0E8CF81E090E0E5CF5A
:104E8000C93221F0C833B9F380E0DFCF1092C402F9
:104E9000FBCFC93209F440C0F0F4C431E9F1A8F401
:104EA00081E0C73099F680932A0184E1809329013B
:104EB0008AE0809328018EE18093270188E0809327
:104EC000240188E28093230104C082EE8C0F8A3093
:104ED00070F181E0BBCFC03509F450C0B8F48AE06E
:104EE000CF34B9F7E091C102F091C202309789F353
:104EF0002081082E000C990B820F911D8F3F910588
:104F000009F00CF43FC08FEF8083E3CFC135C1F1CE
:104F100081E0C23539F39ACF8091C3028823C9F268
:104F20001092C3021092C2021092C102D2CFCD5190
:104F3000C093C302C330C9F048F4C13099F089E28C
:104F400091E0C23051F01092C302C3CFC53099F046
:104F500078F083E291E0C630B1F79093C20280937B
:104F6000C102B7CF8AE291E0F8CF88E291E0F5CFB5
:104F700087E291E0F2CF84E291E0EFCF86EFB2CF0B
:104F80008FEFB0CF97FFC0CF1082A3CF84E00895FA
:104F900090E1699FB001112450E0440F551F640F48
:104FA000751F90EA899F600D711D1124CB018796B2
:104FB00008950F931F93CF93DF938430C8F46A3022
:104FC000B8F44830A8F40E94C8278C010E945036DB
:104FD000C82FD0E0DC2FCC27C80101960E945036A4
:104FE0009E01282BC901DF91CF911F910F91089548
:104FF00090E080E0F8CF0F931F93CF93DF93122FB1
:10500000032F843078F46A3068F4483058F40E94F2
:10501000C827EC01602F0E946436612FCE010196F3
:105020000E946436DF91CF911F910F910895AF9246
:10503000BF92CF92DF92EF92FF921F93CF93DF93B5
:105040008CEAC82E80E0D82ED0E07601C0E014C0F3
:10505000F50125913491412F6C2F8D2F0E94FB2754
:1050600082E0A80EB11C1F5F183091F780E1E80EB6
:10507000F11CCF5FCA3019F0570110E0E9CFDF5FB4
:1050800080EAC80ED11CD43001F7DF91CF911F9177
:10509000FF90EF90DF90CF90BF90AF900895EF9288
:1050A000FF920F931F93CF93DF93EC018A017C0152
:1050B000E60EF71ECE018796CE15DF0529F4CDB793
:1050C000DEB7E6E00C941236C03822E0D20740F496
:1050D0000E945036F80180830F5F1F4F2196EACF60
:1050E000F8011082F9CFB0E0A0E0E9E7F8E20C9413
:1050F000F4357C016A018C01060F171FEC01CE010B
:105100008796C017D10729F4CDB7DEB7E8E00C9435
:105110001036C03822E0D20740F4FE01EE19FF0934
:10512000EC0DFD1D60810E9464362196E8CF462F6C
:10513000843040F47A3030F4683020F4672F0E94D5
:10514000D927089590E080E0089580E1089589E5E9
:1051500091E00895EF92FF920F931F93CF93DF9307
:10516000EC018A017C01E60EF71ECE0189559D4FA8
:10517000CE15DF0529F4CDB7DEB7E6E00C94123684
:10518000C93521E0D20740F40E945036F8018083EF
:105190000F5F1F4F2196E9CFF8011082F9CFB0E0E1
:1051A000A0E0E5EDF8E20C94F4357C016A018C0195
:1051B000060F171FEC01CE0189559D4FC017D1076F
:1051C00029F4CDB7DEB7E8E00C941036C93521E0FC
:1051D000D20740F4FE01EE19FF09EC0DFD1D6081C0
:1051E0000E9464362196E7CFCF93DF93C7EAD2E0DF
:1051F00060E0CE010E9464362196C11584E0D80794
:10520000B9F7DF91CF910895A4E0B0E0EAE0F9E2C8
:105210000C94F535F82E8FE08F1548F18FEF93E061
:105220000E945036811123C007EA12E0F11023C01A
:1052300019821A821B821C82DD24D39478018FEF9D
:10524000E81AF80AC8010E94503689831A82882316
:1052500071F09FEF980F9330D8F48A83D9820E5F54
:105260001F4FC7010E9450368B83811112C02496B4
:10527000E7E00C941136011584E01807C1F3C8016A
:105280000E945036811101C0FA940F5F1F4FCECF9C
:105290008701CE0101960E949407D0CFCF93DF9370
:1052A000EB0186319C4511F50E94B00F9A8199233C
:1052B00099F08A7A91E009F490E09093C502811107
:1052C00009C089E20E94880F0E94F10F80E0DF91FF
:1052D000CF91089585E3F6CF8091C502811104C076
:1052E00089E20E94900FF0CF85E3FBCF81E0EFCF02
:1052F0000F931F93CF93DF93C42FD22FFC01828192
:105300008823C9F04093C8020E94512D9093C70290
:105310008093C60280E28C0F883040F4C77081E031
:1053200001C0880FCA95EAF70E941B09DF91CF914F
:105330001F910F9108951091C802141332C08091EB
:10534000C6029091C7020E94692D883C910548F5DC
:10535000C0E2CD0F1D17B9F080E2810F883040F414
:10536000177081E001C0880F1A95EAF70E942209A0
:10537000C83048F481E09D2F977001C0880F9A953E
:10538000EAF70E941B09802F0E941209C83070F6AC
:10539000D77081E001C0880FDA95EAF70E942209F0
:1053A000C5CF80E28C0F883008F6C77081E001C05D
:1053B000880FCA95EAF7F2CF0F939C01CB01233FE8
:1053C0004CE5340759F1A8F4283DFCE53F0701F10D
:1053D000293D4CE53407D1F1273D3C4591F406E2E7
:1053E00021EE41EE67ED7CE50E94782980E00F9187
:1053F0000895253FFCE53F07E9F0B0F0263F3C4526
:10540000F9F0FC018281882339F11092C802EFCFB4
:1054100007E225EE45EE68ED7CE5E6CF06E221EEFB
:1054200040EE63EF7CE5E0CF07E225EE44EE64EF6B
:105430007CE5DACF06E221EE42EE65EF7CE5D4CFE3
:1054400007E225EE46EE66EF7CE5CECF08E221E0EE
:1054500045EE69ED7CE5C8CF81E0C9CF8EE14A9B7E
:1054600002C08150E1F74A9BFECF08955A9880E22E
:105470008A95F1F75A9A0895FC013BE03A95F1F7C5
:1054800098E020E080E031E040E14A95F1F7880FB4
:105490004A9B02C08160232742E04A95F1F7000051
:1054A00040E14A95F1F7915079F790E19A95F1F73B
:1054B00099B132E03A95F1F7000040E14A95F1F7F1
:1054C00092FB992790F992272081920F908308955B
:1054D000A1E0B0E0EEE6FAE20C94F63519828C0118
:1054E0007C01E60EF11C0E151F0541F481E0998147
:1054F000911180E02196E6E00C9412360E942E2A4B
:10550000CE0101960E943C2AF80181938F01EBCFD6
:10551000529A5A9A089552985A9AEA9AE9E6F0E00D
:1055200080818F7C808308956150770B91E001C06A
:10553000990F6A95EAF720E031E0911108C0222323
:1055400091F05A9A80E28A95F1F75A980895492F76
:10555000482339F05A9A232740E24A95F1F7969565
:10556000ECCF5A98F9CF5A98EDCFFF920F931F9333
:10557000CF93DF93EC018C01060F111DC017D107EB
:1055800029F4CDB7DEB7E5E00C941336F9900E940C
:10559000362A68E08F2D0E94942AF0CF1F920F9236
:1055A0000FB60F9211240F931F932F933F934F9396
:1055B0005F936F937F938F939F93AF93BF93EF937B
:1055C000FF93CF93DF930F92CDB7DEB719820E947E
:1055D0002E2ACE0101960E943C2A082F0695069598
:1055E0000695282F22952570902F9570290F922FC0
:1055F000937026952695920F982797708981982BFE
:1056000009F05CC0053008F059C080E18A95F1F7D7
:105610005A9A529A82E08A95F1F700C05A9888E027
:10562000089F80011124D801AD5FBE4F1696ED9101
:10563000FC9117973097A9F06091BA017091BB0166
:1056400014962D913C911597260F371F11968D9129
:105650009C911297680F791F13964C9113978C9118
:105660000995F801ED5FFE4F6381662351F02091AB
:10567000BA013091BB0184819581820F931F0E94F2
:10568000B52A0E94362A80E18A95F1F75A985298F5
:105690005A9A80E18A95F1F7F801ED5FFE4F60813B
:1056A000662351F02091BA013091BB018181928132
:1056B000820F931F0E94682A0E942E2A0F90DF916A
:1056C000CF91FF91EF91BF91AF919F918F917F917A
:1056D0006F915F914F913F912F911F910F910F907B
:1056E0000FBE0F901F9018950F931F93CF93DF93CA
:1056F000EC0105970CF04CC0F894529A5A9885E04A
:105700008A95F1F700009C2F969595708C2F8570E7
:10571000980F892F83709695969523E0CC0FDD1F07
:105720002A95E1F7980F8E01092B0E94362A00C0B6
:1057300068E0802F0E94942A80E18A95F1F75298C0
:105740005A9A4A9B1EC087E090E04A991CC0FE010D
:10575000ED5FFE4F63816623F9F02091BA0130912D
:10576000BB0184819581820F931F0E94682A811159
:1057700013C0529A5A9A7894DF91CF911F910F914A
:10578000089500C0DECF019729F4529A5A9A78946E
:1057900080E0F2CF00C0D9CF0E942E2A80E28A9505
:1057A000F1F75A98529A80E18A95F1F7CD5FDE4F72
:1057B0006881662351F02091BA013091BB01898143
:1057C0009A81820F931F0E94B52A0E94362A7894EC
:1057D00081E0D2CF9093F1018093F00108959093EE
:1057E000CF028093CE0208950E941616811103C045
:1057F0008091C9020895E091CE02F091CF023097D6
:1058000029F00190F081E02D0995089580E0089538
:10581000E091CE02F091CF02309721F00280F38127
:10582000E02D09950895E091CE02F091CF023097D6
:1058300039F022E0DC012C930480F581E02D0995FC
:1058400008952091CC023091CD022817390771F0CC
:105850009093CD028093CC02E091CE02F091CF02E2
:10586000309721F00680F781E02D09950895209169
:10587000CA023091CB022817390771F09093CB02FE
:105880008093CA02E091CE02F091CF02309721F0CE
:105890000084F185E02D099508959C012E5F3F4F0E
:1058A000AC01485F5F4F80E02417350709F4089585
:1058B000F90191919F019923B9F38F5FF5CF662389
:1058C00049F0FC01329608962191261729F0E81735
:1058D000F907D1F780E0089581E008959C01FC016B
:1058E00032969FEF80E04191461751F09F3F19F4A7
:1058F000411101C0982F8F5F8630A9F79F3F09F4AF
:105900000895290F311D97FD3A95F9016283089595
:10591000FC01329608962191261303C0DF011197EE
:105920001C92E817F907B9F708950E946E2C0895A4
:105930000E94882C0895029626E0FC0111922A9577
:10594000E9F7089546E050E00E943A3621E0892BBD
:1059500009F420E0822F089508950E94AC2C089548
:10596000811106C081E08093D0020E94AD2C089581
:1059700082E0F9CF83E08093D0020E94AD2C08959D
:105980000E94B02C089581E08093D0020E94AD2C3B
:1059900008950E94C32C0895089508950E94CD2C67
:1059A0000895089508950E94CC2C0895CF930E94E5
:1059B000D12C0E9496150E94D22CC0E08C2F0E9400
:1059C0007314811105C0CF5FCA30C1F7CF9108951C
:1059D00081E0FCCF85B7806885BF85B7806885BFCB
:1059E00008951F921FB61F9211248F939F93AF9318
:1059F000BF938091D102811113C0809124039091B3
:105A00002503A0912603B09127034196A11DB11D46
:105A10008093240390932503A0932603B093270338
:105A2000BF91AF919F918F911F901FBE1F901895AE
:105A300080912C03843031F10E94C7061092D1026C
:105A400088E190E020E40FB6F894A8958093600078
:105A50000FBE2093600083B7817F846083BF83B7CC
:105A6000816083BF7894889583B78E7F83BF0FB69C
:105A7000F894A895809160008861809360001092EE
:105A800060000FBE08950E946F0B0E94CC0608951F
:105A900082E084BD93E095BD9AEF97BD80936E0040
:105AA00008952FB7F8948091240390912503A09135
:105AB0002603B09127032FBF08952FB7F894609164
:105AC00024037091250380912603909127032FBF13
:105AD00008959C014FB7F894809124039091250379
